S0120000436F6E74726F6C6C65722E73726563EE
S11300000C949E010C94C6010C94C6010C94C60178
S11300100C94C6010C94C6010C94C6010C94C60140
S11300200C94C6010C94C6010C94C6010C94C60130
S11300300C94C6010C94C6010C94A6090C94C60138
S11300400C94C6010C94C6010C94BE0E0C94C6010B
S11300500C94C6010C94C6010C94C6010C94C60100
S11300600C94C6010C94C6017B2274797065223A03
S113007022657863657074696F6E222C226D6573D6
S113008073616765223A222573227D0A007B2274FC
S1130090797065223A226E6F745F696E5F66617370
S11300A0745F6D6F6465227D0A007B2274797065CC
S11300B0223A22696E5F666173745F6D6F646522B4
S11300C07D0A007B2274797065223A227465737408
S11300D0227D0A00756E69745F74657374730067BA
S11300E065745F756E69745F74657374735F6E6154
S11300F06D65730074657374006765745F7267621D
S113010063006469737361626C655F666173745FD5
S11301106D6F646500656E61626C655F66617374C2
S11301205F6D6F646500222C2270617373656422B5
S11301303A66616C73657D0A00222C2265786365DA
S11301407074696F6E223A2200222C2270617373DC
S11301506564223A747275657D0A007B2274797035
S113016065223A22756E69745F74657374222C2259
S11301706E616D65223A22007B2274797065223AA1
S11301802272676263222C2272223A25642C22672F
S1130190223A25642C2262223A25642C2263223AD4
S11301A025647D0A00257320657870657269656E23
S11301B0636564206120636F6D6D756E696361743E
S11301C0696F6E206572726F723A20257300257311
S11301D020657870657269656E636564206120636B
S11301E06F6E66696775726174696F6E206572728D
S11301F06F723A20257300476574524742410043A9
S1130200616C63756C6174655761697400476574EA
S113021043616C63756C61746557616974207465BE
S1130220737432206661696C656420776974682030
S11302305754494D453A20202530346420616E647A
S113024020574C4F4E473A20253031642E004361ED
S11302506C63756C617465576169740047657443B8
S1130260616C63756C61746557616974207465733E
S113027074206661696C65642077697468205754DA
S1130280494D453A202530346420616E6420574C32
S11302904F4E473A20253031642E0047657441475C
S11302A061696E00476574414761696E20746573C6
S11302B074206661696C6564210047657441546902
S11302C06D65004765744154696D65207465737488
S11302D0206661696C656421004765745247424138
S11302E00043616C63756C617465576169740047A0
S11302F06574414761696E004765744154696D6571
S1130300005D7D0A0022002C220022007B227479E9
S11303107065223A22756E69745F74657374735FD5
S11303206E616D6573222C226E616D6573223A5B7A
S11303300000F1090A0FCE0F9A11020A11241FBE00
S1130340CFEFD8E0DEBFCDBF12E0A0E0B1E0EAEC31
S1130350F8E302C005900D92A43DB107D9F724E05B
S1130360A4EDB2E001C01D92A130B207E1F711E0A3
S1130370CDE9D1E004C02197FE010E94F417C939E8
S1130380D107C9F70E941B030C94581C0C9400005D
S11303900000000000000000000000000000000059
S11303A00000000000000000000000000000000049
S11303B00000000000000000000000000000000039
S11303C00000000000000000000000000000000029
S11303D000000000000008953C983D98449845981A
S11303E008953C9AD5DF1DD008953D9AD1DF3C98FD
S11303F0CFDF3D98CDDF3C9ACBDF13D00895082E94
S11304003C9AC6DF802D0DD0882311F002D0F8CF9E
S113041008953D9A3C9ABCDF3D98BADF3C98B8DF1A
S113042008950894881F01C0880F59F03D9A18F464
S113043000003C9802C03C9A00C0AADF3D98A8DFA7
S1130440F3CF3D9A3C98A4DF3D98359BFECF882797
S1130450349981E09DDF99270895882701C081E0C0
S113046071E03D9A3C9894DF3D9892DF359BFECF36
S1130470889434990894771FA0F73D9A813011F03D
S11304803C9801C03C9A84DF3D98359BFECF80DFC9
S1130490872F99270895EF92FF920F931F93CF937D
S11304A0DF93EC017B01CB010E94451901960E9468
S11304B014188C01B7010E943E19198308831A820B
S11304C0CE01DF91CF911F910F91FF90EF9008958E
S11304D08F929F92AF92BF92CF92DF92EF92FF9250
S11304E00F931F93CF93DF93CDB7DEB75C018B01DE
S11304F08DB69EB60E9445196C0101962DB73EB784
S1130500281B390B0FB6F8943EBF0FBE2DBF8DB715
S11305109EB701967C01B5010E943E19D801ED9168
S1130520FC910190F081E02DA601B701C801099565
S11305300FB6F8949EBE0FBE8DBEDF91CF911F9172
S11305400F91FF90EF90DF90CF90BF90AF909F906E
S11305508F900895FC016783662369F086859785EB
S1130560BF016C5F7F4FDC01ED91FC910190F08144
S1130570E02D0995089586859785BF016C5F7F4FAF
S1130580DC01ED91FC910280F381E02D0995089541
S113059008950895CF93DF93CDB7DEB728970FB6AC
S11305A0F894DEBF0FBECDBFDC0118968D919C91EF
S11305B01997DC01ED91FC910190F081E02D0995F2
S11305C028960FB6F894DEBF0FBECDBFDF91CF9152
S11305D00895CF93DF93CDB7DEB728970FB6F8947D
S11305E0DEBF0FBECDBF02970E94CA0228960FB687
S11305F0F894DEBF0FBECDBFDF91CF9108950F9366
S11306001F93FC018AE091E09183808384E191E06F
S1130610938382838AE191E09583848381E0868356
S113062071876087538742871587048737872687B2
S11306301F910F910895CF93DF93CDB7DEB7A097A5
S11306400FB6F894DEBF0FBECDBF0FB6F894A895D1
S113065080916000886180936000109260000FBEFA
S11306600E94EC010E94D30F0E94770F3C01CE013F
S113067001960E943A080E94050E2C01C3010E94B3
S1130680C60FDC01ED91FC910190F081E02D0995FC
S1130690C3010E94CA0FDC01ED91FC910280F38139
S11306A0E02D09958AE090E00E946514B82E81E05F
S11306B00E948114E82E6B2D88EC90E00E94901427
S11306C0A82E092F80E290E00E947E084C010F2E94
S11306D0F3E0CF2EF02D2A2D4B2D6CE171E00E941A
S11306E0EB12B201CE0105960E948910CE01099643
S11306F00E945611C3010E94C60F8C019E01275F00
S11307003F4FAE014B5F5F4FB401CE0141960E9453
S1130710FF020E9490116C0186E090E00E947E0826
S11307205C01A401B2010E94DC168EE090E00E94FC
S11307307E084C01B2016E5F7F4FCE0143967C016F
S11307408E010F5E1F4F9E012B5F3F4FA201C4011C
S11307500E94DB03B12C512C11E0CE0101960E94C2
S11307605808693E734081059105ECF0CE0101966D
S11307700E947008B1100CC0C3010E94CA0FDC01B2
S1130780ED91FC910190F081E02D0995B12E0BC003
S1130790C3010E94CA0FDC01ED91FC910280F38138
S11307A0E02D0995B52CC4010E94B905CE01099626
S11307B00E946211D2CFAF92BF92CF92DF92EF929A
S11307C0FF920F931F93FC017183608353834283D1
S11307D0D582C48217830683B186A086F386E28617
S11307E0358724871F910F91FF90EF90DF90CF9072
S11307F0BF90AF9008950F931F93CF93DF93CDB71E
S1130800DEB761970FB6F894DEBF0FBECDBF8C0183
S113081063EC70E0CE0101960E943E19D801129655
S11308208D919C911397DC01ED91FC910190F081E5
S1130830E02D40E150E0BE016F5F7F4F0995619666
S11308400FB6F894DEBF0FBECDBFDF91CF911F91DD
S11308500F910895DC0118968D919C911997DC01F4
S1130860ED91FC910280F381E02D09950895AF92FA
S1130870BF92CF92DF92EF92FF920F931F93CF9389
S1130880DF937C01CB01DB01ED91FC910190F081C0
S1130890E02D0995B82EA92EE82FF92FDF010D9030
S11308A00020E9F711978D010E1B1F0B6801B3E2BD
S11308B0CB0ED11CC6010E941418D82FC92FAF9299
S11308C0BF9288E690E09F938F93DF92CF92CF936D
S11308D0DF930E946019F70182819381A8014E5D24
S11308E05F4FDC01ED91FC910190F081E02D6D2FC3
S11308F07C2F09958D2F9C2F0E94AC18EDB7FEB765
S113090038960FB6F894FEBF0FBEEDBFDF91CF91BE
S11309101F910F91FF90EF90DF90CF90BF90AF9019
S11309200895EF92FF920F931F93CF93DF937C016F
S11309308B01C0E0D0E0C8010E947107C817D90735
S113094088F4CE01880F991FD8011496ED91FC917B
S11309501597E80FF91F60817181C7010E94370460
S11309602196E9CFDF91CF911F910F91FF90EF90E6
S113097008950F931F93CF93DF93CDB7DEB72F97CF
S11309800FB6F894DEBF0FBECDBF8C0181E0898322
S1130990CE0102960E941F07D8011A968D919C9150
S11309A01B97DC01ED91FC910190F081E02DAE01EB
S11309B04E5F5F4FBE016F5F7F4F09952887398770
S11309C04A875B876C877D878E879F878981882389
S11309D099F0F80184859585DC01ED91FC910190F5
S11309E0F081E02D022F132F242F352F462F572F60
S11309F06E857F85099506C0BE016E5F7F4FC80175
S1130A000E949104CE0102960E9475072F960FB69C
S1130A10F894DEBF0FBECDBFDF91CF911F910F9130
S1130A2008950F931F93CF93DF93CDB7DEB7A097AD
S1130A300FB6F894DEBF0FBECDBF8C0181E0898371
S1130A40CE0102960E941F07D80116968D919C91A3
S1130A501797DC01ED91FC910190F081E02D9E014E
S1130A602E5F3F4FAE014F5F5F4F61E00995898173
S1130A708823B1F06AEA70E0CE0108960E943E191C
S1130A80F80182819381DC01ED91FC910190F08168
S1130A90E02D48E150E0BE01685F7F4F099506C034
S1130AA0BE016E5F7F4FC8010E949104CE01029681
S1130AB00E947507A0960FB6F894DEBF0FBECDBF97
S1130AC0DF91CF911F910F9108950F931F93CF93AF
S1130AD0DF93CDB7DEB7A4970FB6F894DEBF0FBE91
S1130AE0CDBF8C0181E08983CE0102960E941F074D
S1130AF0D80116968D919C911797DC01ED91FC918C
S1130B000190F081E02D9E012E5F3F4FAE014F5FBB
S1130B105F4F60E0099589818823B1F06DE870E04A
S1130B20CE0108960E943E19F80182819381DC016E
S1130B30ED91FC910190F081E02D4CE150E0BE017B
S1130B40685F7F4F099506C0BE016E5F7F4FC80185
S1130B500E949104CE0102960E947507A4960FB6D6
S1130B60F894DEBF0FBECDBFDF91CF911F910F91DF
S1130B7008958F929F92BF92CF92DF92EF92FF924D
S1130B800F931F93CF93DF93CDB7DEB7C75CD140EC
S1130B900FB6F894DEBF0FBECDBF6C01DC018D91A2
S1130BA09C91DC01ED91FC910190F081E02D09957F
S1130BB07C01009709F49BC0FC0182819381181683
S1130BC019060CF08EC000E010E0BB24B394D701EA
S1130BD0ED91FC91C801880F991FE80FF91F01904E
S1130BE0F081E02D42815381BE016F5F7F4F808190
S1130BF091810E94300B65E271E00E940B0B00971B
S1130C0009F466C0FC012681223009F061C08480A9
S1130C10958065E171E0C4010E943519892B21F4A6
S1130C20C6010E94110554C062E071E0C4010E9433
S1130C303519892B21F4C6010E94650549C069EF65
S1130C4070E0C4010E943519892B21F4C6010E9469
S1130C50B9043EC064EF70E0C4010E943519892BC9
S1130C6021F4C6010E94FB0333C06FED70E0C401A0
S1130C700E943519892B21F4C6010E942A0428C038
S1130C8064ED70E0C4010E943519892B09F5CE0189
S1130C908F539E4F0E941F07C953DE4FB882C75C13
S1130CA0D140D60118968D919C911997DC01ED9154
S1130CB0FC910190F081E02DAE014F535E4FBE01D7
S1130CC069537E4F0995CE018F539E4F0E9475073D
S1130CD00F5F1F4FF70182819381081719070CF4E6
S1130CE076CFC7010E94ED07C7010E948408C9534B
S1130CF0DE4F0FB6F894DEBF0FBECDBFDF91CF91AC
S1130D001F910F91FF90EF90DF90CF90BF909F9035
S1130D108F900895CF92DF92FF920F931F93CF93FA
S1130D20DF93F82E8B016A01E901B9018BE591E0AB
S1130D300E946802BE01C6010E946802FF2031F0D1
S1130D40BE0189E491E00E9468021AC0BE0189E3F1
S1130D5091E00E946802F80101900020E9F73197C0
S1130D60AF01401B510BE881F9810190F081E02D26
S1130D70B801CE010995BE0186E291E00E946802A5
S1130D80DF91CF911F910F91FF90DF90CF90089545
S1130D90CF93C82FCA01AB01BC018C2F0E948A06D5
S1130DA081E08C27CF910895CF92DF92EF92FF924A
S1130DB01F93CF93DF93EC017B016A010E947107BB
S1130DC011E0009709F010E0892B69F0EC81FD81B6
S1130DD080819181DC01ED91FC910190F081E02D05
S1130DE00995BC0102C060E070E09601A701812F63
S1130DF00E948A06CE010E94710721E0892B09F422
S1130E0020E0822FDF91CF911F91FF90EF90DF9030
S1130E10CF90089508952EE231E0FC0131832083C0
S1130E201382128208952EE231E0FC013183208383
S1130E3082819381009711F00E9484080895FC0137
S1130E401182108213821282158214820895AF9245
S1130E50BF92CF92DF92EF92FF920F931F93CF93A3
S1130E60DF93EC017B010A811B818881998108173A
S1130E701907E9F40115110521F0C801880F991F1C
S1130E8002C081E090E09B838A83880F991F0E94AF
S1130E9014186C01AC80BD80A801440F551FB50126
S1130EA00E944E19C5010E94AC18DD82CC82EC81EF
S1130EB0FD81888199819C012F5F3F4F398328836D
S1130EC0880F991FE80FF91FF182E082DF91CF911B
S1130ED01F910F91FF90EF90DF90CF90BF90AF9054
S1130EE00895FC01808191810895CF92DF92EF9261
S1130EF0FF920F931F93CF93DF938C01DC01ED904E
S1130F00FC90E114F104D9F0C0E0D0E0D8011496CB
S1130F10ED91FC911597CE01880F991FE80FF91FE9
S1130F20C080D180C114D10431F0C6010E941307DE
S1130F30C6010E9484082196EC16FD0639F7F801D3
S1130F40848195810E94AC18DF91CF911F910F91FC
S1130F50FF90EF90DF90CF900895FC017183608340
S1130F60538342830895FC0180819181009711F09D
S1130F700E9487080895FF920F931F93CF93DF93E6
S1130F80EC01F62E072F142F842F90E09B838A8385
S1130F90880F991F0E948108998388831123B9F0CF
S1130FA0AF2DB02F1150212F30E02F5F3F4F220F74
S1130FB0331F80E090E04D915D91E881F981E80F65
S1130FC0F91F51834083029682179307A1F7DF919B
S1130FD0CF911F910F91FF900895EF92FF920F937D
S1130FE01F93CF937C01DC0112968D919C911397F2
S1130FF018161906F4F4C0E0EC2FF0E0EE0FFF1F12
S1131000D7018D919C91E80FF91F00811181011581
S1131010110531F0C8010E94B307C8010E94840879
S1131020CF5F2C2F30E0F701828193812817390795
S11310301CF3D7018D919C91009711F00E948708B1
S1131040CF911F910F91FF90EF9008958091D50259
S11310509091D602A091D702B091D8020A96A11D10
S1131060B11D8093D5029093D602A093D702B0937A
S1131070D8020895CF93DF93EC018091D4028111BB
S113108008C061E086E298E00E948A0881E08093CB
S1131090D4028091D5029091D602A091D702B0914A
S11310A0D80288839983AA83BB83DF91CF91089563
S11310B00F931F93FC018091D5029091D602A091C9
S11310C0D702B091D8020081118122813381BC0101
S11310D0CD01601B710B820B930B1F910F9108952F
S11310E04091D5025091D6026091D7027091D802F6
S11310F0FC01408351836283738308950E94141812
S113110008950E94141808950E94AC1808950E942E
S1131110AC180895EF92FF920F931F93CF93DF9330
S1131120EC018091D902811114C014BC15BC16BC09
S11311308DE487BD84B5826084BD85B5856085BD39
S1131140EEE6F0E0808182608083789481E0809391
S1131150D902613041F08091DA029091DB02892B4F
S113116009F070C0E2C08091E0029091E102892B05
S113117009F4D0C0E091E402F091E502808191810C
S1131180C817D90709F4DBC080E090E0A0EEB2E014
S11311900FC01496ED91FC9115979C01220F331FFB
S11311A0E20FF31F208131812C173D0709F4C7C0DA
S11311B001962D913C9111978217930750F3AAC081
S11311C08091E2029091E302892B39F08091E2024E
S11311D09091E302880F991F02C081E090E000EE35
S11311E012E0F8019383828382819381880F991F8F
S11311F00E9414187C01F801408151816481758139
S1131200440F551F0E944E19F801848195810E9454
S1131210AC18F801F582E482A0EEB2E01496ED91E8
S1131220FC9115978D919C9111979C012F5F3F4FD5
S113123011963C932E93880F991FE80FF91FD183C1
S1131240C0837DC0E091DE02F091DF028081918154
S1131250C817D90709F473C080E090E0AAEDB2E0A2
S11312600FC01496ED91FC9115979C01220F331F2A
S1131270E20FF31F208131812C173D0709F45FC071
S113128001962D913C9111978217930750F34DC00D
S11312908091DC029091DD02892B39F08091DC028F
S11312A09091DD02880F991F02C081E090E00AED61
S11312B012E0F8019383828382819381880F991FBE
S11312C00E9414187C01F801408151816481758168
S11312D0440F551F0E944E19F801848195810E9484
S11312E0AC18F801F582E482AAEDB2E01496ED910F
S11312F0FC9115978D919C9111979C012F5F3F4F05
S113130011963C932E93880F991FE80FF91FD183F0
S1131310C08315C0E0EEF2E02281338180819181A7
S11313202817390709F078CF4BCFEAEDF2E0228194
S113133033818081918128173907B1F6A9CFDF91D4
S1131340CF911F910F91FF90EF9008951F920F92EC
S11313500FB60F9211240F931F932F933F934F9324
S11313605F936F937F938F939F93AF93BF93CF9329
S1131370DF93EF93FF93F8948091E0029091E10260
S1131380892BC9F0C0E0D0E000EE12E0D801149639
S1131390ED91FC911597CE01880F991FE80FF91F65
S11313A00190F081E02D09952196F80180819181C9
S11313B0C817D90758F37894FF91EF91DF91CF9133
S11313C0BF91AF919F918F917F916F915F914F9159
S11313D03F912F911F910F910F900FBE0F901F906F
S11313E01895E0EEF2E011821082138212821582C7
S11313F01482EAEDF2E011821082138212821582C5
S1131400148208958091DE029091DF020E94AC184C
S11314108091E4029091E5020E94AC180895CF9364
S1131420DF93EC019881903208F457C0923231F086
S1131430DE014FE308C0923231F401C0DE011C9298
S1131440CE0101965BC09C35E1F59981953719F081
S11314509232C9F420C0FE0132969E012A5F3F4FAA
S113146081918033E8F18A3338F08134E0F18734B4
S113147018F081568630D0F5E217F30789F74C93BC
S1131480FE01359620C0E2E7F1E021E030E0828100
S113149098130CC002C020E030E0220F331FF90182
S11314A0EE58FE4F8181811108C023C02F5F3F4F4A
S11314B032962830310559F71FC0FE0131968C93BE
S11314C002C09C93FE01EF01219611969181903206
S11314D008F0B1CF80E090E011C080E090E00EC051
S11314E080E090E00BC080E090E008C080E090E0F5
S11314F005C080E090E002C080E090E0DF91CF91F1
S11315000895FB019191992321F09813FBCF81E079
S1131510089580E008950F931F93CF93DF93EC0118
S11315208B018881882359F0B8010E94810A88239D
S113153049F0219688818111F7CF90E005C080E0C1
S113154090E002C08C2F9D2FDF91CF911F910F91BE
S11315500895FC018081882381F080538A3080F4CF
S1131560319603C020532A3068F48E2F9F2F219187
S11315702111F8CF80E090E0089580E090E0089594
S11315808E2F9F2F0895CF938C3269F0C82F60E37C
S113159071E00E94810A811107C066E371E08C2F1B
S11315A00E94810A01C081E0CF910895FF920F93B8
S11315B01F93CF93DF938B01F22EE42FF52FEC01D1
S11315C02191222329F0019638812317C1F315C0F4
S11315D0892BB1F088810E94C30A8823A1F066E3B5
S11315E071E088810E94810A811102C018822196CB
S11315F0F801F6828C2F9D2F08C080E090E005C092
S113160080E090E002C080E090E0DF91CF911F91F4
S11316100F91FF9008950F931F93CF93DF938B0146
S1131620FC01C481D581209789F08A819B81009730
S113163029F0B8010E945719892B59F00990D881D3
S1131640C02D209791F780E090E005C080E090E005
S113165002C08C2F9D2FDF91CF911F910F91089580
S11316602F923F924F925F926F927F928F929F92AE
S1131670AF92BF92CF92DF92EF92FF920F931F939C
S1131680CF93DF9300D01F92CDB7DEB75B013A0151
S113169060E371E00E948B0A009709F4BBC1DC018E
S11316A02C912B3709F0B9C1F501138212821182F2
S11316B010821582148216828C010F5F1F4F7501F0
S11316C0CC24C394D12C6894222422F86894442412
S11316D041F8332433940F2EFDE75F2EF02D60E3A1
S11316E071E0C8010E948B0A9B838A83009709F4E6
S11316F09AC1DC018C918C3221F48D010F5F1F4F54
S1131700EECFF7019681992311F02DE501C0252D27
S1131710821316C0AA81BB811C92F701808191813A
S1131720009731F4119609F47BC18A2D9B2D80C159
S1131730118210820A811B810F5F1F4F7C01CFCF62
S1131740C614D70408F072C14601BFEF8B1A9B0A76
S11317509601220F331F220F331F220F331FF9016B
S1131760EC19FD096F01CA0CDB1CC114D10409F486
S11317705AC1913031F1823209F055C18A819B817D
S11317800196D60113969C938E9312970E940F0A8A
S1131790009709F44BC160E371E00E948B0A009743
S11317A009F444C1FC0120812A3309F03FC160E3FC
S11317B071E001960E948B0A9B838A83892B31F402
S11317C032C1D60113961C921E921297F601118211
S11317D01082D7011496ED91FC911597309739F446
S11317E01596DC92CE92149708C0FC0100C080814B
S11317F091810097D1F7D182C082EA81FB81D60121
S11318001596FC93EE9314978081863609F446C0AE
S113181028F4823239F18B35C9F054C08437A1F1F0
S11318208B3721F08E3609F04DC042C0D601169692
S11318301C92169715961C921E921497ED92FC9288
S11318400A811B810F5F1F4F7601DFC0F6013682CC
S113185015821482F182E0820A811B810F5F1F4F7F
S11318607601D3C08A819B810196D60115969C93FB
S11318708E9314970E940F0A8C01892B09F4D6C009
S1131880F601468264012BCF23E049E351E0B6011F
S11318908A819B810E94D60A8C01B7C023E04EE363
S11318A051E0B6018A819B810E94D60A8C01ADC0A9
S11318B026E044E451E0B6018A819B810E94D60A65
S11318C08C01A3C08D3221F4EA81FB81319602C0E0
S11318D0EA81FB81808190ED980F9A3008F0A6C0D0
S11318E0803339F0CF010E94A90A8C01892B49F475
S11318F09DC08F010F5F1F4F818180538A3008F490
S113190095C0D60116962C92F80180818E3289F406
S1131910818180538A3008F086C0C80102960E94F3
S1131920A90A8C01892B09F481C0E5E0D601169639
S1131930EC93D8018C918F7D853411F511968C919F
S11319408D3229F08B3219F0F801319602C0F8017A
S11319503296908190539A3008F065C0CF01019679
S11319600E94A90A8C01009709F460C025E0F601E1
S11319702683DC018C910E94C30A81113AC056C0AF
S1131980F801F081F9838F2F0E94C30A882309F498
S11319904DC0D60116968C91843059F5EA81FB81AD
S11319A040814D3219F083E190E002C084E190E07F
S11319B098016A817B81261B370B82179307B0F14C
S11319C028173907B1F4D8011C924D3229F0E9E403
S11319D0F1E08E2F9F2F04C02DE531E0822F932F4D
S11319E06A817B810E945719992304F1E981D80106
S11319F0EC9366E371E0D8018C910E94810A811115
S1131A0004C0F80110820F5F1F4F0115110559F032
S1131A10640165CE80E090E00BC080E090E008C0F7
S1131A2080E090E005C080E090E002C080E090E0BB
S1131A300F900F900F90DF91CF911F910F91FF9016
S1131A40EF90DF90CF90BF90AF909F908F907F905A
S1131A506F905F904F903F902F9008953F924F92D8
S1131A605F926F927F928F929F92AF92BF92CF922A
S1131A70DF92EF92FF920F931F93CF93DF93CDB733
S1131A80DEB72A970FB6F894DEBF0FBECDBF5C0158
S1131A90E12CF12C312C2C0184EF481A8EEF580ADA
S1131AA0F501E25FFE4FFA87E987F20180818E1526
S1131AB009F44FC047016701CC0CDD1CCA0CDB1CC8
S1131AC0F60184819581181619060CF042C0048130
S1131AD01581C80101960E9481083C010115110578
S1131AE0C1F0FC0180E090E0002496948794079470
S1131AF0969487940794982C802C8A0C9B1CD40170
S1131B00A80FB91F1C962C91219301960817190749
S1131B10B1F7F301E00FF11F108284E090E00E941E
S1131B207E084C01A801B3010E94AD07E32DF0E04B
S1131B30EE0FFF1F81E090E08C0F9D1FE80FF91F4F
S1131B40918280823394F60115821482E985FA85A4
S1131B501082FFEFEF1AFF0A84E0E816F10409F09F
S1131B60A4CF332061F084E090E00E947E088C01D1
S1131B70432DBE016F5F7F4F0E94BB0702C000E090
S1131B8010E0C8012A960FB6F894DEBF0FBECDBF91
S1131B90DF91CF911F910F91FF90EF90DF90CF9045
S1131BA0BF90AF909F908F907F906F905F904F9079
S1131BB03F90089502970E942E0D0895FC01DC01C8
S1131BC0A45FBE4F1C9211961C9211961C925098C1
S1131BD0519A1582148217821682118610861386F2
S1131BE012861092C50083E38093C400E0ECF0E019
S1131BF080818D7F808388E98093C100E2ECF0E0EE
S1131C00808186608083789408958091E6028111B2
S1131C1007C087EE92E00E94DE0D81E08093E60229
S1131C2087EE92E008952091C6002D3019F02A30F5
S1131C3009F067C0FC01E45FFE4FE081F0E03296FA
S1131C40EE0FFF1FE80FF91F20813181232B09F4C8
S1131C5094C0FC01E35FFE4F2081211141C0319704
S1131C602081233030F0FC0124813581232BA9F419
S1131C7027C0FC01E45FFE4F20812F5F2083E081B9
S1131C80F0E03296EE0FFF1FE80FF91F1182108269
S1131C90FC01E35FFE4F10820895FC012681378129
S1131CA0232B51F020853185232B41F02285338568
S1131CB0232B81F423E005C021E003C022E001C00E
S1131CC020E0FC01E45FFE4F2083319610823196C0
S1131CD010820895FC01E25FFE4F21E02083089505
S1131CE0FC01E35FFE4F10823197208130E02E5FCC
S1131CF03F4F220F331FFC01E20FF31F11821082AA
S1131D000895FC01E35FFE4F3081311136C03196F6
S1131D103081311132C021C0FC01E35FFE4F21E06C
S1131D2020830895DC01A45FBE4F3C91FC0160E474
S1131D30369FE00DF11D1124E40FF51F24872C912B
S1131D4030E04F5F5F4F2E5F3F4F220F331FFC0188
S1131D50E20FF31F518340830895FC01E45FFE4FBB
S1131D60E081F0E03296EE0FFF1FE80FF91F40818B
S1131D70518140345105B4F2CFCF08951F920F9290
S1131D800FB60F9211242F933F934F935F936F934A
S1131D907F938F939F93AF93BF93EF93FF93F894A5
S1131DA00E94050E0E94130E7894FF91EF91BF914B
S1131DB0AF919F918F917F916F915F914F913F91DF
S1131DC02F910F900FBE0F901F901895E0ECF0E04C
S1131DD0808185FFFDCF6093C6000895EF92FF9246
S1131DE00F931F93CF93DF934115510561F08B013E
S1131DF07C01EB01040F151F6991C7010E94E60ED7
S1131E00C017D107C9F7DF91CF911F910F91FF90B0
S1131E10EF900895E7EEF2E086E891E09183808305
S1131E208EE891E0938382830895DC0114962D91CA
S1131E303C91159720FD05C01296ED91FC911397E6
S1131E4015C01A96ED91FC911B97C901959587953C
S1131E50E80FF91F0190F081E02D12968D919C916D
S1131E601397E80FF91F0190F081E02D3595279520
S1131E701A968D919C911B97820F931F0995089533
S1131E80DC0118962D913C91199720FD05C01696FA
S1131E90ED91FC91179715C01A96ED91FC911B9743
S1131EA0C90195958795E80FF91F0190F081E02D00
S1131EB016968D919C911797E80FF91F0190F08168
S1131EC0E02D359527951A968D919C911B97820F3D
S1131ED0931F099508950E94D90F08950E94D70F62
S1131EE008950E94DB0F08950E94DD0F089586EF88
S1131EF093E008950F931F93CF93DF93EC018CE04D
S1131F0090E00E947E08FC0104E911E01183008343
S1131F1081E79FE0938382831582148284E79FE0A4
S1131F209783868311861086D387C287F983E883D3
S1131F308CE090E00E947E08FC01118300838BE614
S1131F409FE093838283158214828EE69FE09783B9
S1131F50868311861086D387C287FB83EA838881B0
S1131F609981DC01ED91FC910280F381E02D0995CA
S1131F708A819B81DC01ED91FC910280F381E02D4B
S1131F800995DF91CF911F910F910895FC018081F4
S1131F9091810895FC0182819381089586EF93E0F5
S1131FA00E947A0F08958AB18C608AB908955A9A6A
S1131FB008955A9808955B9A08955B980895AF928E
S1131FC0BF92CF92DF92EF92FF920F931F93CF9322
S1131FD0DF938C01EB018F818F938E818F938D81A1
S1131FE08F938C818F938B818F938A818F93898137
S1131FF08F9388818F930F2EF8E7EF2EF1E0FF2E59
S1132000F02DFF92EF921F921F921F921F920E9437
S1132010601901966C010E941418A82EB92E8F81A4
S11320208F938E818F938D818F938C818F938B81EE
S11320308F938A818F9389818F9388818F93FF9265
S1132040EF92DF92CF929F93AF920E946019F801B2
S1132050A082B18212828DB79EB74C960FB6F894C7
S11320609EBF0FBE8DBFC801DF91CF911F910F910D
S1132070FF90EF90DF90CF90BF90AF900895EF92D4
S1132080FF920F931F93CF93DF93CDB7DEB72B97B8
S11320900FB6F894DEBF0FBECDBF7C010C831D8349
S11320A02E833F83488759876A877B87BE016C5F8D
S11320B07F4FCE0101960E94DF0FD70112968D91BA
S11320C09C91139769817A81FB0101900020E9F7C3
S11320D03197AF01461B570BDC01ED91FC91019048
S11320E0F081E02D09958B81811106C089819A8147
S11320F0009711F00E9484082B960FB6F894DEBF67
S11321000FBECDBFDF91CF911F910F91FF90EF9044
S113211008952CE931E0FC013183208373836283C9
S11321200895AF92BF92CF92DF92EF92FF920F93F6
S11321301F93CF93DF938C01EB01DC0112966D9119
S11321407C9113976115710509F452C01696ED91AF
S1132150FC911797808191818C179D0709F458C0D1
S1132160329680E090E006C0219131912C173D0712
S113217009F44EC0019686179707B1F740C0E114E1
S1132180F10421F0C701880F991F02C081E090E09B
S1132190F80195838483880F991F0E9414186C0199
S11321A0D8011696AD90BC901797A701440F551F00
S11321B0B5010E944E19C5010E94AC18F801D782DE
S11321C0C682D8011696ED91FC91179712968D91BF
S11321D09C9113979C012F5F3F4F13963C932E9332
S11321E01297880F991FE80FF91FD183C08310C07D
S11321F0FC01E480F580E114F10409F2E2CFD80196
S11322001496ED90FC901597E616F706D1F6BACF22
S1132210DF91CF911F910F91FF90EF90DF90CF90BE
S1132220BF90AF900895DC0112964D915C91139785
S113223041155105D1F01696ED91FC9117978081C7
S1132240918168177907A1F0329620E030E005C04B
S1132250819191918617970769F02F5F3F4F42173D
S11322605307B1F72FEF3FEF05C02FEF3FEF02C049
S113227020E030E04150510913965C934E9312973D
S11322802F5F3F4F220F331F16968D919C91179706
S1132290440F551F421B530B220F331FFC01E20F47
S11322A0F31F608171810E944E190895FC0182EA36
S11322B091E09183808313821282158214821782A3
S11322C0168208950F931F93CF93DF93DC01129628
S11322D02D913C911397232BE9F08C01C0E0D0E0C1
S11322E09E01220F331FD8011696ED91FC9117978A
S11322F0E20FF31F80819181DC01ED91FC9101904B
S1132300F081E02D09952196F80182819381C81707
S1132310D90730F3DF91CF911F910F91089508955C
S11323208091FA03811103C081E08093FA038BEF5B
S113233093E008958AEA91E09093FC038093FB0371
S113234008950F931F93CF93DF938B01C42FD22F44
S1132350FC0182810E94FF018C2F80680E9411027F
S1132360882329F0F80110820E9409020AC08D2FE7
S11323700E941102C82F0E940902CC2311F0F80117
S11323801082DF91CF911F910F910895242FFC01AA
S113239045810E94A1110895242FFC0146810E94C9
S11323A0A1110895242F403108F02FE0FC0143854A
S11323B00E94A1110895411102C020E001C022E051
S11323C0FC0144850E94A1110895242F443008F093
S11323D023E0FC0145850E94A1110895AF92BF92AC
S11323E0CF92DF92EF92FF920F931F93CF93DF93DD
S11323F0EC015B01142F69018A810E94FF01812F86
S1132400806A0E941102811122C08B810E94F50111
S113241081111DC0F601C0818C2F90E00E94141818
S11324207C01892BA1F0CC2369F0C0E087010C0F5B
S1132430111D0E942F02F8018083CF5FF601808175
S1132440C817A0F30E9409028E2D9F2D08C0F50124
S113245010820E940902F601108280E090E0DF9170
S1132460CF911F910F91FF90EF90DF90CF90BF908D
S1132470AF900895EF92FF920F931F93CF93DF9342
S1132480FC01228D2111A0C07A018B01EC012BE00B
S113249044810E94A111F8018081811111C089E059
S11324A090E00E947E088C01688D798D20E04CEAD2
S11324B051E00E944E14B801C7010E94270784C04E
S11324C04B8DB801CE010E94C611F80180818111A3
S11324D011C089E090E00E947E088C01688D798D9E
S11324E020E04BEC51E00E944E14B801C7010E9459
S11324F027076AC04C8DB801CE010E94CC11F801A7
S11325008081811111C089E090E00E947E088C01D5
S1132510688D798D20E04FEE51E00E944E14B80191
S1132520C7010E94270750C04D8DB801CE010E94FB
S1132530DB11F8018081811111C089E090E00E94D3
S11325407E088C01688D798D20E041E152E00E9483
S11325504E14B801C7010E94270736C04F8DB80139
S1132560CE010E94E511F8018081811111C089E03A
S113257090E00E947E088C01688D798D20E045E30F
S113258052E00E944E14B801C7010E9427071CC0E4
S11325904E8DB801CE010E94D211F80180818111C3
S11325A011C089E090E00E947E088C01688D798DCD
S11325B020E04BE552E00E944E14B801C7010E948E
S11325C0270702C081E08A8FDF91CF911F910F917D
S11325D0FF90EF900895AF92BF92CF92EF920F9336
S11325E01F93CF93DF93CDB7DEB727970FB6F89439
S11325F0DEBF0FBECDBF5C0183EA92E0F50191839B
S1132600808382E5828383E58383148211E01583CA
S113261083E0868384E0878385E0808786E0818702
S113262087E082878CE083878DE084878FE08587CD
S113263082E1868783E1878784E1808B85E1818BD2
S113264086E1828B87E1838B88E1848B89E1858BAA
S11326508AE1868B8BE1878B718F608F128E438F1B
S1132660248F058FC68EE78ECE0101960E941F0728
S11326701F83AE014F5F5F4FBE01695F7F4FC5018E
S11326800E943A12CE0101960E94750727960FB652
S1132690F894DEBF0FBECDBFDF91CF911F910F9194
S11326A0EF90CF90BF90AF900895AF92BF92CF922A
S11326B0DF92EF92FF920F931F93CF93DF93CDB7E7
S11326C0DEB729970FB6F894DEBF0FBECDBF7C01ED
S11326D08B016A010E943A12D8018C91882309F473
S11326E047C088E089879E01275F3F4FF7014089F3
S11326F0B801C7010E94EE11FC01D8018C91882316
S113270031F1309721F1018110E0102F00278081F1
S1132710082BA380B12CBA2CAA248281A82AC580B4
S1132720D12CDC2CCC248481C82AE780F12CFE2C0B
S1132730EE248681E82ACF010E94AC18BA82A982CD
S1132740DC82CB82FE82ED8218870F8319C089E078
S113275090E00E947E088C01F701608D718D21E06C
S11327604BE852E00E944E14B801C6010E942707AC
S11327701A8219821C821B821E821D8218861F8265
S113278029813A814B815C816D817E818F8198851D
S113279029960FB6F894DEBF0FBECDBFDF91CF915F
S11327A01F910F91FF90EF90DF90CF90BF90AF906B
S11327B00895EF92FF920F931F93CF93DF93EC0151
S11327C08A819B81892B09F060C08C81882319F050
S11327D0813079F15AC0FD80EE80EF2DFE2DDF01AE
S11327E00D900020E9F78D010E1B1F0B0D5B1F4F91
S11327F0C8010E9414189B838A83009709F445C07A
S113280028852F932F812F93EF92FF922EEC31E0A6
S11328103F932F931F930F939F938F930E9460195D
S11328208DB79EB70A960FB6F8949EBF0FBE8DBFA4
S11328302CC0FD80EE80EF2DFE2DDF010D900020D9
S1132840E9F78D010E1B1F0B0D5B1F4FC8010E9482
S113285014189B838A830097C1F028852F932F81B6
S11328602F93EF92FF9225EA31E03F932F931F932A
S11328700F939F938F930E9460198DB79EB70A960A
S11328800FB6F8949EBF0FBE8DBF8A819B81DF91E6
S1132890CF911F910F91FF90EF900895FF920F93A6
S11328A01F93CF93DF93EC018B01F22E0E940B0751
S11328B089EA92E099838883FC821E830D83DF91E9
S11328C0CF911F910F91FF9008959C01220F331F08
S11328D0880F991F880F991F880F991F280F391F78
S11328E0ABEABAEA0E94FA17929582958F7089270B
S11328F09F7089278F3F910519F010F08FEF90E0BA
S11329000895843029F0803129F0813029F406C0FB
S113291081E0089582E0089583E0089580E00895B9
S11329204F925F926F927F928F929F92AF92BF92DB
S1132930CF92DF92EF92FF920F931F93862E912CEA
S1132940A12CB12C0FEF801A900AA00AB00A6C01D6
S1132950E12CF12CA4E3B2E0A50194010E94091832
S11329602B013C01D701C601880F991FAA1FBB1F69
S11329708C0D9D1DAE1DBF1D880F991FAA1FBB1F67
S1132980880F991FAA1FBB1F9C01AD01220F331F83
S1132990441F551FC501B4010E94C2172AE030E04C
S11329A040E050E00E94D217C301B201621B730BD6
S11329B0840B950BA7019601215431094109510952
S11329C00E94D217273612E031074105510508F15C
S11329D0BA01A901440F551F661F771FDB01CA0105
S11329E0880F991FAA1FBB1F880F991FAA1FBB1FFF
S11329F08A019B01080F191F2A1F3B1FC901B80137
S1132A0020E231E040E050E00E94D217822F91E0B2
S1132A1020C0BA01A901440F551F661F771FDB01AF
S1132A20CA01880F991FAA1FBB1F880F991FAA1FCD
S1132A30BB1F8A019B01080F191F2A1F3B1FC901D5
S1132A40B80128E130E040E050E00E94D217822F24
S1132A5090E01F910F91FF90EF90DF90CF90BF9087
S1132A60AF909F908F907F906F905F904F9008955C
S1132A70CF93DF93EC0169ED72E00E944B02CE012B
S1132A80DF91CF910895CF93DF93EC0161EE72E073
S1132A900E944B02CE01DF91CF910895CF93DF9333
S1132AA0EC016FEE72E00E944B02CE01DF91CF91F8
S1132AB00895CF93DF93EC0168EF72E00E944B021C
S1132AC0CE01DF91CF910895EF92FF920F931F9360
S1132AD0CF93DF9300D01F92CDB7DEB7790163ECBB
S1132AE072E0CE0101960E944B0209811A8188E1AD
S1132AF090E00E94651491E08A3009F090E097011B
S1132B00A8016AEB72E0892F0E94C8068B818111AB
S1132B1006C089819A81009711F00E9484080F9061
S1132B200F900F90DF91CF911F910F91FF90EF9035
S1132B300895EF92FF920F931F93CF93DF9300D0EA
S1132B401F92CDB7DEB7790164EA72E0CE01019637
S1132B500E944B0209811A8181E00E94811491E054
S1132B60811190E09701A8016BE972E0892F0E941E
S1132B70C8068B81811106C089819A81009711F062
S1132B800E9484080F900F900F90DF91CF911F91B6
S1132B900F91FF90EF900895EF92FF920F931F9380
S1132BA0CF93DF93CDB7DEB7C957D1090FB6F894E9
S1132BB0DEBF0FBECDBF790162E18CE590E00E94DB
S1132BC090148436F9F01F929F931F928F938CE593
S1132BD092E09F938F931F928CE38F938E01025CFC
S1132BE01F4F1F930F930E9460199701A8016EE471
S1132BF072E080E00E94C8060FB6F894DEBF0FBEF4
S1132C00CDBF28C062E18BE490E00E949014182F9D
S1132C101F929F931F928F938DE092E09F938F93C7
S1132C201F928DE38F93CE0101969F938F930E9401
S1132C30601981E0193109F080E09701AE014F5F1E
S1132C405F4F6FEF71E00E94C8060FB6F894DEBFC5
S1132C500FBECDBFC758DF4F0FB6F894DEBF0FBE0F
S1132C60CDBFDF91CF911F910F91FF90EF90089509
S1132C70CF92DF92EF92FF920F931F93CF93DF9344
S1132C80CDB7DEB761970FB6F894DEBF0FBECDBFE8
S1132C906C017B018901CE0101960E941F070E94ED
S1132CA0770F0E94C60FDC01ED91FC910190F08139
S1132CB0E02D0995F60182819381DC01ED91FC916F
S1132CC00190F081E02DAE014F5F5F4FB701099590
S1132CD02F83388749875A876B877C878D879E87A0
S1132CE0BE01695F7F4FCE010F960E94DF0F6F8593
S1132CF07889FB0101900020E9F73197AF01461B69
S1132D00570BD801ED91FC910190F081E02DC801A1
S1132D100995A80167EF71E0CE0101960E94D406DF
S1132D208989811106C08F859889009711F00E94C6
S1132D308408CE0101960E94750761960FB6F89437
S1132D40DEBF0FBECDBFDF91CF911F910F91FF90DA
S1132D50EF90DF90CF900895CF92DF92EF92FF92A1
S1132D600F931F93CF93DF938C016B017A01C0E023
S1132D70D0E0D8011296ED91FC911397EC0FFD1F52
S1132D808081918114962D913C911597DC01ED91F0
S1132D90FC910190F081E02DA701B60109952296DE
S1132DA0C830D10531F7DF91CF911F910F91FF907A
S1132DB0EF90DF90CF900895EF92FF920F931F93BF
S1132DC0CF93DF93CDB7DEB728970FB6F894DEBF65
S1132DD00FBECDBF8C017A018FEC92E0F801918394
S1132DE080837583648388E090E00E948108F80101
S1132DF09383828382E090E00E947E082FEA32E08F
S1132E00FC01318320839A83898382E090E00E94CD
S1132E107E082FEB32E0FC01318320839C838B837B
S1132E2082E090E00E947E0827EB32E0FC013183CF
S1132E3020839E838D8384E090E00E947E0827ECAB
S1132E4032E0FC0131832083F382E28298878F830E
S1132E50DE01119680E090E02D913D91F8014281D0
S1132E605381FA01E80FF91F3183208302968830D9
S1132E70910591F728960FB6F894DEBF0FBECDBF2B
S1132E80DF91CF911F910F91FF90EF9008959B01D7
S1132E90FC0164817581C9010E9468020895DC0106
S1132EA014968D919C911597FB0101900020E9F7F0
S1132EB03197AF01461B570BDC01ED91FC9101905A
S1132EC0F081E02D09950895DF92EF92FF920F9320
S1132ED01F93CF93DF9300D01F92CDB7DEB78C0141
S1132EE06CE073E00E944717E12CF12C81E0D12CB7
S1132EF0882331F06AE073E0C8010E94471705C0D7
S1132F0067E073E0C8010E944717D8011296ED915B
S1132F10FC911397EE0DFF1D60817181DB01ED9132
S1132F20FC910280F381E02DCE010196099569811F
S1132F307A81C8010E944F178B81811106C0898153
S1132F409A81009711F00E94840865E073E0C8013B
S1132F500E944717B2E0EB0EF11C8D2D98E0E916A4
S1132F60F10431F661E073E0C8010E9447170F9045
S1132F700F900F90DF91CF911F910F91FF90EF90E1
S1132F80DF900895DB018F939F930E940918BF91EE
S1132F90AF91A29F800D911DA39F900DB29F900DA4
S1132FA011240895A1E21A2EAA1BBB1BFD010DC01A
S1132FB0AA1FBB1FEE1FFF1FA217B307E407F507E5
S1132FC020F0A21BB30BE40BF50B661F771F881FC1
S1132FD0991F1A9469F760957095809590959B0157
S1132FE0AC01BD01CF010895EE0FFF1F0590F491D0
S1132FF0E02D0994A29FB001B39FC001A39F700D5F
S1133000811D1124911DB29F700D811D1124911DEC
S113301008950E94FA17A59F900DB49F900DA49F48
S1133020800D911D112408950F931F93CF93DF9367
S11330308230910510F482E090E0E091FF03F0917A
S1133040000420E030E0A0E0B0E0309719F14081C6
S113305051810281138148175907C8F084179507D5
S113306069F4109731F012960C93129713961C93EF
S113307027C00093FF031093000422C021153105DB
S113308019F04217530718F49A01BD01EF01DF014B
S1133090F801DBCF21153105F9F0281B390B243059
S11330A0310580F48A819B816115710521F0FB0152
S11330B09383828304C0909300048093FF03FE01F2
S11330C0329644C0FE01E20FF31F81939193225084
S11330D03109398328833AC02091FD033091FE03DE
S11330E0232B41F420910201309103013093FE031C
S11330F02093FD0320910001309101012115310538
S113310041F42DB73EB74091040150910501241BB1
S1133110350BE091FD03F091FE03E217F307A0F4F1
S11331202E1B3F0B2817390778F0AC014E5F5F4F19
S11331302417350748F04E0F5F1F5093FE0340934A
S1133140FD038193919302C0E0E0F0E0CF01DF91B1
S1133150CF911F910F910895CF93DF93009709F4B6
S113316081C0FC01329713821282A091FF03B091B7
S11331700004109781F420813181820F931F2091E4
S1133180FD033091FE032817390751F5F093FE0330
S1133190E093FD0367C0ED0120E030E0CE17DF07C8
S11331A040F44A815B819E0141155105F1F0EA0129
S11331B0F5CFD383C28340815181840F951FC817F3
S11331C0D90759F488819981840F951F02969183B8
S11331D080838A819B81938382832115310529F41D
S11331E0F0930004E093FF033DC0E901FB83EA830D
S11331F049915991C40FD51FEC17FD0761F48081E3
S11332009181840F951F0296E901998388838281B5
S113321093819B838A83E0E0F0E012968D919C91E8
S11332201397009719F0FD01DC01F7CF8D919C9164
S113323011979D012E5F3F4F820F931F2091FD0335
S11332403091FE032817390769F4309729F4109256
S113325000041092FF0302C013821282B093FE0393
S1133260A093FD03DF91CF910895FB01DC018D91C3
S1133270059080190110D9F3990B0895FB01DC0125
S113328005900D920020E1F70895FC0105900020BF
S1133290E9F7809590958E0F9F1F0895FB01DC013F
S11332A002C001900D9241505040D8F70895FB019F
S11332B0DC018D91019080190110D9F3990B0895C7
S11332C0AEE0B0E0E6E6F9E10C942F1C0D891E890E
S11332D08F89988D2EE02C831A83098397FF02C06F
S11332E080E090E801979E838D83AE01455E5F4F39
S11332F0698D7A8DCE0101960E9490194D815E816F
S113330057FD0AC02F813885421753070CF49A01E0
S1133310F801E20FF31F10822E96E4E00C944B1C8C
S1133320ABE0B0E0E6E9F9E10C94211C6C017B010F
S11333308A01FC0117821682838181FFCCC1CE01F0
S113334001963C01F6019381F70193FD859193FF6A
S113335081917F01882309F4BAC1853239F493FD40
S1133360859193FF81917F01853229F4B60190E024
S11333700E94871BE7CF912C212C312CFFE1F31500
S1133380D8F08B3279F038F4803279F08332A1F4BA
S1133390232D20611DC08D3261F0803369F4232D0B
S11333A0216016C0832D8260382EE32DE4603E2E0A
S11333B02AC0F32DF8601DC037FC2DC020ED280F66
S11333C02A3040F08E32B9F436FC81C1232D2064BA
S11333D0322E19C036FE06C08AE0989E200D1124B4
S11333E0922E11C0EAE02E9E200D1124222EF32DE0
S11333F0F0623F2E08C08C3621F4832D8068382E6D
S113340002C0883641F4F70193FD859193FF8191C1
S11334107F018111B3CF982F9F7D9554933028F469
S11334200C5F1F4F9FE399830DC0833631F08337C0
S113343071F0833509F059C021C0F8018081898376
S11334400E5F1F4F88248394912C530113C02801CD
S1133450F2E04F0E511CF801A080B18036FE03C08B
S1133460692D70E002C06FEF7FEFC5010E947C1BE5
S11334704C018201F32DFF773F2E16C0280122E074
S1133480420E511CF801A080B18036FE03C0692DA4
S113349070E002C06FEF7FEFC5010E94711B4C0109
S11334A0F32DF0683F2E820133FC1BC0822D90E087
S11334B088169906B0F4B60180E290E00E94871B5A
S11334C02A94F4CFF50137FC859137FE81915F0191
S11334D0B60190E00E94871B21102A9421E0821AF1
S11334E091088114910471F7E8C0843611F089368B
S11334F041F5F80137FE07C06081718182819381B3
S11335000C5F1F4F08C060817181072E000C880B6F
S1133510990B0E5F1F4FF32DFF763F2E97FF09C0C7
S113352090958095709561957F4F8F4F9F4FF06870
S11335303F2E2AE030E0A3010E94C31B882E861888
S113354045C0853731F4232D2F7EB22E2AE030E09A
S113355025C0932D997FB92E8F36C1F018F4883584
S113356079F0B5C0803719F0883721F0B0C0E92F61
S1133570E061BE2EB4FE0DC0FB2DF460BF2E09C069
S113358034FE0AC0292F2660B22E06C028E030E09F
S113359005C020E130E002C020E132E0F801B7FECE
S11335A007C060817181828193810C5F1F4F06C0C7
S11335B06081718180E090E00E5F1F4FA3010E9443
S11335C0C31B882E8618FB2DFF773F2E36FE0DC0B9
S11335D0232D2E7FA22E891458F434FE0BC032FC06
S11335E009C0832D8E7EA82E05C0B82CA32C03C041
S11335F0B82C01C0B92CA4FE0FC0FE01E80DF11DCA
S11336008081803321F49A2D997EA92E09C0A2FECF
S113361006C0B394B39404C08A2D867809F0B39499
S1133620A3FC11C0A0FE06C0B21488F4280C922C8E
S11336309B180EC0B21460F4B60180E290E00E94C0
S1133640871BB394F7CFB21418F42B1802C0982C2C
S1133650212CA4FE10C0B60180E390E00E94871BD9
S1133660A2FE17C0A1FC03C088E790E002C088E571
S113367090E0B6010CC08A2D867859F0A1FE02C0F4
S11336808BE201C080E2A7FC8DE2B60190E00E94CB
S1133690871B891438F4B60180E390E00E94871BED
S11336A09A94F7CF8A94F301E80DF11D8081B60155
S11336B090E00E94871B8110F5CF222009F442CEAE
S11336C0B60180E290E00E94871B2A94F6CFF601AF
S11336D08681978102C08FEF9FEF2B96E2E10C94D5
S11336E03D1CFC010590615070400110D8F7809595
S11336F090958E0F9F1F0895FC01615070400190BA
S11337000110D8F7809590958E0F9F1F08950F9301
S11337101F93CF93DF93FB01238121FD03C08FEF20
S11337209FEF2CC022FF16C046815781248135812A
S11337304217530744F4A081B1819D012F5F3F4F8D
S1133740318320838C93268137812F5F3F4F3783CA
S1133750268314C08B01EC01FB010084F185E02D6C
S11337600995892BE1F6D80116968D919C911797AE
S1133770019617969C938E931697CE01DF91CF9165
S11337801F910F910895FA01AA27283051F1203191
S113379081F1E8946F936E7F6E5F7F4F8F4F9F4FE1
S11337A0AF4FB1E03ED0B4E03CD0670F781F891F23
S11337B09A1FA11D680F791F8A1F911DA11D6A0FF1
S11337C0711D811D911DA11D20D009F468943F91A4
S11337D02AE0269F11243019305D3193DEF6CF01A3
S11337E00895462F4770405D4193B3E00FD0C9F769
S11337F0F6CF462F4F70405D4A3318F0495D31FDD6
S11338004052419302D0A9F7EACFB4E0A695979528
S1133810879577956795BA95C9F7009761057105FE
S113382008959B01AC010A2E069457954795379548
S11338302795BA95C9F7620F731F841F951FA01DA2
S113384008952F923F924F925F926F927F928F9240
S11338509F92AF92BF92CF92DF92EF92FF920F931B
S11338601F93CF93DF93CDB7DEB7CA1BDB0B0FB625
S1133870F894DEBF0FBECDBF09942A8839884888E2
S11338805F846E847D848C849B84AA84B984C88478
S1133890DF80EE80FD800C811B81AA81B981CE0F6F
S11338A0D11D0FB6F894DEBF0FBECDBFED01089554
S11338B011E0CDE9D1E004C0FE010E94F417219685
S10D38C0CE39D107C9F7F894FFCF01
S11338CA00000104200000000000AA02C802CA0283
S11338DAFEFF0000E902FCFF0000C902544353330F
S11338EA34373235007479706500000000000A0725
S11338FA200A0D090C007D5D00747275650066610D
S113390A6C7365006E756C6C00393232333337323E
S113391A303336383534373735383037002D393285
S113392A3233333732303336383534373735383043
S113393A380022225C5C2F2F6208660C6E0A720D14
S113394A740900000000EE0E2E0DFEFF0000DA0DD1
S113395A00000000150F400F000000003F10000097
S113396A000091101311000000008F115365747444
S113397A696E6720656E61626C652072656769733A
S113398A746572206661696C656400536574746950
S113399A6E6720524742432074696D696E672072CC
S11339AA65676973746572206661696C656400533E
S11339BA657474696E6720776169742074696D65CA
S11339CA207265676973746572206661696C6564DF
S11339DA0053657474696E672020207761697420C6
S11339EA6C6F6E67207265676973746572206661AD
S11339FA696C65640053657474696E6720616E61ED
S1133A0A6C6F677565206761696E20726567697393
S1133A1A746572206661696C6564005365747469BF
S1133A2A6E6720696E746567726174696F6E20705F
S1133A3A657273697374656E636520726567697309
S1133A4A746572206661696C6564005265616469B3
S1133A5A6E672052474243206661696C65640000C0
S1133A6A000000551300000000D913000000006490
S1133A7A1559150000000099154E1500000000CCD8
S1133A8A154315000000003816381500000000AC74
S1073A9A1664170093
S9030000FC
