:100000000C9439000C9461000C9461000C94610014
:100010000C9461000C9461000C9461000C946100DC
:100020000C9461000C9461000C9461000C946100CC
:100030000C9461000C9461000C9489080C9461008C
:100040000C9461000C9461000C94A10D0C9461005F
:100050000C9461000C9461000C9461000C9461009C
:100060000C9461000C94610075057608D408ED0DC0
:10007000E50811241FBECFEFD8E0DEBFCDBF12E0F0
:10008000A0E0B1E0EAE2F5E202C005900D92A63CE4
:10009000B107D9F723E0A6ECB2E001C01D92AC3F56
:1000A000B207E1F710E0C8E3D0E004C02197FE01F9
:1000B0000E94F80DC433D107C9F70E94F5000C94D3
:1000C00088120C94000000000000000000000000F6
:1000D0000000000000000000000000000000000020
:1000E0000000000000000000000000000000000010
:1000F0000000000000000000000000000000000000
:1001000000000000000000000000000008953D987D
:100110003C984598449808953D9AD5DF1DD00895A0
:100120003C9AD1DF3D98CFDF3C98CDDF3D9ACBDFC5
:1001300013D00895082E3D9AC6DF802D0DD0882358
:1001400011F002D0F8CF08953C9A3D9ABCDF3C985C
:10015000BADF3D98B8DF08950894881F01C0880F62
:1001600059F03C9A18F400003D9802C03D9A00C036
:10017000AADF3C98A8DFF3CF3C9A3D98A4DF3C98D7
:10018000349BFECF8827359981E09DDF992708951C
:10019000882701C081E071E03C9A3D9894DF3C984B
:1001A00092DF349BFECF889435990894771FA0F78F
:1001B0003C9A813011F03D9801C03D9A84DF3C9813
:1001C000349BFECF80DF872F992708950F931F93CD
:1001D000CF93DF93EC018B010E948D031983088379
:1001E000DF91CF911F910F910895CF93DF93CDB7FA
:1001F000DEB7E9970FB6F894DEBF0FBECDBF0FB6DE
:10020000F894A895809160008861809360001092B6
:1002100060000FBE0E9487000E94BC040E94E80C90
:100220003C010E944C058C0141E061E0CE01019649
:100230000E944206CE0101960E94F0079BAB8AAB5A
:10024000CE0101960E94F2079DAB8CAB0E94E003A9
:100250009801285F3F4F42E0BE016E5C7F4F0E94D5
:10026000E1038CE090E00E947D084C0146E051E003
:1002700067E00E9429048CE090E00E947D085C0108
:100280004DE051E066E00E9429049FAA8EAAB9AE13
:10029000A8AE0E9467085C0142E0BE016A5C7F4F25
:1002A0000E9471080E94EF0380E190E00E947D08A7
:1002B0004C01680184E0C80ED11C780186E0E80E8C
:1002C000F11C98012E5F3F4FB3016E5F7F4FA3017A
:1002D000C4010E946F01C4010E947302FCCFAF925F
:1002E000BF92CF92DF92EF92FF920F931F93FC0188
:1002F000718360835383428335832483178306830A
:10030000F186E086D386C286B586A4861F910F91BA
:10031000FF90EF90DF90CF90BF90AF900895EF9255
:10032000FF920F931F93CF93DF93CDB7DEB76E97F6
:100330000FB6F894DEBF0FBECDBF7C01DC011A966C
:100340008D919C911B97DC01ED91FC910190F081C6
:10035000E02D09959F938F9384E191E09F938F9374
:100360008E010F5F1F4F1F930F930E946D0FF701B8
:1003700082819381DC01ED91FC910190F081E02D6F
:100380004DE150E0B80109950F900F900F900F903C
:100390000F900F906E960FB6F894DEBF0FBECDBFD4
:1003A000DF91CF911F910F91FF90EF900895EF9201
:1003B000FF920F931F93CF93DF93CDB7DEB7E197F3
:1003C0000FB6F894DEBF0FBECDBF7C01DC011696E0
:1003D0008D919C911797DC01ED91FC910190F0813A
:1003E000E02D09951F928F9382E391E09F938F9365
:1003F0008E010F5F1F4F1F930F930E946D0FF70128
:1004000082819381DC01ED91FC910190F081E02DDE
:1004100040E350E0B80109950F900F900F900F90B6
:100420000F900F90E1960FB6F894DEBF0FBECDBFD0
:10043000DF91CF911F910F91FF90EF900895EF9270
:10044000FF920F931F93CF93DF93CDB7DEB7AE9795
:100450000FB6F894DEBF0FBECDBF8C0181E089835B
:10046000D8011C968D919C911D97DC01ED91FC911A
:100470000190F081E02DBE016F5F7F4F0995F82E4E
:100480008981882319F10E94E8031F92FF9284E674
:1004900091E09F938F937E01B2E0EB0EF11CFF92EF
:1004A000EF920E946D0FF80182819381DC01ED9142
:1004B000FC910190F081E02D4CE250E0B7010995EC
:1004C0000F900F900F900F900F900F90AE960FB669
:1004D000F894DEBF0FBECDBFDF91CF911F910F917A
:1004E000FF90EF9008958F929F92AF92BF92CF921C
:1004F000DF92EF92FF920F931F93CF93DF93CDB7CD
:10050000DEB7C05CD1400FB6F894DEBF0FBECDBFE2
:100510006C01DC018D919C91DC01ED91FC910190CD
:10052000F081E02D09957C01009709F4E2C0FC01FF
:1005300082819381181619060CF0D5C00E94F6032B
:10054000D70112968D919C911397181619060CF0ED
:10055000CAC000E010E0D701ED91FC91C801880FFE
:10056000991FE80FF91F0190F081E02D428153811E
:10057000BE016F5F7F4F808191810E94130A5C01F1
:1005800062E971E00E94EE09009709F4A1C0FC0144
:100590002681223009F09CC0848095800E94E80C5E
:1005A000F40101900020E9F73197AF01481959098A
:1005B000DC01ED91FC910190F081E02DB4010995F1
:1005C00067E971E0C4010E944F0F892B59F4F601CD
:1005D00086859785DC01ED91FC910190F081E02DFD
:1005E000099576C064EA71E0C4010E944F0F892B1F
:1005F00009F46EC068EA71E0C4010E944F0F892BB4
:10060000F1F460EC71E0C5010E94EE09009709F475
:100610005FC0FC012681243009F05AC08481958195
:100620000E941F0FD60114968D919C911597DC01A5
:10063000ED91FC910190F081E02D099549C06CEBA2
:1006400071E0C4010E944F0F892B21F4C6010E9462
:10065000D7013EC060ED71E0C4010E944F0F892BAD
:10066000D9F46EED71E0C5010E94EE09009781F1A9
:10067000FC012681243061F5848195810E941F0F41
:10068000F601A085B185ED91FC9111970190F08163
:10069000E02DCD0109951CC06AED71E0C4010E94F6
:1006A0004F0F892B21F4C6010E948F0111C064EE07
:1006B00071E0C4010E944F0F892B51F062EF71E08D
:1006C000C4010E944F0F892B19F4C6010E941F021A
:1006D0000F5F1F4FD70112968D919C9113970817AA
:1006E00019070CF438CFC7010E948304C7010E9488
:1006F0008308C054DE4F0FB6F894DEBF0FBECDBFE7
:10070000DF91CF911F910F91FF90EF90DF90CF90ED
:10071000BF90AF909F908F9008950895FC01118233
:10072000108213821282158214820895AF92BF92B2
:10073000CF92DF92EF92FF920F931F93CF93DF93AD
:10074000EC017B010A811B818881998108171907B7
:10075000E9F40115110521F0C801880F991F02C0A5
:1007600081E090E09B838A83880F991F0E94FE0D91
:100770006C01AC80BD80A801440F551FB5010E94DB
:10078000460FC5010E94960EDD82CC82EC81FD8170
:10079000888199819C012F5F3F4F39832883880F7F
:1007A000991FE80FF91FF182E082DF91CF911F912D
:1007B0000F91FF90EF90DF90CF90BF90AF90089592
:1007C0000895FC01758364834683308727830895E9
:1007D0000E94C2040E94C6040E94C80408950E9498
:1007E000C2040E94C4040E94CA0408950E94C00466
:1007F0000E94C6040E94CA040895FC018085918568
:100800000895EF92FF921F93CF93DF93EC017B014A
:100810008B850E949A008C810E94AC00182F0E9448
:10082000A400112311F0F70110828A850E949A001A
:100830000E94CA00C82F0E94CA0078948C2FDF91B2
:10084000CF911F91FF90EF900895FC0186819781D1
:100850000895FC018AE092E09183808382E192E036
:1008600093838283148281E0858382E0868383E0A0
:10087000878351874087660F6E70862F80698387D4
:10088000616962870895FC017183608353834283A9
:100890000895FC0180819181009711F00E948608E3
:1008A0000895FF920F931F93CF93DF93EC01F62EE1
:1008B000072F142F842F90E09B838A83880F991F22
:1008C0000E948008998388831123B9F0AF2DB02F3F
:1008D0001150212F30E02F5F3F4F220F331F80E058
:1008E00090E04D915D91E881F981E80FF91F518306
:1008F0004083029682179307A1F7DF91CF911F9152
:100900000F91FF900895EF92FF920F931F93CF9353
:100910007C01DC0112968D919C9113971816190693
:10092000F4F4C0E0EC2FF0E0EE0FFF1FD7018D9143
:100930009C91E80FF91F008111810115110531F01B
:10094000C8010E944904C8010E948308CF5F2C2F70
:1009500030E0F70182819381281739071CF3D70112
:100960008D919C91009711F00E948608CF911F9164
:100970000F91FF90EF9008958AB18C618AB9089524
:100980005A9A08955A9808955B9A08955B98089525
:100990005C9A08955C980895FC0182850895FC0195
:1009A000838594850895FC01858596850895FC01CD
:1009B000858196810895FC01878190850895FB01CA
:1009C00080818E3718F08DE780830895883218F47F
:1009D00088E2FB01808308950F931F93CF93DF93E9
:1009E0001F92CDB7DEB78C016983BE016F5F7F4F69
:1009F0000E94DF046981F801628782E090E00E9432
:100A00002E120F90DF91CF911F910F9108950297B1
:100A10000E94EC040895FB01808191818D3DF5E0F9
:100A20009F0730F08CED95E0FB0191838083089562
:100A30004E9728F48EE190E0FB0191838083089526
:100A40000F931F93CF93DF9300D0CDB7DEB78C0108
:100A500082E090E00E942012F8018287B801665F70
:100A60007F4FC8010E94DF0480E090E00E942812BE
:100A70009A838983BE016F5F7F4FC8010E940B0577
:100A800089819A81F801948783870F900F90DF9175
:100A9000CF911F910F9108958091C602811107C0D7
:100AA00087EC92E00E94200581E08093C60287ECEB
:100AB00092E00895CF93DF9300D0CDB7DEB77A836D
:100AC0006983BE016F5F7F4F0E940B0569817A8148
:100AD00080E090E00E943C120F900F90DF91CF9148
:100AE000089506970E945A050895E7ECF2E088E120
:100AF00092E09183808386E292E0938382838CE20A
:100B000092E09583848382E392E09783868388E3EF
:100B100092E09187808787E782878AE090E09487D8
:100B2000838788EE93E0968785870895FC01868108
:100B300097810895DC011C962D913C911D9720FD15
:100B400005C01A96ED91FC911B9715C01896ED9172
:100B5000FC911997C90195958795E80FF91F0190A8
:100B6000F081E02D1A968D919C911B97E80FF91F4B
:100B70000190F081E02D3595279518968D919C91E7
:100B80001997820F931F099522E3829FC0011124B8
:100B90000895CF93DF93EC01DB0150968D919C91EA
:100BA000519780FD05C01E96ED91FC911F9715C0D1
:100BB0001896ED91FC9119979C0135952795E20FB8
:100BC000F31F0190F081E02D1E962D913C911F970F
:100BD000E20FF31F0190F081E02D16964D915C918C
:100BE00017979595879518966D917C911997680F31
:100BF000791FCE010995CE01DF91CF910895CF9352
:100C0000DF93EC01645071090E94C905CE01DF91A8
:100C1000CF910895FC01848195810895FC01908114
:100C200081E091FF80E00895FC01908181E093FFD5
:100C300080E00895FC01908181E094FF80E00895B8
:100C4000CF92DF92EF92FF920F931F93FC018EE4FD
:100C500092E09183808388E592E0938382838EE59E
:100C600092E095838483D782C68271876087E68607
:100C7000F786008B118B1F910F91FF90EF90DF9003
:100C8000CF900895AF92BF92CF92DF92EF92FF92F2
:100C90000F931F93CF93DF93EC01B62EA42E86E320
:100CA000888387E389831A8281E08B8382E08C8347
:100CB00083E08D8384E08E8385E08F8386E0888760
:100CC00087E0898788E08A870F2EF6EEEF2EF6E020
:100CD000FF2EF02D00E010E027ED36E040E050E080
:100CE0000F2EFAE3CF2EF2E0DF2EF02DBE01CE0163
:100CF0000D960E9420060F2EFCE6EF2EF7E0FF2E49
:100D0000F02D00E010E02CED36E040E050E00F2E3A
:100D1000F2E4CF2EF2E0DF2EF02DBE01CE014F9691
:100D20000E9420068B2D8F70B82EBB0CBB0CBB868F
:100D3000AA0CAA0CAA0CAA0CAA0CAA0CAC86DF91CD
:100D4000CF911F910F91FF90EF90DF90CF90BF90C8
:100D5000AF900895EF92FF921F93CF93DF93EC0132
:100D60007B01142F88810E949A00812F0E94AC0081
:100D7000882331F0F70110820E94A40080E011C0A6
:100D800089810E949000882331F0F70110820E942F
:100D9000A40080E006C00E94C800C82F0E94A400E2
:100DA0008C2FDF91CF911F91FF90EF900895FC0160
:100DB00042810E94AA060895FC0143810E94AA066E
:100DC0000895FC0147810E94AA060895AF92BF9240
:100DD000CF92DF92EF92FF920F931F93CF93DF9307
:100DE00000D0CDB7DEB78C01CB017A0121E0298399
:100DF000BE016F5F7F4F0E94E1068A838981811166
:100E000018C086E090E00E947D086C010E948E036D
:100E100082E090E00E947D085C01B7010E94E6003C
:100E2000B501C6010E949603F8011082D282C182E8
:100E300045C08A8180FD25C0CE0102960E9414061D
:100E40008823C9F033C0CE0102960E94140688237D
:100E500069F085E090E00E947D085C0141E0B70107
:100E60000E94F407B501C6010E949603F8011082A2
:100E7000D282C18223C081E0F80180831282118274
:100E80001DC086E090E00E947D086C010E948E03E8
:100E900085E090E00E947D085C0140E0B7010E947F
:100EA000F407B501C6010E949603CDCF86E090E01D
:100EB0000E947D086C010E948E03C5CFC8010F906F
:100EC0000F90DF91CF911F910F91FF90EF90DF90E6
:100ED000CF90BF90AF900895AF92BF92CF92DF9224
:100EE000EF92FF920F931F93CF93DF9300D0CDB774
:100EF000DEB78C01CB017A0121E02983BE016F5F4F
:100F00007F4F0E94E1068A838981811118C086E0A3
:100F100090E00E947D086C010E948E0382E090E0C8
:100F20000E947D085C01B7010E94E600B501C60180
:100F30000E949603F8011082D282C18243C0CE0182
:100F400002960E940E06811106C0CE0102960E94F2
:100F50001A06882391F186E090E00E947D086C01DA
:100F60000E948E03CE0102960E940E06882369F02D
:100F700085E090E00E947D085C0140E0B7010E949E
:100F8000F407B501C6010E949603CE0102960E94A5
:100F90001A06882369F085E090E00E947D085C01D4
:100FA00041E0B7010E94F407B501C6010E94960313
:100FB000F8011082D282C18205C081E0F8018083ED
:100FC00012821182C8010F900F90DF91CF911F9173
:100FD0000F91FF90EF90DF90CF90BF90AF9008956A
:100FE0000D9608954F960895FF920F931F93CF93F8
:100FF000DF93EC018B01F42E0E948D03F8821A839B
:1010000009831C821B82DF91CF911F910F91FF906A
:101010000895DF92EF92FF920F931F93CF93DF9388
:10102000DC0114962C911497222309F441C07B0112
:101030008C011296ED91FC91139780819181DC01D6
:10104000ED91FC910190F081E02D0995D82EF701EA
:101050008081882379F1D80114968C9190E00297D1
:101060005CF1C1E0D0E006C0F801248130E0C21795
:10107000D30724F5D8011296ED91FC9113979E01A8
:10108000220F331FE20FF31F80819181DC01ED916C
:10109000FC910190F081E02DB7010995D8160CF470
:1010A000D82E2196F70180818111DECF8D2D07C0CA
:1010B0008BE005C08D2D03C08D2D01C08D2DDF91DE
:1010C000CF911F910F91FF90EF90DF900895809145
:1010D000D602811103C081E08093D60287ED92E0B1
:1010E0000895FC01738362834483089584E692E04B
:1010F0009093D8028093D70208950E94FE0D089520
:101100000E94FE0D08950E94960E08950E94960E6C
:1011100008951F920F920FB60F9211240F931F93F1
:101120002F933F934F935F936F937F938F939F93EF
:10113000AF93BF93CF93DF93EF93FF93F894809196
:10114000E2029091E302892BC9F0C0E0D0E002EE08
:1011500012E0D8011496ED91FC911597CE01880FFD
:10116000991FE80FF91F0190F081E02D0995219654
:10117000F80180819181C817D90758F37894FF91BD
:10118000EF91DF91CF91BF91AF919F918F917F911F
:101190006F915F914F913F912F911F910F910F9000
:1011A0000FBE0F901F901895E2EEF2E011821082B0
:1011B0001382128215821482ECEDF2E01182108209
:1011C000138212821582148208958091E002909118
:1011D000E1020E94960E8091E6029091E7020E9441
:1011E000960E0895CF93DF93EC019881903208F426
:1011F00057C0923231F0DE014FE308C0923231F431
:1012000001C0DE011C92CE0101965BC09C35E1F568
:101210009981953719F09232C9F420C0FE013296B7
:101220009E012A5F3F4F81918033E8F18A3338F085
:101230008134E0F1873418F081568630D0F5E2171A
:10124000F30789F74C93FE01359620C0E8EAF2E0F7
:1012500021E030E0828198130CC002C020E030E031
:10126000220F331FF901E855FD4F8181811108C01C
:1012700023C02F5F3F4F32962830310559F71FC0EA
:10128000FE0131968C9302C09C93FE01EF012196E2
:1012900011969181903208F0B1CF80E090E011C0BA
:1012A00080E090E00EC080E090E00BC080E090E035
:1012B00008C080E090E005C080E090E002C080E0DF
:1012C00090E0DF91CF910895FB019191992321F056
:1012D0009813FBCF81E0089580E008950F931F934A
:1012E000CF93DF93EC018B018881882359F0B801FB
:1012F0000E946409882349F0219688818111F7CFE3
:1013000090E005C080E090E002C08C2F9D2FDF911F
:10131000CF911F910F910895FC018081882381F066
:1013200080538A3080F4319603C020532A3068F409
:101330008E2F9F2F21912111F8CF80E090E008950A
:1013400080E090E008958E2F9F2F0895CF938C32E8
:1013500069F0C82F66E672E00E946409811107C037
:101360006CE672E08C2F0E94640901C081E0CF918D
:101370000895FF920F931F93CF93DF938B01F22E6B
:10138000E42FF52FEC012191222329F001963881D9
:101390002317C1F315C0892BB1F088810E94A609DB
:1013A0008823A1F06CE672E088810E9464098111B3
:1013B00002C018822196F801F6828C2F9D2F08C05A
:1013C00080E090E005C080E090E002C080E090E026
:1013D000DF91CF911F910F91FF9008950F931F936D
:1013E000CF93DF938B01FC01C481D581209789F0D5
:1013F0008A819B81009729F0B8010E944F0F892BA9
:1014000059F00990D881C02D209791F780E090E0A5
:1014100005C080E090E002C08C2F9D2FDF91CF911E
:101420001F910F9108952F923F924F925F926F926A
:101430007F928F929F92AF92BF92CF92DF92EF9264
:10144000FF920F931F93CF93DF9300D01F92CDB7DE
:10145000DEB75B013A0166E672E00E946E09009712
:1014600009F4BBC1DC012C912B3709F0B9C1F5019E
:1014700013821282118210821582148216828C01CC
:101480000F5F1F4F7501CC24C394D12C6894222484
:1014900022F86894442441F8332433940F2EFDE756
:1014A0005F2EF02D66E672E0C8010E946E099B83F4
:1014B0008A83009709F49AC1DC018C918C3221F463
:1014C0008D010F5F1F4FEECFF7019681992311F029
:1014D0002DE501C0252D821316C0AA81BB811C9267
:1014E000F70180819181009731F4119609F47BC155
:1014F0008A2D9B2D80C1118210820A811B810F5F72
:101500001F4F7C01CFCFC614D70408F072C146012B
:10151000BFEF8B1A9B0A9601220F331F220F331F36
:10152000220F331FF901EC19FD096F01CA0CDB1CF6
:10153000C114D10409F45AC1913031F1823209F059
:1015400055C18A819B810196D60113969C938E93F7
:1015500012970E94F208009709F44BC166E672E008
:101560000E946E09009709F444C1FC0120812A33CE
:1015700009F03FC166E672E001960E946E099B8306
:101580008A83892B31F432C1D60113961C921E92A4
:101590001297F60111821082D7011496ED91FC91F9
:1015A0001597309739F41596DC92CE92149708C0AF
:1015B000FC0100C0808191810097D1F7D182C08267
:1015C000EA81FB81D6011596FC93EE9314978081F6
:1015D000863609F446C028F4823239F18B35C9F0D9
:1015E00054C08437A1F18B3721F08E3609F04DC0FD
:1015F00042C0D60116961C92169715961C921E9202
:101600001497ED92FC920A811B810F5F1F4F7601A8
:10161000DFC0F601368215821482F182E0820A81EF
:101620001B810F5F1F4F7601D3C08A819B8101967A
:10163000D60115969C938E9314970E94F2088C0104
:10164000892B09F4D6C0F601468264012BCF23E032
:101650004FE652E0B6018A819B810E94B9098C0154
:10166000B7C023E044E752E0B6018A819B810E9423
:10167000B9098C01ADC026E04AE752E0B6018A8183
:101680009B810E94B9098C01A3C08D3221F4EA81AB
:10169000FB81319602C0EA81FB81808190ED980F39
:1016A0009A3008F0A6C0803339F0CF010E948C092F
:1016B0008C01892B49F49DC08F010F5F1F4F8181E1
:1016C00080538A3008F495C0D60116962C92F80102
:1016D00080818E3289F4818180538A3008F086C0FF
:1016E000C80102960E948C098C01892B09F481C0E3
:1016F000E5E0D6011696EC93D8018C918F7D853468
:1017000011F511968C918D3229F08B3219F0F80178
:10171000319602C0F8013296908190539A3008F0C9
:1017200065C0CF0101960E948C098C01009709F4D5
:1017300060C025E0F6012683DC018C910E94A60999
:1017400081113AC056C0F801F081F9838F2F0E94B1
:10175000A609882309F44DC0D60116968C918430D1
:1017600059F5EA81FB8140814D3219F083E190E027
:1017700002C084E190E098016A817B81261B370BCF
:1017800082179307B0F128173907B1F4D8011C92DA
:101790004D3229F0EFE7F2E08E2F9F2F04C023E9AE
:1017A00032E0822F932F6A817B810E944F0F992311
:1017B00004F1E981D801EC936CE672E0D8018C91D8
:1017C0000E946409811104C0F80110820F5F1F4F4D
:1017D0000115110559F0640165CE80E090E00BC061
:1017E00080E090E008C080E090E005C080E090E0FC
:1017F00002C080E090E00F900F900F90DF91CF91AA
:101800001F910F91FF90EF90DF90CF90BF90AF901E
:101810009F908F907F906F905F904F903F902F9010
:1018200008953F924F925F926F927F928F929F9214
:10183000AF92BF92CF92DF92EF92FF920F931F93DE
:10184000CF93DF93CDB7DEB72A970FB6F894DEBFFC
:101850000FBECDBF5C01E12CF12C312C2C0184EFAB
:10186000481A8EEF580AF501E25FFE4FFA87E987C2
:10187000F20180818E1509F44FC047016701CC0C3D
:10188000DD1CCA0CDB1CF601848195811816190633
:101890000CF042C004811581C80101960E948008A5
:1018A0003C0101151105C1F0FC0180E090E000242D
:1018B000969487940794969487940794982C802CF8
:1018C0008A0C9B1CD401A80FB91F1C962C91219344
:1018D000019608171907B1F7F301E00FF11F108205
:1018E00084E090E00E947D084C01A801B3010E94B1
:1018F0004304E32DF0E0EE0FFF1F81E090E08C0F3A
:101900009D1FE80FF91F918280823394F6011582A2
:101910001482E985FA851082FFEFEF1AFF0A84E04E
:10192000E816F10409F0A4CF332061F084E090E0E0
:101930000E947D088C01432DBE016F5F7F4F0E9486
:10194000510402C000E010E0C8012A960FB6F894D6
:10195000DEBF0FBECDBFDF91CF911F910F91FF90E2
:10196000EF90DF90CF90BF90AF909F908F907F903F
:101970006F905F904F903F90089502970E94110CD6
:101980000895FC01DC01A45FBE4F1C9211961C92CD
:1019900011961C925098519A1582148217821682C1
:1019A00011861086138612861092C50083E38093F9
:1019B000C400E0ECF0E080818D7F808388E9809333
:1019C000C100E2ECF0E08081866080837894089525
:1019D0008091E802811107C089EE92E00E94C10C5B
:1019E00081E08093E80289EE92E008952091C6009C
:1019F0002D3019F02A3009F067C0FC01E45FFE4F7A
:101A0000E081F0E03296EE0FFF1FE80FF91F208112
:101A10003181232B09F494C0FC01E35FFE4F208148
:101A2000211141C031972081233030F0FC01248105
:101A30003581232BA9F427C0FC01E45FFE4F2081F0
:101A40002F5F2083E081F0E03296EE0FFF1FE80F5A
:101A5000F91F11821082FC01E35FFE4F108208958E
:101A6000FC0126813781232B51F020853185232BE2
:101A700041F022853385232B81F423E005C021E04A
:101A800003C022E001C020E0FC01E45FFE4F2083A0
:101A900031961082319610820895FC01E25FFE4F6C
:101AA00021E020830895FC01E35FFE4F108231970F
:101AB000208130E02E5F3F4F220F331FFC01E20FE9
:101AC000F31F118210820895FC01E35FFE4F308105
:101AD000311136C031963081311132C021C0FC0144
:101AE000E35FFE4F21E020830895DC01A45FBE4F39
:101AF0003C91FC0160E4369FE00DF11D1124E40FE0
:101B0000F51F24872C9130E04F5F5F4F2E5F3F4FD2
:101B1000220F331FFC01E20FF31F5183408308950E
:101B2000FC01E45FFE4FE081F0E03296EE0FFF1F14
:101B3000E80FF91F4081518140345105B4F2CFCFF5
:101B400008951F920F920FB60F9211242F933F9377
:101B50004F935F936F937F938F939F93AF93BF93B5
:101B6000EF93FF93F8940E94E80C0E94F60C78948F
:101B7000FF91EF91BF91AF919F918F917F916F9165
:101B80005F914F913F912F910F900FBE0F901F903B
:101B90001895E0ECF0E0808185FFFDCF6093C600F2
:101BA0000895EF92FF920F931F93CF93DF93411508
:101BB000510561F08B017C01EB01040F151F699148
:101BC000C7010E94C90DC017D107C9F7DF91CF9196
:101BD0001F910F91FF90EF900895E9EEF2E08CEBEA
:101BE00092E09183808384EC92E0938382830895D2
:101BF000EE0FFF1F0590F491E02D09940F931F93B2
:101C0000CF93DF938230910510F482E090E0E09171
:101C1000FA03F091FB0320E030E0A0E0B0E0309761
:101C200019F1408151810281138148175907C8F089
:101C30008417950769F4109731F012960C93129758
:101C400013961C9327C00093FA031093FB0322C042
:101C50002115310519F04217530718F49A01BD01F7
:101C6000EF01DF01F801DBCF21153105F9F0281B69
:101C7000390B2430310580F48A819B81611571050F
:101C800021F0FB019383828304C09093FB03809334
:101C9000FA03FE01329644C0FE01E20FF31F819366
:101CA000919322503109398328833AC02091F80357
:101CB0003091F903232B41F420910201309103016B
:101CC0003093F9032093F803209100013091010132
:101CD0002115310541F42DB73EB7409104015091D3
:101CE0000501241B350BE091F803F091F903E2178D
:101CF000F307A0F42E1B3F0B2817390778F0AC012F
:101D00004E5F5F4F2417350748F04E0F5F1F50930B
:101D1000F9034093F8038193919302C0E0E0F0E06F
:101D2000CF01DF91CF911F910F910895CF93DF9352
:101D3000009709F481C0FC01329713821282A091AE
:101D4000FA03B091FB03109781F420813181820F57
:101D5000931F2091F8033091F9032817390751F5A3
:101D6000F093F903E093F80367C0ED0120E030E061
:101D7000CE17DF0740F44A815B819E014115510572
:101D8000F1F0EA01F5CFD383C28340815181840F02
:101D9000951FC817D90759F488819981840F951F19
:101DA0000296918380838A819B819383828321150C
:101DB000310529F4F093FB03E093FA033DC0E901F8
:101DC000FB83EA8349915991C40FD51FEC17FD0796
:101DD00061F480819181840F951F0296E9019983B6
:101DE0008883828193819B838A83E0E0F0E012966E
:101DF0008D919C911397009719F0FD01DC01F7CFAD
:101E00008D919C9111979D012E5F3F4F820F931FE3
:101E10002091F8033091F9032817390769F43097B6
:101E200029F41092FB031092FA0302C0138212826B
:101E3000B093F903A093F803DF91CF9108951F9316
:101E4000FC0199278827BC01E89411911032E9F32D
:101E5000193010F01E30C8F31B3251F01D3249F416
:101E6000689406C00E94580F610F711D811D911D5D
:101E7000119110531A30B0F33EF4909580957095FF
:101E800061957F4F8F4F9F4F1F910895FB01DC019C
:101E900002C001900D9241505040D8F70895FB01C7
:101EA000DC018D91019080190110D9F3990B0895EF
:101EB000592F482F372F262F660F771F881F991FFE
:101EC000660F771F881F991F620F731F841F951F4E
:101ED000660F771F881F991F0895AEE0B0E0E3E713
:101EE000FFE00C945F120D891E8986E08C831A83B3
:101EF00009838FEF9FE79E838D83AE01475E5F4F1F
:101F00006F89788DCE0101960E948F0FEF81F88541
:101F1000E00FF11F10822E96E4E00C947B12ABE0F0
:101F2000B0E0E5E9FFE00C9451126C017B018A01FD
:101F3000FC0117821682838181FFCCC1CE010196FC
:101F40003C01F6019381F70193FD859193FF819107
:101F50007F01882309F4BAC1853239F493FD859154
:101F600093FF81917F01853229F4B60190E00E94B0
:101F70008611E7CF912C212C312CFFE1F315D8F0FD
:101F80008B3279F038F4803279F08332A1F4232D4A
:101F900020611DC08D3261F0803369F4232D2160F2
:101FA00016C0832D8260382EE32DE4603E2E2AC0B9
:101FB000F32DF8601DC037FC2DC020ED280F2A300E
:101FC00040F08E32B9F436FC81C1232D2064322ECC
:101FD00019C036FE06C08AE0989E200D1124922E6C
:101FE00011C0EAE02E9E200D1124222EF32DF06266
:101FF0003F2E08C08C3621F4832D8068382E02C015
:10200000883641F4F70193FD859193FF81917F011B
:102010008111B3CF982F9F7D9554933028F40C5F96
:102020001F4F9FE399830DC0833631F0833771F0E2
:10203000833509F059C021C0F801808189830E5F82
:102040001F4F88248394912C530113C02801F2E080
:102050004F0E511CF801A080B18036FE03C0692DDF
:1020600070E002C06FEF7FEFC5010E947B114C0151
:102070008201F32DFF773F2E16C0280122E0420E89
:10208000511CF801A080B18036FE03C0692D70E0BC
:1020900002C06FEF7FEFC5010E9470114C01F32D5C
:1020A000F0683F2E820133FC1BC0822D90E0881621
:1020B0009906B0F4B60180E290E00E9486112A945D
:1020C000F4CFF50137FC859137FE81915F01B601B0
:1020D00090E00E94861121102A9421E0821A910832
:1020E0008114910471F7E8C0843611F0893641F506
:1020F000F80137FE07C060817181828193810C5F96
:102100001F4F08C060817181072E000C880B990B4E
:102110000E5F1F4FF32DFF763F2E97FF09C090955E
:102120008095709561957F4F8F4F9F4FF0683F2E40
:102130002AE030E0A3010E94C211882E861845C013
:10214000853731F4232D2F7EB22E2AE030E025C0D2
:10215000932D997FB92E8F36C1F018F4883579F018
:10216000B5C0803719F0883721F0B0C0E92FE061A1
:10217000BE2EB4FE0DC0FB2DF460BF2E09C034FE90
:102180000AC0292F2660B22E06C028E030E005C024
:1021900020E130E002C020E132E0F801B7FE07C0E4
:1021A00060817181828193810C5F1F4F06C06081C5
:1021B000718180E090E00E5F1F4FA3010E94C21169
:1021C000882E8618FB2DFF773F2E36FE0DC0232D5F
:1021D0002E7FA22E891458F434FE0BC032FC09C0A5
:1021E000832D8E7EA82E05C0B82CA32C03C0B82C3E
:1021F00001C0B92CA4FE0FC0FE01E80DF11D8081C5
:10220000803321F49A2D997EA92E09C0A2FE06C022
:10221000B394B39404C08A2D867809F0B394A3FCD8
:1022200011C0A0FE06C0B21488F4280C922C9B1892
:102230000EC0B21460F4B60180E290E00E948611F4
:10224000B394F7CFB21418F42B1802C0982C212C99
:10225000A4FE10C0B60180E390E00E948611A2FEA9
:1022600017C0A1FC03C088E790E002C088E590E0B9
:10227000B6010CC08A2D867859F0A1FE02C08BE20F
:1022800001C080E2A7FC8DE2B60190E00E948611B9
:10229000891438F4B60180E390E00E9486119A9484
:1022A000F7CF8A94F301E80DF11D8081B60190E02B
:1022B0000E9486118110F5CF222009F442CEB6018A
:1022C00080E290E00E9486112A94F6CFF601868182
:1022D000978102C08FEF9FEF2B96E2E10C946D1275
:1022E000FC010590615070400110D8F780959095E1
:1022F0008E0F9F1F0895FC016150704001900110E6
:10230000D8F7809590958E0F9F1F08950F931F9378
:10231000CF93DF93FB01238121FD03C08FEF9FEF5C
:102320002CC022FF16C04681578124813581421777
:10233000530744F4A081B1819D012F5F3F4F31834A
:1023400020838C93268137812F5F3F4F37832683ED
:1023500014C08B01EC01FB010084F185E02D09958F
:10236000892BE1F6D80116968D919C9117970196CD
:1023700017969C938E931697CE01DF91CF911F9164
:102380000F910895FA01AA27283051F1203181F1E7
:10239000E8946F936E7F6E5F7F4F8F4F9F4FAF4F6D
:1023A000B1E03ED0B4E03CD0670F781F891F9A1F80
:1023B000A11D680F791F8A1F911DA11D6A0F711D34
:1023C000811D911DA11D20D009F468943F912AE040
:1023D000269F11243019305D3193DEF6CF01089528
:1023E000462F4770405D4193B3E00FD0C9F7F6CF59
:1023F000462F4F70405D4A3318F0495D31FD405221
:10240000419302D0A9F7EACFB4E0A69597958795B6
:1024100077956795BA95C9F7009761057105089595
:102420009B01AC010A2E0694579547953795279541
:10243000BA95C9F7620F731F841F951FA01D0895D9
:10244000F999FECF92BD81BDF89A992780B508957C
:10245000A8E1B0E042E050E00C944312262FF99935
:10246000FECF1FBA92BD81BD20BD0FB6F894FA9A77
:10247000F99A0FBE019608950E942E12272F0C94F0
:102480002F12DC01CB01FC01F999FECF06C0F2BD91
:10249000E1BDF89A319600B40D9241505040B8F722
:1024A00008952F923F924F925F926F927F928F92F8
:1024B0009F92AF92BF92CF92DF92EF92FF920F93D3
:1024C0001F93CF93DF93CDB7DEB7CA1BDB0B0FB6DD
:1024D000F894DEBF0FBECDBF09942A88398848889A
:1024E0005F846E847D848C849B84AA84B984C88430
:1024F000DF80EE80FD800C811B81AA81B981CE0F27
:10250000D11D0FB6F894DEBF0FBECDBFED0108950B
:1025100010E0C8E3D0E004C0FE010E94F80D21964F
:0A252000C933D107C9F7F894FFCFC3
:10252A000000FC0320006C6D37355F37006C6D3797
:10253A00355F36007B2274797065223A22706F7794
:10254A006572222C22706F776572223A25303464C4
:10255A007D007B2274797065223A2274656D7065FC
:10256A007261747572655F6D6178222C2274656D73
:10257A0070657261747572655F6D6178223A253093
:10258A0033647D007B2274797065223A226D61780A
:10259A005F74656D7065726174757265222C227440
:1025AA00656D7065726174757265223A253033649F
:1025BA007D00747970650073797374656D5F636803
:1025CA0065636B0072756E007365745F74656D7018
:1025DA00657261747572655F6D6178006765745FB5
:1025EA0074656D70657261747572655F6D6178008E
:1025FA007365745F706F776572006765745F706F7B
:10260A00776572007365745F696E666F5F72617475
:10261A0065006765745F6D61785F74656D7065727A
:10262A00617475726500000000000104FD03FEFF7D
:10263A000000250400000000CC04EC04CF04D304FD
:10264A005A05FEFF00000705FCFF0000DB04FAFF45
:10265A0000007105F8FF0000D70474633635345F53
:10266A00310074633635345F3200000000009A0589
:10267A009605C905FEFF00000A06FCFF0000FF05DB
:10268A00000000000908200A0D090C007D5D007495
:10269A007275650066616C7365006E756C6C0039E5
:1026AA0032323333373230333638353437373538D8
:1026BA003037002D3932323333373230333638350A
:1026CA00343737353830380022225C5C2F2F6208C5
:1026DA00660C6E0A720D740900000000D10D110C0F
:0626EA00FEFF0000BD0C24
:00000001FF
