S0120000436F6E74726F6C6C65722E73726563EE
S11300000C9439000C9461000C9461000C94610010
S11300100C9461000C9461000C9461000C946100D8
S11300200C9461000C9461000C9461000C946100C8
S11300300C9461000C9461000C943C090C946100D4
S11300400C9461000C9461000C94540E0C946100A7
S11300500C9461000C9461000C9461000C94610098
S11300600C9461000C946100B80529098709A00E5D
S1130070980911241FBECFEFD8E0DEBFCDBF13E037
S1130080A0E0B1E0ECEAF6E202C005900D92A637DA
S1130090B107D9F724E0A6E7B3E001C01D92AC3A5A
S11300A0B207E1F710E0C8E3D0E004C02197FE01F5
S11300B00E94AB0EC433D107C9F70E9435010C94DA
S11300C049130C9400000000000000000000000030
S11300D0000000000000000000000000000000001C
S11300E0000000000000000000000000000000000C
S11300F000000000000000000000000000000000FC
S113010000000000000000000000000008953D9879
S11301103C984598449808953D9AD5DF1DD008959C
S11301203C9AD1DF3D98CFDF3C98CDDF3D9ACBDFC1
S113013013D00895082E3D9AC6DF802D0DD0882354
S113014011F002D0F8CF08953C9A3D9ABCDF3C9858
S1130150BADF3D98B8DF08950894881F01C0880F5E
S113016059F03C9A18F400003D9802C03D9A00C032
S1130170AADF3C98A8DFF3CF3C9A3D98A4DF3C98D3
S1130180349BFECF8827359981E09DDF9927089518
S1130190882701C081E071E03C9A3D9894DF3C9847
S11301A092DF349BFECF889435990894771FA0F78B
S11301B03C9A813011F03D9801C03D9A84DF3C980F
S11301C0349BFECF80DF872F99270895EF92FF920B
S11301D00F931F93CF93DF93EC018C819D81892B27
S11301E041F5FA80EB80EF2DFE2DDF010D9000200C
S11301F0E9F78D010E1B1F0B065E1F4FC8010E94FD
S1130200B10E9D838C830097A1F0EF92FF9226E0BC
S113021031E03F932F931F930F939F938F930E94EB
S113022020108DB79EB708960FB6F8949EBF0FBEE8
S11302308DBF8C819D81DF91CF911F910F91FF9094
S1130240EF9008950F931F93CF93DF93EC018B01ED
S11302500E94D40387E291E0998388831B830A83F5
S1130260DF91CF911F910F910895CF93DF93CDB775
S1130270DEB7E9970FB6F894DEBF0FBECDBF0FB659
S1130280F894A89580916000886180936000109232
S113029060000FBE0E9487000E9401050E949B0D12
S11302A03C010E948F058C0141E061E0CE01019682
S11302B00E948506CE0101960E9433089BAB8AAB4F
S11302C0CE0101960E9435089DAB8CAB0E942C0494
S11302D09801285F3F4F42E0BE016E5C7F4F0E9451
S11302E02D048CE090E00E9430094C0149E251E079
S11302F067E00E946E048CE090E00E9430095C018B
S113030040E351E066E00E946E049FAA8EAAB9AE53
S1130310A8AE0E941A095C0142E0BE016A5C7F4FEC
S11303200E9424090E943B0480E190E00E9430096D
S11303304C01680184E0C80ED11C780186E0E80E07
S1130340F11C98012E5F3F4FB3016E5F7F4FA301F5
S1130350C4010E94AF01C4010E94B902FCCFAF9254
S1130360BF92CF92DF92EF92FF920F931F93FC0103
S11303707183608353834283358324831783068385
S1130380F186E086D386C286B586A4861F910F9136
S1130390FF90EF90DF90CF90BF90AF900895EF92D1
S11303A0FF920F931F93CF93DF93CDB7DEB76E9772
S11303B00FB6F894DEBF0FBECDBF7C01DC011A96E8
S11303C08D919C911B97DC01ED91FC910190F08142
S11303D0E02D09959F938F9387E391E09F938F93EB
S11303E01F928EE18F938E010F5F1F4F1F930F9308
S11303F00E942010F70182819381DC01ED91FC9130
S11304000190F081E02D4DE150E0B80109950FB65F
S1130410F894DEBF0FBECDBF6E960FB6F894DEBF64
S11304200FBECDBFDF91CF911F910F91FF90EF9041
S11304300895EF92FF920F931F93CF93DF93CDB75D
S1130440DEB7E1970FB6F894DEBF0FBECDBF7C01D7
S1130450DC0116968D919C911797DC01ED91FC912E
S11304600190F081E02D09951F928F9385E591E02D
S11304709F938F931F9281E38F938E010F5F1F4F82
S11304801F930F930E942010F70182819381DC0156
S1130490ED91FC910190F081E02D40E350E0B80132
S11304A009950FB6F894DEBF0FBECDBFE1960FB627
S11304B0F894DEBF0FBECDBFDF91CF911F910F9196
S11304C0FF90EF900895EF92FF920F931F93CF93B5
S11304D0DF93CDB7DEB7AE970FB6F894DEBF0FBE8D
S11304E0CDBF8C0181E08983D8011C968D919C91AC
S11304F01D97DC01ED91FC910190F081E02DBE018E
S11305006F5F7F4F0995F82E8981882329F10E9416
S113051034041F92FF9287E891E09F938F931F9278
S11305208DE28F937E01B2E0EB0EF11CFF92EF920D
S11305300E942010F80182819381DC01ED91FC91ED
S11305400190F081E02D4CE250E0B70109950FB61F
S1130550F894DEBF0FBECDBFAE960FB6F894DEBFE3
S11305600FBECDBFDF91CF911F910F91FF90EF9000
S113057008958F929F92AF92BF92CF92DF92EF92A3
S1130580FF920F931F93CF93DF93CDB7DEB7C05C79
S1130590D1400FB6F894DEBF0FBECDBF6C01DC01B5
S11305A08D919C91DC01ED91FC910190F081E02D05
S11305B009957C01009709F4E2C0FC0182819381D2
S11305C0181619060CF0D5C00E943B04D7011296E8
S11305D08D919C911397181619060CF0CAC000E06F
S11305E010E0D701ED91FC91C801880F991FE80F25
S11305F0F91F0190F081E02D42815381BE016F5FAC
S11306007F4F808191810E94C60A5C0165EB71E095
S11306100E94A10A009709F4A1C0FC01268122309E
S113062009F09CC0848095800E949B0DF401019088
S11306300020E9F73197AF0148195909DC01ED9120
S1130640FC910190F081E02DB40109956AEB71E011
S1130650C4010E940210892B59F4F60186859785FE
S1130660DC01ED91FC910190F081E02D099576C0BB
S113067067EC71E0C4010E940210892B09F46EC07A
S11306806BEC71E0C4010E940210892BF1F463EE5B
S113069071E0C5010E94A10A009709F45FC0FC0142
S11306A02681243009F05AC0848195810E94D20F9A
S11306B0D60114968D919C911597DC01ED91FC91D6
S11306C00190F081E02D099549C06FED71E0C401FE
S11306D00E940210892B21F4C6010E9419023EC017
S11306E063EF71E0C4010E940210892BD9F461E028
S11306F072E0C5010E94A10A009781F1FC012681E4
S1130700243061F5848195810E94D20FF601A08581
S1130710B185ED91FC9111970190F081E02DCD010F
S113072009951CC06DEF71E0C4010E940210892B71
S113073021F4C6010E94CF0111C067E072E0C40138
S11307400E940210892B51F065E172E0C4010E94FD
S11307500210892B19F4C6010E9463020F5F1F4F18
S1130760D70112968D919C911397081719070CF4D1
S113077038CFC7010E94C804C7010E943609C0547B
S1130780DE4F0FB6F894DEBF0FBECDBFDF91CF9121
S11307901F910F91FF90EF90DF90CF90BF90AF909B
S11307A09F908F90089508952DE232E0FC013183EB
S11307B020830895FC011182108213821282158213
S11307C014820895AF92BF92CF92DF92EF92FF927C
S11307D00F931F93CF93DF93EC017B010A811B815D
S11307E08881998108171907E9F40115110521F089
S11307F0C801880F991F02C081E090E09B838A831F
S1130800880F991F0E94B10E6C01AC80BD80A801B5
S1130810440F551FB5010E94F90FC5010E94490FED
S1130820DD82CC82EC81FD81888199819C012F5FDE
S11308303F4F39832883880F991FE80FF91FF182EE
S1130840E082DF91CF911F910F91FF90EF90DF90A5
S1130850CF90BF90AF9008950895FC017583648391
S113086046833087278308950E9405050E94090561
S11308700E940B0508950E9405050E9407050E9429
S11308800D050895FC01808591850895EF92FF92EE
S11308901F93CF93DF93EC017B018B850E949A0019
S11308A08C810E94AC00182F0E94A400112311F027
S11308B0F70110828A850E949A000E94CA00C82FFC
S11308C00E94CA0078948C2FDF91CF911F91FF90E2
S11308D0EF900895FC01868197810895FC0183E3DC
S11308E092E0918380838BE392E0938382831482EA
S11308F081E0858382E0868383E087835187408714
S1130900660F6E70862F8069838761696287089598
S1130910FC0171836083538342830895FC018081C9
S11309209181009711F00E9439090895FF920F9365
S11309301F93CF93DF93EC01F62E072F142F842FF0
S113094090E09B838A83880F991F0E9433099983BF
S113095088831123B9F0AF2DB02F1150212F30E02F
S11309602F5F3F4F220F331F80E090E04D915D9148
S1130970E881F981E80FF91F5183408302968217B9
S11309809307A1F7DF91CF911F910F91FF900895E5
S1130990EF92FF920F931F93CF937C01DC01129689
S11309A08D919C91139718161906F4F4C0E0EC2F5E
S11309B0F0E0EE0FFF1FD7018D919C91E80FF91F16
S11309C0008111810115110531F0C8010E948E04C6
S11309D0C8010E943609CF5F2C2F30E0F7018281D5
S11309E09381281739071CF3D7018D919C910097A7
S11309F011F00E943909CF911F910F91FF90EF9050
S1130A0008958AB18C618AB908955A9808955B9AB9
S1130A1008955B9808955C9A08955C980895FC0184
S1130A2082850895FC01838594850895FC0185855C
S1130A3096850895FC01858196810895FC0187813E
S1130A4090850895FB0180818E3718F08DE78083AF
S1130A500895883218F488E2FB01808308950F9387
S1130A601F93CF93DF931F92CDB7DEB78C016983B9
S1130A70BE016F5F7F4F0E9422056981F801628782
S1130A8082E090E00E94EF120F90DF91CF911F91CE
S1130A900F91089502970E942F050895FB0180810C
S1130AA091818D3DF5E09F0730F08CED95E0FB01E1
S1130AB09183808308954E9728F48EE190E0FB01A2
S1130AC09183808308950F931F93CF93DF9300D076
S1130AD0CDB7DEB78C0182E090E00E94E112F8010C
S1130AE08287B801665F7F4FC8010E94220580E0BB
S1130AF090E00E94E9129A838983BE016F5F7F4F61
S1130B00C8010E944E0589819A81F80194878387E0
S1130B100F900F90DF91CF911F910F9108958091C5
S1130B207603811107C087E793E00E94630581E0A3
S1130B308093760387E793E00895CF93DF9300D003
S1130B40CDB7DEB77A836983BE016F5F7F4F0E94A2
S1130B504E0569817A8180E090E00E94FD120F9039
S1130B600F90DF91CF91089506970E949D050895F7
S1130B70E7E7F3E081E492E0918380838FE492E0FD
S1130B809383828385E592E0958384838BE592E069
S1130B909783868381E692E09187808787E78287BF
S1130BA08AE090E09487838788EE93E09687858730
S1130BB00895FC01868197810895DC011C962D918E
S1130BC03C911D9720FD05C01A96ED91FC911B9751
S1130BD015C01896ED91FC911997C90195958795C3
S1130BE0E80FF91F0190F081E02D1A968D919C91E8
S1130BF01B97E80FF91F0190F081E02D359527959B
S1130C0018968D919C911997820F931F099522E351
S1130C10829FC00111240895CF93DF93EC01DB017F
S1130C2050968D919C91519780FD05C01E96ED9133
S1130C30FC911F9715C01896ED91FC9119979C0192
S1130C4035952795E20FF31F0190F081E02D1E9654
S1130C502D913C911F97E20FF31F0190F081E02D3D
S1130C6016964D915C9117979595879518966D9169
S1130C707C911997680F791FCE010995CE01DF91F8
S1130C80CF910895CF93DF93EC01645071090E94D2
S1130C900C06CE01DF91CF910895FC0184819581EA
S1130CA00895FC01908181E091FF80E00895FC01AA
S1130CB0908181E093FF80E00895FC01908181E0C0
S1130CC094FF80E00895CF92DF92EF92FF920F930A
S1130CD01F93FC0187E792E09183808381E892E08F
S1130CE09383828387E892E095838483D782C68244
S1130CF071876087E686F786008B118B1F910F91B1
S1130D00FF90EF90DF90CF900895AF92BF92CF9273
S1130D10DF92EF92FF920F931F93CF93DF93EC0137
S1130D20B62EA42E86E3888387E389831A8281E022
S1130D308B8382E08C8383E08D8384E08E8385E0E3
S1130D408F8386E0888787E0898788E08A870F2EEB
S1130D50F9E2EF2EF7E0FF2EF02D00E010E02AE19B
S1130D6037E040E050E00F2EF3E6CF2EF2E0DF2E26
S1130D70F02DBE01CE010D960E9463060F2EFFEAF0
S1130D80EF2EF7E0FF2EF02D00E010E02FE137E02A
S1130D9040E050E00F2EFBE6CF2EF2E0DF2EF02DE8
S1130DA0BE01CE014F960E9463068B2D8F70B82E24
S1130DB0BB0CBB0CBB86AA0CAA0CAA0CAA0CAA0CD2
S1130DC0AA0CAC86DF91CF911F910F91FF90EF9009
S1130DD0DF90CF90BF90AF900895EF92FF921F9352
S1130DE0CF93DF93EC017B01142F88810E949A003A
S1130DF0812F0E94AC00882331F0F70110820E94F9
S1130E00A40080E011C089810E949000882331F001
S1130E10F70110820E94A40080E006C00E94C8006E
S1130E20C82F0E94A4008C2FDF91CF911F91FF90B7
S1130E30EF900895FC0142810E94ED060895FC01A3
S1130E4043810E94ED060895FC0147810E94ED064E
S1130E500895AF92BF92CF92DF92EF92FF920F93D9
S1130E601F93CF93DF9300D0CDB7DEB78C01CB01B6
S1130E707A0121E02983BE016F5F7F4F0E9424071E
S1130E808A838981811118C086E090E00E9430092C
S1130E906C010E94DA0386E090E00E9430095C0154
S1130EA0B7010E942201B501C6010E94E203F801C4
S1130EB01082D282C18245C08A8180FD25C0CE01C4
S1130EC002960E9457068823C9F033C0CE010296C9
S1130ED00E945706882369F087E090E00E94300959
S1130EE05C0141E0B7010E94A308B501C6010E945C
S1130EF0E203F8011082D282C18223C081E0F801AA
S1130F008083128211821DC086E090E00E94300925
S1130F106C010E94DA0387E090E00E9430095C01D2
S1130F2040E0B7010E94A308B501C6010E94E20394
S1130F30CDCF86E090E00E9430096C010E94DA0374
S1130F40C5CFC8010F900F90DF91CF911F910F91E2
S1130F50FF90EF90DF90CF90BF90AF900895AF9245
S1130F60BF92CF92DF92EF92FF920F931F93CF9392
S1130F70DF9300D0CDB7DEB78C01CB017A0121E03D
S1130F802983BE016F5F7F4F0E9424078A83898172
S1130F90811118C086E090E00E9430096C010E9423
S1130FA0DA0386E090E00E9430095C01B7010E94F8
S1130FB02201B501C6010E94E203F8011082D28227
S1130FC0C18243C0CE0102960E945106811106C01F
S1130FD0CE0102960E945D06882391F186E090E09E
S1130FE00E9430096C010E94DA03CE0102960E942D
S1130FF05106882369F087E090E00E9430095C0183
S113100040E0B7010E94A308B501C6010E94E203B3
S1131010CE0102960E945D06882369F087E090E085
S11310200E9430095C0141E0B7010E94A308B501A8
S1131030C6010E94E203F8011082D282C18205C077
S113104081E0F801808312821182C8010F900F9011
S1131050DF91CF911F910F91FF90EF90DF90CF9090
S1131060BF90AF9008950D9608954F960895EF920E
S1131070FF920F931F93CF93DF93EC018D819E8199
S1131080892B09F057C08A81882319F0813051F1E6
S113109051C0FB80EC80EF2DFE2DDF010D90002070
S11310A0E9F78D010E1B1F0B085C1F4FC8010E943E
S11310B0B10E9E838D830097E9F1EF92FF9229E8A8
S11310C032E03F932F931F930F939F938F930E942C
S11310D020108DB79EB708960FB6F8949EBF0FBE2A
S11310E08DBF28C0FB80EC80EF2DFE2DDF010D901D
S11310F00020E9F78D010E1B1F0B0D5B1F4FC8016C
S11311000E94B10E9E838D830097A1F0EF92FF920F
S113111024EC32E03F932F931F930F939F938F936D
S11311200E9420108DB79EB708960FB6F8949EBF04
S11311300FBE8DBF8D819E81DF91CF911F910F9145
S1131140FF90EF900895FF920F931F93CF93DF9337
S1131150EC018B01F42E0E94D4038EE093E099837A
S11311608883FA821C830B831E821D82DF91CF91B8
S11311701F910F91FF900895DF92EF92FF920F93CA
S11311801F93CF93DF93DC0114962C9114972223A1
S113119009F441C07B018C011296ED91FC911397E7
S11311A080819181DC01ED91FC910190F081E02D31
S11311B00995D82EF7018081882379F1D8011496F6
S11311C08C9190E002975CF1C1E0D0E006C0F80198
S11311D0248130E0C217D30724F5D8011296ED918B
S11311E0FC9113979E01220F331FE20FF31F80819E
S11311F09181DC01ED91FC910190F081E02DB7012A
S11312000995D8160CF4D82E2196F7018081811106
S1131210DECF8D2D07C08BE005C08D2D03C08D2D35
S113122001C08D2DDF91CF911F910F91FF90EF9011
S1131230DF90089580918603811103C081E080933B
S1131240860387E893E00895FC01738362834483F3
S1131250089584E193E0909388038093870308952D
S11312600E94B10E08950E94B10E08950E94490F84
S113127008950E94490F08951F920F920FB60F927E
S113128011240F931F932F933F934F935F936F9367
S11312907F938F939F93AF93BF93CF93DF93EF93FA
S11312A0FF93F8948091920390919303892BC9F052
S11312B0C0E0D0E002E913E0D8011496ED91FC916E
S11312C01597CE01880F991FE80FF91F0190F0813F
S11312D0E02D09952196F80180819181C817D907DD
S11312E058F37894FF91EF91DF91CF91BF91AF9133
S11312F09F918F917F916F915F914F913F912F912A
S11313001F910F910F900FBE0F901F901895E2E957
S1131310F3E0118210821382128215821482ECE8A7
S1131320F3E01182108213821282158214820895CE
S113133080919003909191030E94490F80919603AC
S1131340909197030E94490F0895CF93DF93EC0186
S11313509881903208F457C0923231F0DE014FE3A5
S113136008C0923231F401C0DE011C92CE01019614
S11313705BC09C35E1F59981953719F09232C9F437
S113138020C0FE0132969E012A5F3F4F8191803337
S1131390E8F18A3338F08134E0F1873418F081566B
S11313A08630D0F5E217F30789F74C93FE013596A2
S11313B020C0E8E5F3E021E030E0828198130CC01E
S11313C002C020E030E0220F331FF901E85AFC4F3D
S11313D08181811108C023C02F5F3F4F329628308E
S11313E0310559F71FC0FE0131968C9302C09C93BE
S11313F0FE01EF01219611969181903208F0B1CF50
S113140080E090E011C080E090E00EC080E090E0C9
S11314100BC080E090E008C080E090E005C080E070
S113142090E002C080E090E0DF91CF910895FB014D
S11314309191992321F09813FBCF81E0089580E0E6
S113144008950F931F93CF93DF93EC018B01888151
S1131450882359F0B8010E94170A882349F021967D
S113146088818111F7CF90E005C080E090E002C050
S11314708C2F9D2FDF91CF911F910F910895FC0127
S11314808081882381F080538A3080F4319603C0B0
S113149020532A3068F48E2F9F2F21912111F8CFE9
S11314A080E090E0089580E090E008958E2F9F2FD3
S11314B00895CF938C3269F0C82F66E173E00E94DF
S11314C0170A811107C06CE173E08C2F0E94170A80
S11314D001C081E0CF910895FF920F931F93CF93A2
S11314E0DF938B01F22EE42FF52FEC0121912223BF
S11314F029F0019638812317C1F315C0892BB1F067
S113150088810E94590A8823A1F06CE173E08881E4
S11315100E94170A811102C018822196F801F682EE
S11315208C2F9D2F08C080E090E005C080E090E003
S113153002C080E090E0DF91CF911F910F91FF9066
S113154008950F931F93CF93DF938B01FC01C48104
S1131550D581209789F08A819B81009729F0B80171
S11315600E940210892B59F00990D881C02D209730
S113157091F780E090E005C080E090E002C08C2FFD
S11315809D2FDF91CF911F910F9108952F923F923C
S11315904F925F926F927F928F929F92AF92BF927F
S11315A0CF92DF92EF92FF920F931F93CF93DF932B
S11315B000D01F92CDB7DEB75B013A0166E173E05C
S11315C00E94210A009709F4BBC1DC012C912B373E
S11315D009F0B9C1F50113821282118210821582B9
S11315E0148216828C010F5F1F4F7501CC24C394A3
S11315F0D12C6894222422F86894442441F833249A
S113160033940F2EFDE75F2EF02D66E173E0C801E1
S11316100E94210A9B838A83009709F49AC1DC0102
S11316208C918C3221F48D010F5F1F4FEECFF701A7
S11316309681992311F02DE501C0252D821316C042
S1131640AA81BB811C92F70180819181009731F4BA
S1131650119609F47BC18A2D9B2D80C111821082C1
S11316600A811B810F5F1F4F7C01CFCFC614D704A3
S113167008F072C14601BFEF8B1A9B0A9601220F34
S1131680331F220F331F220F331FF901EC19FD09F9
S11316906F01CA0CDB1CC114D10409F45AC1913086
S11316A031F1823209F055C18A819B810196D601BC
S11316B013969C938E9312970E94A509009709F4A0
S11316C04BC166E173E00E94210A009709F444C10A
S11316D0FC0120812A3309F03FC166E173E00196E1
S11316E00E94210A9B838A83892B31F432C1D6015B
S11316F013961C921E921297F60111821082D70142
S11317001496ED91FC911597309739F41596DC9267
S1131710CE92149708C0FC0100C08081918100978B
S1131720D1F7D182C082EA81FB81D6011596FC9360
S1131730EE9314978081863609F446C028F48232E9
S113174039F18B35C9F054C08437A1F18B3721F0BE
S11317508E3609F04DC042C0D60116961C921697DB
S113176015961C921E921497ED92FC920A811B818D
S11317700F5F1F4F7601DFC0F60136821582148297
S1131780F182E0820A811B810F5F1F4F7601D3C073
S11317908A819B810196D60115969C938E9314970A
S11317A00E94A5098C01892B09F4D6C0F601468252
S11317B064012BCF23E04FE153E0B6018A819B8182
S11317C00E946C0A8C01B7C023E044E253E0B601E6
S11317D08A819B810E946C0A8C01ADC026E04AE29A
S11317E053E0B6018A819B810E946C0A8C01A3C0DC
S11317F08D3221F4EA81FB81319602C0EA81FB81BA
S1131800808190ED980F9A3008F0A6C0803339F0AB
S1131810CF010E943F0A8C01892B49F49DC08F019E
S11318200F5F1F4F818180538A3008F495C0D60121
S113183016962C92F80180818E3289F4818180532E
S11318408A3008F086C0C80102960E943F0A8C01C3
S1131850892B09F481C0E5E0D6011696EC93D801F2
S11318608C918F7D853411F511968C918D3229F0F0
S11318708B3219F0F801319602C0F801329690814A
S113188090539A3008F065C0CF0101960E943F0A38
S11318908C01009709F460C025E0F6012683DC0181
S11318A08C910E94590A81113AC056C0F801F08106
S11318B0F9838F2F0E94590A882309F44DC0D60159
S11318C016968C91843059F5EA81FB8140814D3222
S11318D019F083E190E002C084E190E098016A810C
S11318E07B81261B370B82179307B0F12817390722
S11318F0B1F4D8011C924D3229F0EFE2F3E08E2FBF
S11319009F2F04C023E433E0822F932F6A817B81CD
S11319100E940210992304F1E981D801EC936CE14F
S113192073E0D8018C910E94170A811104C0F80158
S113193010820F5F1F4F0115110559F0640165CE28
S113194080E090E00BC080E090E008C080E090E090
S113195005C080E090E002C080E090E00F900F901E
S11319600F90DF91CF911F910F91FF90EF90DF9037
S1131970CF90BF90AF909F908F907F906F905F902B
S11319804F903F902F9008953F924F925F926F92A5
S11319907F928F929F92AF92BF92CF92DF92EF92FB
S11319A0FF920F931F93CF93DF93CDB7DEB72A97A0
S11319B00FB6F894DEBF0FBECDBF5C01E12CF12C55
S11319C0312C2C0184EF481A8EEF580AF501E25F9E
S11319D0FE4FFA87E987F20180818E1509F44FC022
S11319E047016701CC0CDD1CCA0CDB1CF6018481A9
S11319F09581181619060CF042C004811581C8019E
S1131A0001960E9433093C0101151105C1F0FC0146
S1131A1080E090E0002496948794079496948794A9
S1131A200794982C802C8A0C9B1CD401A80FB91FF6
S1131A301C962C912193019608171907B1F7F3010D
S1131A40E00FF11F108284E090E00E9430094C0105
S1131A50A801B3010E948804E32DF0E0EE0FFF1FFC
S1131A6081E090E08C0F9D1FE80FF91F9182808226
S1131A703394F60115821482E985FA851082FFEF0A
S1131A80EF1AFF0A84E0E816F10409F0A4CF33202A
S1131A9061F084E090E00E9430098C01432DBE0186
S1131AA06F5F7F4F0E94960402C000E010E0C801FF
S1131AB02A960FB6F894DEBF0FBECDBFDF91CF914B
S1131AC01F910F91FF90EF90DF90CF90BF90AF9058
S1131AD09F908F907F906F905F904F903F9008956C
S1131AE002970E94C40C0895FC01DC01A45FBE4F60
S1131AF01C9211961C9211961C925098519A158220
S1131B00148217821682118610861386128610920A
S1131B10C50083E38093C400E0ECF0E080818D7F16
S1131B20808388E98093C100E2ECF0E080818660E4
S1131B3080837894089580919803811107C089E97E
S1131B4093E00E94740D81E08093980389E993E007
S1131B5008952091C6002D3019F02A3009F067C08D
S1131B60FC01E45FFE4FE081F0E03296EE0FFF1FD0
S1131B70E80FF91F20813181232B09F494C0FC0163
S1131B80E35FFE4F2081211141C031972081233032
S1131B9030F0FC0124813581232BA9F427C0FC01FA
S1131BA0E45FFE4F20812F5F2083E081F0E03296D6
S1131BB0EE0FFF1FE80FF91F11821082FC01E35F93
S1131BC0FE4F10820895FC0126813781232B51F0AA
S1131BD020853185232B41F022853385232B81F405
S1131BE023E005C021E003C022E001C020E0FC01A5
S1131BF0E45FFE4F2083319610823196108208955F
S1131C00FC01E25FFE4F21E020830895FC01E35FC5
S1131C10FE4F10823197208130E02E5F3F4F220F1C
S1131C20331FFC01E20FF31F118210820895FC019F
S1131C30E35FFE4F3081311136C03196308131116E
S1131C4032C021C0FC01E35FFE4F21E020830895F0
S1131C50DC01A45FBE4F3C91FC0160E4369FE00DC3
S1131C60F11D1124E40FF51F24872C9130E04F5F00
S1131C705F4F2E5F3F4F220F331FFC01E20FF31F14
S1131C80518340830895FC01E45FFE4FE081F0E05E
S1131C903296EE0FFF1FE80FF91F40815181403447
S1131CA05105B4F2CFCF08951F920F920FB60F9241
S1131CB011242F933F934F935F936F937F938F934D
S1131CC09F93AF93BF93EF93FF93F8940E949B0D60
S1131CD00E94A90D7894FF91EF91BF91AF919F91CC
S1131CE08F917F916F915F914F913F912F910F90C1
S1131CF00FBE0F901F901895E0ECF0E0808185FFF7
S1131D00FDCF6093C6000895EF92FF920F931F9347
S1131D10CF93DF934115510561F08B017C01EB01F9
S1131D20040F151F6991C7010E947C0EC017D107CB
S1131D30C9F7DF91CF911F910F91FF90EF90089514
S1131D40E9E9F3E08CE693E09183808384E793E010
S1131D50938382830895EE0FFF1F0590F491E02D85
S1131D6009940F931F93CF93DF938230910510F45E
S1131D7082E090E0E091AA04F091AB0420E030E02E
S1131D80A0E0B0E0309719F14081518102811381C4
S1131D9048175907C8F08417950769F4109731F06C
S1131DA012960C93129713961C9327C00093AA04BF
S1131DB01093AB0422C02115310519F042175307C3
S1131DC018F49A01BD01EF01DF01F801DBCF211501
S1131DD03105F9F0281B390B2430310580F48A8150
S1131DE09B816115710521F0FB019383828304C0FB
S1131DF09093AB048093AA04FE01329644C0FE0182
S1131E00E20FF31F81939193225031093983288380
S1131E103AC02091A8043091A904232B41F42091C5
S1131E200201309103013093A9042093A804209166
S1131E300001309101012115310541F42DB73EB760
S1131E404091040150910501241B350BE091A80435
S1131E50F091A904E217F307A0F42E1B3F0B2817F7
S1131E60390778F0AC014E5F5F4F2417350748F00F
S1131E704E0F5F1F5093A9044093A804819391933C
S1131E8002C0E0E0F0E0CF01DF91CF911F910F910C
S1131E900895CF93DF93009709F481C0FC01329732
S1131EA013821282A091AA04B091AB04109781F41A
S1131EB020813181820F931F2091A8043091A904BD
S1131EC02817390751F5F093A904E093A80467C0D3
S1131ED0ED0120E030E0CE17DF0740F44A815B815A
S1131EE09E0141155105F1F0EA01F5CFD383C28378
S1131EF040815181840F951FC817D90759F48881EF
S1131F009981840F951F0296918380838A819B8196
S1131F10938382832115310529F4F093AB04E09374
S1131F20AA043DC0E901FB83EA8349915991C40F96
S1131F30D51FEC17FD0761F480819181840F951FF3
S1131F400296E90199838883828193819B838A83A2
S1131F50E0E0F0E012968D919C911397009719F0B0
S1131F60FD01DC01F7CF8D919C9111979D012E5FAE
S1131F703F4F820F931F2091A8043091A904281782
S1131F80390769F4309729F41092AB041092AA042B
S1131F9002C013821282B093A904A093A804DF9113
S1131FA0CF9108951F93FC0199278827BC01E894D9
S1131FB011911032E9F3193010F01E30C8F31B32BE
S1131FC051F01D3249F4689406C00E940B10610F51
S1131FD0711D811D911D119110531A30B0F33EF4FF
S1131FE090958095709561957F4F8F4F9F4F1F916E
S1131FF00895FB01DC0102C001900D924150504054
S1132000D8F70895FB01DC018D910190801901102E
S1132010D9F3990B0895592F482F372F262F660F80
S1132020771F881F991F660F771F881F991F620FDC
S1132030731F841F951F660F771F881F991F0895AC
S1132040AEE0B0E0E6E2F0E10C9420130D891E89C5
S11320508F89988D26E02C831A83098397FF02C009
S113206080E090E801979E838D83AE01455E5F4FCB
S1132070698D7A8DCE0101960E9450104D815E814A
S113208057FD0AC02F813885421753070CF49A0173
S1132090F801E20FF31F10822E96E4E00C943C1337
S11320A0ABE0B0E0E6E5F0E10C9412136C017B01C7
S11320B08A01FC0117821682838181FFCCC1CE0183
S11320C001963C01F6019381F70193FD859193FFFD
S11320D081917F01882309F4BAC1853239F493FDD3
S11320E0859193FF81917F01853229F4B60190E0B7
S11320F00E944712E7CF912C212C312CFFE1F315DC
S1132100D8F08B3279F038F4803279F08332A1F44C
S1132110232D20611DC08D3261F0803369F4232D9D
S1132120216016C0832D8260382EE32DE4603E2E9C
S11321302AC0F32DF8601DC037FC2DC020ED280FF8
S11321402A3040F08E32B9F436FC81C1232D20644C
S1132150322E19C036FE06C08AE0989E200D112446
S1132160922E11C0EAE02E9E200D1124222EF32D72
S1132170F0623F2E08C08C3621F4832D8068382EFF
S113218002C0883641F4F70193FD859193FF819154
S11321907F018111B3CF982F9F7D9554933028F4FC
S11321A00C5F1F4F9FE399830DC0833631F0833753
S11321B071F0833509F059C021C0F8018081898309
S11321C00E5F1F4F88248394912C530113C0280160
S11321D0F2E04F0E511CF801A080B18036FE03C01E
S11321E0692D70E002C06FEF7FEFC5010E943C12C1
S11321F04C018201F32DFF773F2E16C0280122E007
S1132200420E511CF801A080B18036FE03C0692D36
S113221070E002C06FEF7FEFC5010E9431124C01E4
S1132220F32DF0683F2E820133FC1BC0822D90E019
S113223088169906B0F4B60180E290E00E94471235
S11322402A94F4CFF50137FC859137FE81915F0123
S1132250B60190E00E94471221102A9421E0821ACC
S113226091088114910471F7E8C0843611F089361D
S113227041F5F80137FE07C0608171818281938145
S11322800C5F1F4F08C060817181072E000C880B02
S1132290990B0E5F1F4FF32DFF763F2E97FF09C05A
S11322A090958095709561957F4F8F4F9F4FF06803
S11322B03F2E2AE030E0A3010E948312882E861864
S11322C045C0853731F4232D2F7EB22E2AE030E02D
S11322D025C0932D997FB92E8F36C1F018F4883517
S11322E079F0B5C0803719F0883721F0B0C0E92FF4
S11322F0E061BE2EB4FE0DC0FB2DF460BF2E09C0FC
S113230034FE0AC0292F2660B22E06C028E030E031
S113231005C020E130E002C020E132E0F801B7FE60
S113232007C060817181828193810C5F1F4F06C059
S11323306081718180E090E00E5F1F4FA3010E94D5
S11323408312882E8618FB2DFF773F2E36FE0DC094
S1132350232D2E7FA22E891458F434FE0BC032FC98
S113236009C0832D8E7EA82E05C0B82CA32C03C0D3
S1132370B82C01C0B92CA4FE0FC0FE01E80DF11D5C
S11323808081803321F49A2D997EA92E09C0A2FE62
S113239006C0B394B39404C08A2D867809F0B3942C
S11323A0A3FC11C0A0FE06C0B21488F4280C922C21
S11323B09B180EC0B21460F4B60180E290E00E9453
S11323C04712B394F7CFB21418F42B1802C0982C08
S11323D0212CA4FE10C0B60180E390E00E944712B5
S11323E0A2FE17C0A1FC03C088E790E002C088E504
S11323F090E0B6010CC08A2D867859F0A1FE02C087
S11324008BE201C080E2A7FC8DE2B60190E00E945D
S11324104712891438F4B60180E390E00E94471211
S11324209A94F7CF8A94F301E80DF11D8081B601E7
S113243090E00E9447128110F5CF222009F442CE89
S1132440B60180E290E00E9447122A94F6CFF6018A
S11324508681978102C08FEF9FEF2B96E2E10C9467
S11324602E13FC010590615070400110D8F780953F
S113247090958E0F9F1F0895FC016150704001904C
S11324800110D8F7809590958E0F9F1F08950F9394
S11324901F93CF93DF93FB01238121FD03C08FEFB3
S11324A09FEF2CC022FF16C04681578124813581BD
S11324B04217530744F4A081B1819D012F5F3F4F20
S11324C0318320838C93268137812F5F3F4F37835D
S11324D0268314C08B01EC01FB010084F185E02DFF
S11324E00995892BE1F6D80116968D919C91179741
S11324F0019617969C938E931697CE01DF91CF91F8
S11325001F910F910895FA01AA27283051F1203123
S113251081F1E8946F936E7F6E5F7F4F8F4F9F4F73
S1132520AF4FB1E03ED0B4E03CD0670F781F891FB5
S11325309A1FA11D680F791F8A1F911DA11D6A0F83
S1132540711D811D911DA11D20D009F468943F9136
S11325502AE0269F11243019305D3193DEF6CF0135
S11325600895462F4770405D4193B3E00FD0C9F7FB
S1132570F6CF462F4F70405D4A3318F0495D31FD68
S11325804052419302D0A9F7EACFB4E0A6959795BB
S1132590879577956795BA95C9F700976105710591
S11325A008959B01AC010A2E0694579547953795DB
S11325B02795BA95C9F7620F731F841F951FA01D35
S11325C00895F999FECF92BD81BDF89A992780B5F7
S11325D00895A8E1B0E042E050E00C940413262FE3
S11325E0F999FECF1FBA92BD81BD20BD0FB6F894F4
S11325F0FA9AF99A0FBE019608950E94EF12272FB6
S11326000C94F012DC01CB01FC01F999FECF06C059
S1132610F2BDE1BDF89A319600B40D92415050409C
S1132620B8F708952F923F924F925F926F927F92E4
S11326308F929F92AF92BF92CF92DF92EF92FF92CE
S11326400F931F93CF93DF93CDB7DEB7CA1BDB0B7A
S11326500FB6F894DEBF0FBECDBF09942A8839881F
S113266048885F846E847D848C849B84AA84B98426
S1132670C884DF80EE80FD800C811B81AA81B98132
S1132680CE0FD11D0FB6F894DEBF0FBECDBFED0146
S1132690089510E0C8E3D0E004C0FE010E94AB0E30
S10F26A02196C933D107C9F7F894FFCF85
S11326AC0000AC042000436F6D6D756E696361743A
S11326BC696F6E2077697468202573206661696C74
S11326CC65640000000000E6006C6D37355F370070
S11326DC6C6D37355F36007B2274797065223A2233
S11326EC706F776572222C22706F776572223A258F
S11326FC3034647D007B2274797065223A227465CF
S113270C6D70657261747572655F6D6178222C22CF
S113271C74656D70657261747572655F6D61782234
S113272C3A253033647D007B2274797065223A2219
S113273C6D61785F74656D70657261747572652214
S113274C2C2274656D7065726174757265223A25FC
S113275C3033647D00747970650073797374656DBE
S113276C5F636865636B0072756E007365745F7488
S113277C656D70657261747572655F6D6178006703
S113278C65745F74656D70657261747572655F6D87
S113279C6178007365745F706F7765720067657438
S11327AC5F706F776572007365745F696E666F5FD7
S11327BC72617465006765745F6D61785F74656DD3
S11327CC70657261747572650000000000D30300BB
S11327DC00000046044204FEFF00006A04000000EE
S11327EC000F052F05120516059D05FEFF00004A76
S11327FC05FCFF00001E05FAFF0000B405F8FF00FD
S113280C001A0574633635345F310074633635341D
S113281C5F320000000000DD05D9050C06FEFF0048
S113282C004D06FCFF000042062573206578706598
S113283C7269656E6365642061206661756C7420D1
S113284C617320696E6469636174656420627920C4
S113285C697473207374617475732072656769731A
S113286C74657200257320657870657269656E6392
S113287C6564206120636F756E746572206F766574
S113288C72666C6F7720617320696E64696361741E
S113289C6564206279206974732073746174757330
S11328AC2072656769737465720000000000370854
S11328BC00000000BC08200A0D090C007D5D0074AA
S11328CC7275650066616C7365006E756C6C0039AD
S11328DC32323333373230333638353437373538A0
S11328EC3037002D393232333337323033363835D2
S11328FC343737353830380022225C5C2F2F62088D
S113290C660C6E0A720D740900000000840EC40C6F
S109291CFEFF0000700D37
S9030000FC
