S0120000436F6E74726F6C6C65722E73726563EE
S11300000C943A000C9462000C9462000C9462000C
S11300100C9462000C9462000C9462000C946200D4
S11300200C9462000C9462000C9462000C946200C4
S11300300C9462000C9462000C948C090C94620081
S11300400C9462000C9462000C94A40E0C94620054
S11300500C9462000C9462000C9462000C94620094
S11300600C9462000C9462004B068B067909D70944
S1130070F00EE80911241FBECFEFD8E0DEBFCDBFDC
S113008013E0A0E0B1E0ECE4F7E202C005900D92C9
S1130090A039B107D9F724E0A0E9B3E001C01D926B
S11300A0AF3CB207E1F710E0C9E3D0E004C0219708
S11300B0FE010E94FB0EC433D107C9F70E9436012A
S11300C00C9499130C940000000000000000000040
S11300D0000000000000000000000000000000001C
S11300E0000000000000000000000000000000000C
S11300F000000000000000000000000000000000FC
S1130100000000000000000000000000000008954E
S11301103D983C984598449808953D9AD5DF1DD064
S113012008953C9AD1DF3D98CFDF3C98CDDF3D9ACE
S1130130CBDF13D00895082E3D9AC6DF802D0DD055
S1130140882311F002D0F8CF08953C9A3D9ABCDF81
S11301503C98BADF3D98B8DF08950894881F01C021
S1130160880F59F03C9A18F400003D9802C03D9A5B
S113017000C0AADF3C98A8DFF3CF3C9A3D98A4DFE7
S11301803C98349BFECF8827359981E09DDF9927E1
S11301900895882701C081E071E03C9A3D9894DF7E
S11301A03C9892DF349BFECF889435990894771F4E
S11301B0A0F73C9A813011F03D9801C03D9A84DF4C
S11301C03C98349BFECF80DF872F99270895EF92C8
S11301D0FF920F931F93CF93DF93EC018E819F8146
S11301E0892B41F5FC80ED80EF2DFE2DDF010D9074
S11301F00020E9F78D010E1B1F0B065E1F4FC8017F
S11302000E94010F9F838E830097A1F0EF92FF92CB
S113021026E031E03F932F931F930F939F938F9387
S11302200E9470108DB79EB708960FB6F8949EBFC3
S11302300FBE8DBF8E819F81DF91CF911F910F9152
S1130240FF90EF9008950F931F93CF93DF93EC01EA
S11302508B010E94120487E291E0998388831D83B5
S11302600C83DF91CF911F910F910895CF93DF936A
S1130270CDB7DEB7E9970FB6F894DEBF0FBECDBF9A
S11302800FB6F894A895809160008861809360000F
S1130290109260000FBE0E9488000E9494050E9484
S11302A0EB0D2C010E9422068C0141E061E0CE019D
S11302B001960E942807CE0101960E946D089BAB0F
S11302C08AABCE0101960E946F089DAB8CAB0E9455
S11302D0AE043C019801285F3F4F42E0BE016E5CD2
S11302E07F4F0E94AF048CE090E00E9480094C0193
S11302F049E251E067E00E9401058CE090E00E9431
S113030080095C0140E351E066E00E9401059FAA78
S11303108EAAB9AEA8AE0E946A095C0142E0BE0191
S11303206A5C7F4F0E9474090E9479064C01930114
S1130330A801B5010E9483060E94BD0480E190E0FB
S11303400E9480093C01680184E0C80ED11C780138
S113035086E0E80EF11C98012E5F3F4FB2016E5FFC
S11303607F4FA201C3010E94B901C3010E94DE02B2
S1130370FCCF8F929F92AF92BF92CF92DF92EF9277
S1130380FF920F931F93CF93DF93CDB7DEB7FC019A
S11303907183608353834283358324831783068365
S11303A0F186E086D386C286B586A486978686863D
S11303B0DF91CF911F910F91FF90EF90DF90CF903D
S11303C0BF90AF909F908F900895EF92FF920F93FC
S11303D01F93CF93DF93CDB7DEB76E970FB6F89424
S11303E0DEBF0FBECDBF7C01DC011A968D919C91BE
S11303F01B97DC01ED91FC910190F081E02D0995B2
S11304009F938F9387E391E09F938F931F928EE145
S11304108F938E010F5F1F4F1F930F930E947010D5
S1130420F70182819381DC01ED91FC910190F081CF
S1130430E02D4DE150E0B80109950FB6F894DEBF08
S11304400FBECDBF6E960FB6F894DEBF0FBECDBF04
S1130450DF91CF911F910F91FF90EF900895EF924C
S1130460FF920F931F93CF93DF93CDB7DEB7E1973E
S11304700FB6F894DEBF0FBECDBF7C01DC0116962B
S11304808D919C911797DC01ED91FC910190F08185
S1130490E02D09951F928F9385E591E09F938F93AB
S11304A01F9281E38F938E010F5F1F4F1F930F9352
S11304B00E947010F70182819381DC01ED91FC911F
S11304C00190F081E02D40E350E0B80109950FB6AA
S11304D0F894DEBF0FBECDBFE1960FB6F894DEBF31
S11304E00FBECDBFDF91CF911F910F91FF90EF9081
S11304F00895EF92FF920F931F93CF93DF93CDB79D
S1130500DEB7E4970FB6F894DEBF0FBECDBF8C0103
S113051081E08983CE0102960E942404D8011C96AE
S11305208D919C911D97DC01ED91FC910190F081DE
S1130530E02DAE014E5F5F4FBE016F5F7F4F0995A7
S1130540F82E8981882349F10E94B6048F2D0F2C3F
S1130550000C990B9F93FF9287E891E09F938F93F0
S11305601F928DE28F937E01B8E0EB0EF11CFF9297
S1130570EF920E947010F80182819381DC01ED9169
S1130580FC910190F081E02D4CE250E0B701099517
S11305900FB6F894DEBF0FBECDBFCE0102960E9407
S11305A07604E4960FB6F894DEBF0FBECDBFDF919C
S11305B0CF911F910F91FF90EF9008957F928F92AA
S11305C09F92AF92BF92CF92DF92EF92FF920F93DE
S11305D01F93CF93DF93CDB7DEB7C75CD1400FB67F
S11305E0F894DEBF0FBECDBF6C01DC018D919C91F0
S11305F0DC01ED91FC910190F081E02D09957C01E5
S1130600009709F4F9C0FC01828193811816190638
S11306100CF0ECC00E94BD04D70112968D919C9100
S11306201397181619060CF0E1C000E010E07724C7
S11306307394D701ED91FC91C801880F991FE80FBD
S1130640F91F0190F081E02D42815381BE016F5F5B
S11306507F4F808191810E94160B5C0165EB71E0F4
S11306600E94F10A009709F4B6C0FC0126812230E9
S113067009F0B1C0848095800E94EB0DF4010190D3
S11306800020E9F73197AF0148195909DC01ED91D0
S1130690FC910190F081E02DB40109956AEB71E0C1
S11306A0C4010E945210892B01F5CE018F539E4F35
S11306B00E942404C953DE4F7882C75CD140F601FE
S11306C086859785DC01ED91FC910190F081E02D08
S11306D0AE014F535E4FBE0169537E4F0995CE0163
S11306E08F539E4F0E94760476C067EC71E0C4017C
S11306F00E945210892B09F46EC06BEC71E0C401A6
S11307000E945210892BF1F463EE71E0C5010E943E
S1130710F10A009709F45FC0FC012681243009F036
S11307205AC0848195810E942210D60114968D911D
S11307309C911597DC01ED91FC910190F081E02DE5
S1130740099549C06FED71E0C4010E945210892BD4
S113075021F4C6010E942F023EC063EF71E0C40180
S11307600E945210892BD9F461E072E0C5010E9405
S1130770F10A009781F1FC012681243061F584811E
S113078095810E942210F601A085B185ED91FC911E
S113079011970190F081E02DCD0109951CC06DEFFA
S11307A071E0C4010E945210892B21F4C6010E94F9
S11307B0E50111C067E072E0C4010E945210892B68
S11307C051F065E172E0C4010E945210892B19F4C2
S11307D0C6010E9479020F5F1F4FD70112968D91B7
S11307E09C911397081719070CF423CFC7010E9493
S11307F05B05C7010E948609C953DE4F0FB6F89402
S1130800DEBF0FBECDBFDF91CF911F910F91FF903F
S1130810EF90DF90CF90BF90AF909F908F907F909C
S1130820089508952DE232E0FC0131832083089578
S11308302DE232E0FC013183208382819381009791
S113084011F00E9486090895FC011182108213821E
S11308501282158214820895AF92BF92CF92DF92D2
S1130860EF92FF920F931F93CF93DF93EC017B01E1
S11308700A811B818881998108171907E9F40115F8
S1130880110521F0C801880F991F02C081E090E092
S11308909B838A83880F991F0E94010F6C01AC808F
S11308A0BD80A801440F551FB5010E944910C50120
S11308B00E94990FDD82CC82EC81FD81888199812F
S11308C09C012F5F3F4F39832883880F991FE80FBE
S11308D0F91FF182E082DF91CF911F910F91FF9078
S11308E0EF90DF90CF90BF90AF900895CF92DF92BA
S11308F0EF92FF920F931F93CF93DF938C01DC0150
S1130900ED90FC90E114F104D9F0C0E0D0E0D801FE
S11309101496ED91FC911597CE01880F991FE80F5D
S1130920F91FC080D180C114D10431F0C6010E94E6
S11309301804C6010E9486092196EC16FD0639F7B3
S1130940F801848195810E94990FDF91CF911F91C5
S11309500F91FF90EF90DF90CF9008950895FC01E0
S11309607583648346833087278308950E9498059E
S11309700E949C050E949E0508950E9498050E946D
S11309809A050E94A0050895FC018085918508952B
S1130990EF92FF920F931F93CF93DF93EC017A01B1
S11309A08B850E949B008C810E94AD00182F0E94B1
S11309B0A500112379F088E090E00E9480098C0161
S11309C0688579850E942301B801C7010E942C041F
S11309D080E00CC08A850E949B000E94CB00C82F37
S11309E00E94CB0078940E94A5008C2FDF91CF91B8
S11309F01F910F91FF90EF900895FC0186819781DC
S1130A000895FC0183E392E0918380838BE392E079
S1130A1093838283148281E0858382E0868383E0EA
S1130A20878351874087660F6E70862F806983871E
S1130A30616962870895FC017183608353834283F3
S1130A400895FC0180819181009711F00E94890929
S1130A500895FF920F931F93CF93DF93EC01F62E2B
S1130A60072F142F842F90E09B838A83880F991F6C
S1130A700E948309998388831123B9F0AF2DB02F85
S1130A801150212F30E02F5F3F4F220F331F80E0A2
S1130A9090E04D915D91E881F981E80FF91F518350
S1130AA04083029682179307A1F7DF91CF911F919C
S1130AB00F91FF900895EF92FF920F931F93CF939E
S1130AC07C01DC0112968D919C91139718161906DE
S1130AD0F4F4C0E0EC2FF0E0EE0FFF1FD7018D918E
S1130AE09C91E80FF91F008111810115110531F066
S1130AF0C8010E942105C8010E948609CF5F2C2FDE
S1130B0030E0F70182819381281739071CF3D7015C
S1130B108D919C91009711F00E948909CF911F91AA
S1130B200F91FF90EF9008958AB18C618AB908956E
S1130B305A9808955B9A08955B9808955C9A08956D
S1130B405C980895FC0182850895FC018385948551
S1130B500895FC01858596850895FC01858196811B
S1130B600895FC01878190850895FB0180818E376B
S1130B7018F08DE780830895883218F488E2FB0129
S1130B80808308950F931F93CF93DF931F92CDB764
S1130B90DEB78C016983BE016F5F7F4F0E94B5058C
S1130BA06981F801628782E090E00E943F130F9010
S1130BB0DF91CF911F910F91089502970E94C20572
S1130BC00895FB01808191818D3DF5E09F0730F010
S1130BD08CED95E0FB019183808308954E9728F472
S1130BE08EE190E0FB019183808308950F931F931E
S1130BF0CF93DF9300D0CDB7DEB78C0182E090E0D5
S1130C000E943113F8018287B801665F7F4FC801E3
S1130C100E94B50580E090E00E9439139A8389838D
S1130C20BE016F5F7F4FC8010E94E10589819A81EF
S1130C30F801948783870F900F90DF91CF911F91D4
S1130C400F91089580919003811107C081E993E089
S1130C500E94F60581E08093900381E993E0089572
S1130C60CF93DF9300D0CDB7DEB77A836983BE011B
S1130C706F5F7F4F0E94E10569817A8180E090E097
S1130C800E944D130F900F90DF91CF910895069716
S1130C900E9430060895E1E9F3E081E492E0918353
S1130CA080838FE492E09383828385E592E0958349
S1130CB084838BE592E09783868381E692E0918733
S1130CC0808787E782878AE090E09487838788EE2D
S1130CD093E0968785870895DC0112968D919C9107
S1130CE01397DC01ED91FC910190F081E02D0995C1
S1130CF008958091A003811103C081E08093A00333
S1130D0081EA93E00895FC017383628355834483ED
S1130D1037832683089587E692E09093A203809315
S1130D20A1030895FC01868197810895DC011C9636
S1130D302D913C911D9720FD05C01A96ED91FC91D3
S1130D401B9715C01896ED91FC911997C9019595BB
S1130D508795E80FF91F0190F081E02D1A968D9187
S1130D609C911B97E80FF91F0190F081E02D3595B8
S1130D70279518968D919C911997820F931F099529
S1130D8022E3829FC00111240895CF93DF93EC01E5
S1130D90A889B989A0FD03C0EE85FF8511C0E88547
S1130DA0F985CD0195958795E80FF91F0190F0819C
S1130DB0E02D8E859F85E80FF91F0190F081E02DCD
S1130DC02E813F81B595A795888599858A0F9B1FAC
S1130DD00995DF91CF91089504970E94C50608955F
S1130DE0FC01848195810895FC01908181E091FF4B
S1130DF080E00895FC01908181E093FF80E00895F4
S1130E00FC01908181E094FF80E00895CF92DF920D
S1130E10EF92FF920F931F93FC018DE792E0918371
S1130E20808387E892E0938382838DE892E09583C0
S1130E308483D782C68271876087E686F786008BB3
S1130E40118B1F910F91FF90EF90DF90CF90089539
S1130E50AF92BF92CF92DF92EF92FF920F931F93C4
S1130E60CF93DF93EC01B62EA42E86E3888387E329
S1130E7089831A8281E08B8382E08C8383E08D8373
S1130E8084E08E8385E08F8386E0888787E0898786
S1130E9088E08A870F2EFCECEF2EF7E0FF2EF02D72
S1130EA000E010E02DEB37E040E050E00F2EF9E6D3
S1130EB0CF2EF2E0DF2EF02DBE01CE010D960E9462
S1130EC006070F2EFBE1EF2EF8E0FF2EF02D00E0D9
S1130ED010E022EC37E040E050E00F2EF1E7CF2E97
S1130EE0F2E0DF2EF02DBE01CE014F960E940607E0
S1130EF08B2D8F70B82EBB0CBB0CBB86AA0CAA0C16
S1130F00AA0CAA0CAA0CAA0CAC86DF91CF911F9153
S1130F100F91FF90EF90DF90CF90BF90AF90089526
S1130F20EF92FF921F93CF93DF93EC017B01142F79
S1130F3088810E949B00812F0E94AD00882331F09C
S1130F40F70110820E94A50080E011C089810E94EF
S1130F509100882331F0F70110820E94A50080E0FF
S1130F6006C00E94C900C82F0E94A5008C2FDF91E3
S1130F70CF911F91FF90EF900895FC0142810E9450
S1130F8090070895FC0143810E9490070895FC0195
S1130F9047810E9490070895CF92DF92EF92FF92CB
S1130FA00F931F93CF93DF931F92CDB7DEB78B01BF
S1130FB07A0169010E94C7078983F8018081811140
S1130FC00DC088E090E00E9480098C01B6010E9467
S1130FD02301B801C7010E942C0423C0898180FF2A
S1130FE00DC089E090E00E9480098C0140E0B601C8
S1130FF00E94DD08B801C7010E942C04CE010196AD
S11310000E94FA06882369F089E090E00E94800932
S11310108C0141E0B6010E94DD08B801C7010E94BD
S11310202C040F90DF91CF911F910F91FF90EF90BF
S1131030DF90CF900895CF92DF92EF92FF920F93BB
S11310401F93CF93DF931F92CDB7DEB78B017A0145
S113105069010E94C7078983F801808181110DC04D
S113106088E090E00E9480098C01B6010E9423016F
S1131070B801C7010E942C0426C0CE0101960E942B
S1131080F406882369F089E090E00E9480098C01CD
S113109040E0B6010E94DD08B801C7010E942C049B
S11310A0CE0101960E940007882369F089E090E050
S11310B00E9480098C0141E0B6010E94DD08B8015C
S11310C0C7010E942C040F90DF91CF911F910F91C3
S11310D0FF90EF90DF90CF9008950D9608954F966E
S11310E00895EF92FF920F931F93CF93DF93EC0138
S11310F08F819885892B09F057C08C81882319F03A
S1131100813051F151C0FD80EE80EF2DFE2DDF01C5
S11311100D900020E9F78D010E1B1F0B085C1F4F7B
S1131120C8010E94010F98878F830097E9F1EF921D
S1131130FF922FE832E03F932F931F930F939F93D7
S11311408F930E9470108DB79EB708960FB6F894CF
S11311509EBF0FBE8DBF28C0FD80EE80EF2DFE2DFB
S1131160DF010D900020E9F78D010E1B1F0B0D5BB5
S11311701F4FC8010E94010F98878F830097A1F029
S1131180EF92FF922AEC32E03F932F931F930F9339
S11311909F938F930E9470108DB79EB708960FB6D9
S11311A0F8949EBF0FBE8DBF8F819885DF91CF913C
S11311B01F910F91FF90EF900895FF920F931F934B
S11311C0CF93DF93EC018B01F42E0E94120484E18F
S11311D093E099838883FC821E830D8318861F8283
S11311E0DF91CF911F910F91FF900895BF92CF92FD
S11311F0DF92EF92FF920F931F93CF93DF938C01B3
S11312007B016A01DC0114968C911497882309F4FC
S113121041C01296ED91FC91139780819181DC017C
S1131220ED91FC910190F081E02D0995B82EF70124
S11312308081882309F43FC0D80114968C9190E0F2
S11312400297DCF1C1E0D0E006C0F801248130E06F
S1131250C217D307A4F5D8011296ED91FC91139708
S11312609E01220F331FE20FF31F80819181DC0165
S1131270ED91FC910190F081E02DA601B701099553
S1131280B8160CF4B82E2196F70180818111DDCFB8
S11312908B2D16C088E090E00E948009EC0166E185
S11312A073E00E942301BE01C6010E942C04D701F1
S11312B01C9280E005C08B2D03C08B2D01C08B2DAB
S11312C0DF91CF911F910F91FF90EF90DF90CF901E
S11312D0BF9008958091A903811103C081E0809398
S11312E0A9038AEA93E00895FC017383628344832B
S11312F008958EE293E09093AB038093AA0308953C
S11313000E94010F08950E94010F08950E94990FF1
S113131008950E94990F08951F920F920FB60F928D
S113132011240F931F932F933F934F935F936F93C6
S11313307F938F939F93AF93BF93CF93DF93EF9359
S1131340FF93F8948091B5039091B603892BC9F06B
S1131350C0E0D0E005EB13E0D8011496ED91FC91C8
S11313601597CE01880F991FE80FF91F0190F0819E
S1131370E02D09952196F80180819181C817D9073C
S113138058F37894FF91EF91DF91CF91BF91AF9192
S11313909F918F917F916F915F914F913F912F9189
S11313A01F910F910F900FBE0F901F901895E5EBB2
S11313B0F3E0118210821382128215821482EFEA02
S11313C0F3E011821082138212821582148208952E
S11313D08091B3039091B4030E94990F8091B90353
S11313E09091BA030E94990F0895CF93DF93EC0173
S11313F09881903208F457C0923231F0DE014FE305
S113140008C0923231F401C0DE011C92CE01019673
S11314105BC09C35E1F59981953719F09232C9F496
S113142020C0FE0132969E012A5F3F4F8191803396
S1131430E8F18A3338F08134E0F1873418F08156CA
S11314408630D0F5E217F30789F74C93FE01359601
S113145020C0E2E7F3E021E030E0828198130CC081
S113146002C020E030E0220F331FF901EE58FC4F98
S11314708181811108C023C02F5F3F4F32962830ED
S1131480310559F71FC0FE0131968C9302C09C931D
S1131490FE01EF01219611969181903208F0B1CFAF
S11314A080E090E011C080E090E00EC080E090E029
S11314B00BC080E090E008C080E090E005C080E0D0
S11314C090E002C080E090E0DF91CF910895FB01AD
S11314D09191992321F09813FBCF81E0089580E046
S11314E008950F931F93CF93DF93EC018B018881B1
S11314F0882359F0B8010E94670A882349F021968D
S113150088818111F7CF90E005C080E090E002C0AF
S11315108C2F9D2FDF91CF911F910F910895FC0186
S11315208081882381F080538A3080F4319603C00F
S113153020532A3068F48E2F9F2F21912111F8CF48
S113154080E090E0089580E090E008958E2F9F2F32
S11315500895CF938C3269F0C82F60E373E00E9442
S1131560670A811107C066E373E08C2F0E94670A43
S113157001C081E0CF910895FF920F931F93CF9301
S1131580DF938B01F22EE42FF52FEC01219122231E
S113159029F0019638812317C1F315C0892BB1F0C6
S11315A088810E94A90A8823A1F066E373E08881F8
S11315B00E94670A811102C018822196F801F682FE
S11315C08C2F9D2F08C080E090E005C080E090E063
S11315D002C080E090E0DF91CF911F910F91FF90C6
S11315E008950F931F93CF93DF938B01FC01C48164
S11315F0D581209789F08A819B81009729F0B801D1
S11316000E945210892B59F00990D881C02D20973F
S113161091F780E090E005C080E090E002C08C2F5C
S11316209D2FDF91CF911F910F9108952F923F929B
S11316304F925F926F927F928F929F92AF92BF92DE
S1131640CF92DF92EF92FF920F931F93CF93DF938A
S113165000D01F92CDB7DEB75B013A0160E373E0BF
S11316600E94710A009709F4BBC1DC012C912B374D
S113167009F0B9C1F5011382128211821082158218
S1131680148216828C010F5F1F4F7501CC24C39402
S1131690D12C6894222422F86894442441F83324F9
S11316A033940F2EFDE75F2EF02D60E373E0C80145
S11316B00E94710A9B838A83009709F49AC1DC0112
S11316C08C918C3221F48D010F5F1F4FEECFF70107
S11316D09681992311F02DE501C0252D821316C0A2
S11316E0AA81BB811C92F70180819181009731F41A
S11316F0119609F47BC18A2D9B2D80C11182108221
S11317000A811B810F5F1F4F7C01CFCFC614D70402
S113171008F072C14601BFEF8B1A9B0A9601220F93
S1131720331F220F331F220F331FF901EC19FD0958
S11317306F01CA0CDB1CC114D10409F45AC19130E5
S113174031F1823209F055C18A819B810196D6011B
S113175013969C938E9312970E94F509009709F4AF
S11317604BC160E373E00E94710A009709F444C11D
S1131770FC0120812A3309F03FC160E373E0019644
S11317800E94710A9B838A83892B31F432C1D6016A
S113179013961C921E921297F60111821082D701A1
S11317A01496ED91FC911597309739F41596DC92C7
S11317B0CE92149708C0FC0100C0808191810097EB
S11317C0D1F7D182C082EA81FB81D6011596FC93C0
S11317D0EE9314978081863609F446C028F4823249
S11317E039F18B35C9F054C08437A1F18B3721F01E
S11317F08E3609F04DC042C0D60116961C9216973B
S113180015961C921E921497ED92FC920A811B81EC
S11318100F5F1F4F7601DFC0F601368215821482F6
S1131820F182E0820A811B810F5F1F4F7601D3C0D2
S11318308A819B810196D60115969C938E93149769
S11318400E94F5098C01892B09F4D6C0F601468261
S113185064012BCF23E049E353E0B6018A819B81E5
S11318600E94BC0A8C01B7C023E04EE353E0B601EA
S11318708A819B810E94BC0A8C01ADC026E044E4AD
S113188053E0B6018A819B810E94BC0A8C01A3C0EB
S11318908D3221F4EA81FB81319602C0EA81FB8119
S11318A0808190ED980F9A3008F0A6C0803339F00B
S11318B0CF010E948F0A8C01892B49F49DC08F01AE
S11318C00F5F1F4F818180538A3008F495C0D60181
S11318D016962C92F80180818E3289F4818180538E
S11318E08A3008F086C0C80102960E948F0A8C01D3
S11318F0892B09F481C0E5E0D6011696EC93D80152
S11319008C918F7D853411F511968C918D3229F04F
S11319108B3219F0F801319602C0F80132969081A9
S113192090539A3008F065C0CF0101960E948F0A47
S11319308C01009709F460C025E0F6012683DC01E0
S11319408C910E94A90A81113AC056C0F801F08115
S1131950F9838F2F0E94A90A882309F44DC0D60168
S113196016968C91843059F5EA81FB8140814D3281
S113197019F083E190E002C084E190E098016A816B
S11319807B81261B370B82179307B0F12817390781
S1131990B1F4D8011C924D3229F0E9E4F3E08E2F22
S11319A09F2F04C02DE533E0822F932F6A817B8122
S11319B00E945210992304F1E981D801EC9366E363
S11319C073E0D8018C910E94670A811104C0F80168
S11319D010820F5F1F4F0115110559F0640165CE88
S11319E080E090E00BC080E090E008C080E090E0F0
S11319F005C080E090E002C080E090E00F900F907E
S1131A000F90DF91CF911F910F91FF90EF90DF9096
S1131A10CF90BF90AF909F908F907F906F905F908A
S1131A204F903F902F9008953F924F925F926F9204
S1131A307F928F929F92AF92BF92CF92DF92EF925A
S1131A40FF920F931F93CF93DF93CDB7DEB72A97FF
S1131A500FB6F894DEBF0FBECDBF5C01E12CF12CB4
S1131A60312C2C0184EF481A8EEF580AF501E25FFD
S1131A70FE4FFA87E987F20180818E1509F44FC081
S1131A8047016701CC0CDD1CCA0CDB1CF601848108
S1131A909581181619060CF042C004811581C801FD
S1131AA001960E9483093C0101151105C1F0FC0156
S1131AB080E090E000249694879407949694879409
S1131AC00794982C802C8A0C9B1CD401A80FB91F56
S1131AD01C962C912193019608171907B1F7F3016D
S1131AE0E00FF11F108284E090E00E9480094C0115
S1131AF0A801B3010E941B05E32DF0E0EE0FFF1FC8
S1131B0081E090E08C0F9D1FE80FF91F9182808285
S1131B103394F60115821482E985FA851082FFEF69
S1131B20EF1AFF0A84E0E816F10409F0A4CF332089
S1131B3061F084E090E00E9480098C01432DBE0195
S1131B406F5F7F4F0E94290502C000E010E0C801CA
S1131B502A960FB6F894DEBF0FBECDBFDF91CF91AA
S1131B601F910F91FF90EF90DF90CF90BF90AF90B7
S1131B709F908F907F906F905F904F903F900895CB
S1131B8002970E94140D0895FC01DC01A45FBE4F6E
S1131B901C9211961C9211961C925098519A15827F
S1131BA0148217821682118610861386128610926A
S1131BB0C50083E38093C400E0ECF0E080818D7F76
S1131BC0808388E98093C100E2ECF0E08081866044
S1131BD08083789408958091BB03811107C08CEBB6
S1131BE093E00E94C40D81E08093BB038CEB93E0EF
S1131BF008952091C6002D3019F02A3009F067C0ED
S1131C00FC01E45FFE4FE081F0E03296EE0FFF1F2F
S1131C10E80FF91F20813181232B09F494C0FC01C2
S1131C20E35FFE4F2081211141C031972081233091
S1131C3030F0FC0124813581232BA9F427C0FC0159
S1131C40E45FFE4F20812F5F2083E081F0E0329635
S1131C50EE0FFF1FE80FF91F11821082FC01E35FF2
S1131C60FE4F10820895FC0126813781232B51F009
S1131C7020853185232B41F022853385232B81F464
S1131C8023E005C021E003C022E001C020E0FC0104
S1131C90E45FFE4F208331961082319610820895BE
S1131CA0FC01E25FFE4F21E020830895FC01E35F25
S1131CB0FE4F10823197208130E02E5F3F4F220F7C
S1131CC0331FFC01E20FF31F118210820895FC01FF
S1131CD0E35FFE4F3081311136C0319630813111CE
S1131CE032C021C0FC01E35FFE4F21E02083089550
S1131CF0DC01A45FBE4F3C91FC0160E4369FE00D23
S1131D00F11D1124E40FF51F24872C9130E04F5F5F
S1131D105F4F2E5F3F4F220F331FFC01E20FF31F73
S1131D20518340830895FC01E45FFE4FE081F0E0BD
S1131D303296EE0FFF1FE80FF91F408151814034A6
S1131D405105B4F2CFCF08951F920F920FB60F92A0
S1131D5011242F933F934F935F936F937F938F93AC
S1131D609F93AF93BF93EF93FF93F8940E94EB0D6F
S1131D700E94F90D7894FF91EF91BF91AF919F91DB
S1131D808F917F916F915F914F913F912F910F9020
S1131D900FBE0F901F901895E0ECF0E0808185FF56
S1131DA0FDCF6093C6000895EF92FF920F931F93A7
S1131DB0CF93DF934115510561F08B017C01EB0159
S1131DC0040F151F6991C7010E94CC0EC017D107DB
S1131DD0C9F7DF91CF911F910F91FF90EF90089574
S1131DE0ECEBF3E086E893E0918380838EE893E064
S1131DF0938382830895EE0FFF1F0590F491E02DE5
S1131E0009940F931F93CF93DF938230910510F4BD
S1131E1082E090E0E091CD04F091CE0420E030E047
S1131E20A0E0B0E0309719F1408151810281138123
S1131E3048175907C8F08417950769F4109731F0CB
S1131E4012960C93129713961C9327C00093CD04FB
S1131E501093CE0422C02115310519F042175307FF
S1131E6018F49A01BD01EF01DF01F801DBCF211560
S1131E703105F9F0281B390B2430310580F48A81AF
S1131E809B816115710521F0FB019383828304C05A
S1131E909093CE048093CD04FE01329644C0FE019B
S1131EA0E20FF31F819391932250310939832883E0
S1131EB03AC02091CB043091CC04232B41F42091DF
S1131EC00201309103013093CC042093CB04209180
S1131ED00001309101012115310541F42DB73EB7C0
S1131EE04091040150910501241B350BE091CB0472
S1131EF0F091CC04E217F307A0F42E1B3F0B281734
S1131F00390778F0AC014E5F5F4F2417350748F06E
S1131F104E0F5F1F5093CC044093CB048193919355
S1131F2002C0E0E0F0E0CF01DF91CF911F910F916B
S1131F300895CF93DF93009709F481C0FC01329791
S1131F4013821282A091CD04B091CE04109781F433
S1131F5020813181820F931F2091CB043091CC04D6
S1131F602817390751F5F093CC04E093CB0467C0EC
S1131F70ED0120E030E0CE17DF0740F44A815B81B9
S1131F809E0141155105F1F0EA01F5CFD383C283D7
S1131F9040815181840F951FC817D90759F488814E
S1131FA09981840F951F0296918380838A819B81F6
S1131FB0938382832115310529F4F093CE04E093B1
S1131FC0CD043DC0E901FB83EA8349915991C40FD3
S1131FD0D51FEC17FD0761F480819181840F951F53
S1131FE00296E90199838883828193819B838A8302
S1131FF0E0E0F0E012968D919C911397009719F010
S1132000FD01DC01F7CF8D919C9111979D012E5F0D
S11320103F4F820F931F2091CB043091CC0428179B
S1132020390769F4309729F41092CE041092CD0444
S113203002C013821282B093CC04A093CB04DF912C
S1132040CF9108951F93FC0199278827BC01E89438
S113205011911032E9F3193010F01E30C8F31B321D
S113206051F01D3249F4689406C00E945B10610F60
S1132070711D811D911D119110531A30B0F33EF45E
S113208090958095709561957F4F8F4F9F4F1F91CD
S11320900895FB01DC0102C001900D9241505040B3
S11320A0D8F70895FB01DC018D910190801901108E
S11320B0D9F3990B0895592F482F372F262F660FE0
S11320C0771F881F991F660F771F881F991F620F3C
S11320D0731F841F951F660F771F881F991F08950C
S11320E0AEE0B0E0E6E7F0E10C9470130D891E89D0
S11320F08F89988D26E02C831A83098397FF02C069
S113210080E090E801979E838D83AE01455E5F4F2A
S1132110698D7A8DCE0101960E94A0104D815E8159
S113212057FD0AC02F813885421753070CF49A01D2
S1132130F801E20FF31F10822E96E4E00C948C1346
S1132140ABE0B0E0E6EAF0E10C9462136C017B01D1
S11321508A01FC0117821682838181FFCCC1CE01E2
S113216001963C01F6019381F70193FD859193FF5C
S113217081917F01882309F4BAC1853239F493FD32
S1132180859193FF81917F01853229F4B60190E016
S11321900E949712E7CF912C212C312CFFE1F315EB
S11321A0D8F08B3279F038F4803279F08332A1F4AC
S11321B0232D20611DC08D3261F0803369F4232DFD
S11321C0216016C0832D8260382EE32DE4603E2EFC
S11321D02AC0F32DF8601DC037FC2DC020ED280F58
S11321E02A3040F08E32B9F436FC81C1232D2064AC
S11321F0322E19C036FE06C08AE0989E200D1124A6
S1132200922E11C0EAE02E9E200D1124222EF32DD1
S1132210F0623F2E08C08C3621F4832D8068382E5E
S113222002C0883641F4F70193FD859193FF8191B3
S11322307F018111B3CF982F9F7D9554933028F45B
S11322400C5F1F4F9FE399830DC0833631F08337B2
S113225071F0833509F059C021C0F8018081898368
S11322600E5F1F4F88248394912C530113C02801BF
S1132270F2E04F0E511CF801A080B18036FE03C07D
S1132280692D70E002C06FEF7FEFC5010E948C12D0
S11322904C018201F32DFF773F2E16C0280122E066
S11322A0420E511CF801A080B18036FE03C0692D96
S11322B070E002C06FEF7FEFC5010E9481124C01F4
S11322C0F32DF0683F2E820133FC1BC0822D90E079
S11322D088169906B0F4B60180E290E00E94971245
S11322E02A94F4CFF50137FC859137FE81915F0183
S11322F0B60190E00E94971221102A9421E0821ADC
S113230091088114910471F7E8C0843611F089367C
S113231041F5F80137FE07C06081718182819381A4
S11323200C5F1F4F08C060817181072E000C880B61
S1132330990B0E5F1F4FF32DFF763F2E97FF09C0B9
S113234090958095709561957F4F8F4F9F4FF06862
S11323503F2E2AE030E0A3010E94D312882E861873
S113236045C0853731F4232D2F7EB22E2AE030E08C
S113237025C0932D997FB92E8F36C1F018F4883576
S113238079F0B5C0803719F0883721F0B0C0E92F53
S1132390E061BE2EB4FE0DC0FB2DF460BF2E09C05B
S11323A034FE0AC0292F2660B22E06C028E030E091
S11323B005C020E130E002C020E132E0F801B7FEC0
S11323C007C060817181828193810C5F1F4F06C0B9
S11323D06081718180E090E00E5F1F4FA3010E9435
S11323E0D312882E8618FB2DFF773F2E36FE0DC0A4
S11323F0232D2E7FA22E891458F434FE0BC032FCF8
S113240009C0832D8E7EA82E05C0B82CA32C03C032
S1132410B82C01C0B92CA4FE0FC0FE01E80DF11DBB
S11324208081803321F49A2D997EA92E09C0A2FEC1
S113243006C0B394B39404C08A2D867809F0B3948B
S1132440A3FC11C0A0FE06C0B21488F4280C922C80
S11324509B180EC0B21460F4B60180E290E00E94B2
S11324609712B394F7CFB21418F42B1802C0982C17
S1132470212CA4FE10C0B60180E390E00E949712C4
S1132480A2FE17C0A1FC03C088E790E002C088E563
S113249090E0B6010CC08A2D867859F0A1FE02C0E6
S11324A08BE201C080E2A7FC8DE2B60190E00E94BD
S11324B09712891438F4B60180E390E00E949712D1
S11324C09A94F7CF8A94F301E80DF11D8081B60147
S11324D090E00E9497128110F5CF222009F442CE99
S11324E0B60180E290E00E9497122A94F6CFF6019A
S11324F08681978102C08FEF9FEF2B96E2E10C94C7
S11325007E13FC010590615070400110D8F780954E
S113251090958E0F9F1F0895FC01615070400190AB
S11325200110D8F7809590958E0F9F1F08950F93F3
S11325301F93CF93DF93FB01238121FD03C08FEF12
S11325409FEF2CC022FF16C046815781248135811C
S11325504217530744F4A081B1819D012F5F3F4F7F
S1132560318320838C93268137812F5F3F4F3783BC
S1132570268314C08B01EC01FB010084F185E02D5E
S11325800995892BE1F6D80116968D919C911797A0
S1132590019617969C938E931697CE01DF91CF9157
S11325A01F910F910895FA01AA27283051F1203183
S11325B081F1E8946F936E7F6E5F7F4F8F4F9F4FD3
S11325C0AF4FB1E03ED0B4E03CD0670F781F891F15
S11325D09A1FA11D680F791F8A1F911DA11D6A0FE3
S11325E0711D811D911DA11D20D009F468943F9196
S11325F02AE0269F11243019305D3193DEF6CF0195
S11326000895462F4770405D4193B3E00FD0C9F75A
S1132610F6CF462F4F70405D4A3318F0495D31FDC7
S11326204052419302D0A9F7EACFB4E0A69597951A
S1132630879577956795BA95C9F7009761057105F0
S113264008959B01AC010A2E06945795479537953A
S11326502795BA95C9F7620F731F841F951FA01D94
S11326600895F999FECF92BD81BDF89A992780B556
S11326700895A8E1B0E042E050E00C945413262FF2
S1132680F999FECF1FBA92BD81BD20BD0FB6F89453
S1132690FA9AF99A0FBE019608950E943F13272FC4
S11326A00C944013DC01CB01FC01F999FECF06C068
S11326B0F2BDE1BDF89A319600B40D9241505040FC
S11326C0B8F708952F923F924F925F926F927F9244
S11326D08F929F92AF92BF92CF92DF92EF92FF922E
S11326E00F931F93CF93DF93CDB7DEB7CA1BDB0BDA
S11326F00FB6F894DEBF0FBECDBF09942A8839887F
S113270048885F846E847D848C849B84AA84B98485
S1132710C884DF80EE80FD800C811B81AA81B98191
S1132720CE0FD11D0FB6F894DEBF0FBECDBFED01A5
S1132730089510E0C9E3D0E004C0FE010E94FB0E3E
S10F27402196CA33D107C9F7F894FFCFE3
S113274C0000CF042000436F6D6D756E6963617476
S113275C696F6E2077697468202573206661696CD3
S113276C65640000000000E7006C6D37355F3700CE
S113277C6C6D37355F36007B2274797065223A2292
S113278C706F776572222C22706F776572223A25EE
S113279C3034647D007B2274797065223A2274652E
S11327AC6D70657261747572655F6D6178222C222F
S11327BC74656D70657261747572655F6D61782294
S11327CC3A253033647D007B2274797065223A2279
S11327DC6D61785F74656D70657261747572652274
S11327EC2C2274656D7065726174757265223A255C
S11327FC3033647D00747970650073797374656D1E
S113280C5F636865636B0072756E007365745F74E7
S113281C656D70657261747572655F6D6178006762
S113282C65745F74656D70657261747572655F6DE6
S113283C6178007365745F706F7765720067657497
S113284C5F706F776572007365745F696E666F5F36
S113285C72617465006765745F6D61785F74656D32
S113286C70657261747572650000000000110400DB
S113287C000000C804C404FEFF0000FD04000000B6
S113288C00A205C205A505A9053006FEFF0000DD62
S113289C05FCFF0000B105FAFF00004706F8FF0035
S11328AC00AD05000000006C0674633635345F31EE
S11328BC0074633635345F320000000000960692D3
S11328CC06C506FEFF0000F006FCFF0000EC062522
S11328DC7320657870657269656E63656420612028
S11328EC6661756C7420617320696E6469636174CC
S11328FC65642062792069747320737461747573D0
S113290C207265676973746572002573206578702D
S113291C657269656E636564206120636F756E749E
S113292C6572206F766572666C6F772061732069AF
S113293C6E646963617465642062792069747320C0
S113294C737461747573207265676973746572004E
S113295C00000000710874656D70657261747572A5
S113296C652073656E736F72730000000000F608C7
S113297C200A0D090C007D5D00747275650066619A
S113298C6C7365006E756C6C0039323233333732CC
S113299C303336383534373735383037002D393213
S11329AC32333337323033363835343737353830D1
S11329BC380022225C5C2F2F6208660C6E0A720DA2
S11329CC740900000000D40E140DFEFF0000C00DAD
S9030000FC
