:100000000C943B000C9463000C9463000C9463000C
:100010000C9463000C9463000C9463000C946300D4
:100020000C9463000C9463000C9463000C946300C4
:100030000C9463000C9463000C94BE0B0C9463004E
:100040000C9463000C9463000C94D6100C94630021
:100050000C9463000C9463000C9463000C94630094
:100060000C9463000C946300CF056B07C907AB0BBE
:10007000090C22111A0C11241FBECFEFD8E0DEBFED
:10008000CDBF14E0A0E0B1E0E0EBFBE202C00590E0
:100090000D92A032B107D9F725E0A0E2B4E001C08B
:1000A0001D92A936B207E1F710E0CAE3D0E004C020
:1000B0002197FE010E942D11C433D107C9F70E9478
:1000C00037010C94CB150C940000000000000000D8
:1000D0000000000000000000000000000000000020
:1000E0000000000000000000000000000000000010
:1000F0000000000000000000000000000000000000
:1001000000000000000000000000000000000000EF
:1001100008953D983C984598449808953D9AD5DFB8
:100120001DD008953C9AD1DF3D98CFDF3C98CDDFBC
:100130003D9ACBDF13D00895082E3D9AC6DF802D5F
:100140000DD0882311F002D0F8CF08953C9A3D9A43
:10015000BCDF3C98BADF3D98B8DF08950894881F4B
:1001600001C0880F59F03C9A18F400003D9802C075
:100170003D9A00C0AADF3C98A8DFF3CF3C9A3D9897
:10018000A4DF3C98349BFECF8827359981E09DDF22
:1001900099270895882701C081E071E03C9A3D9835
:1001A00094DF3C9892DF349BFECF88943599089475
:1001B000771FA0F73C9A813011F03D9801C03D9A1D
:1001C00084DF3C98349BFECF80DF872F99270895EA
:1001D000EF92FF920F931F93CF93DF93EC018E81E9
:1001E0009F81892B41F5FC80ED80EF2DFE2DDF01F5
:1001F0000D900020E9F78D010E1B1F0B065E1F4FAF
:10020000C8010E9433119F838E830097A1F0EF9263
:10021000FF9226E031E03F932F931F930F939F931C
:100220008F930E94A2128DB79EB708960FB6F894CE
:100230009EBF0FBE8DBF8E819F81DF91CF911F9199
:100240000F91FF90EF9008950F931F93CF93DF933B
:10025000EC018B010E94CC0487E291E099838883B2
:100260001D830C83DF91CF911F910F910895CF9340
:10027000DF93CDB7DEB7C254D1090FB6F894DEBF15
:100280000FBECDBF0FB6F894A8958091600088612D
:1002900080936000109260000FBE0E9489000E944F
:1002A000B4060E941D102C010E9442078C0141E0FF
:1002B00061E0CE0101960E94ED08CE0101960E94F8
:1002C0009F0A9CAF8BAFCE0101960E94A10A9EAF00
:1002D0008DAF0E94BE053C019801285F3F4F42E070
:1002E000BE01655C7F4F0E94C8058CE090E00E94D3
:1002F000B20B4C0149E251E067E00E9421068CE01C
:1003000090E00E94B20B5C0140E351E066E00E9485
:10031000210621969FAE8EAE21972396BFAEAEAE3C
:1003200023970E949C0B5C0142E0BE01615C7F4F01
:100330000E94A60B0E94B7074C019301A801B501CA
:100340000E94C1070E94DD0580E190E00E94B20B8F
:100350003C01680184E0C80ED11C780186E0E80EFB
:10036000F11C98012E5F3F4FB2016E5F7F4FA201DB
:10037000C3010E94BF01C3010E946D03FCCF8F9295
:100380009F92AF92BF92CF92DF92EF92FF920F9324
:100390001F93CF93DF93CDB7DEB7FC0171836083EA
:1003A000538342833583248317830683F186E08653
:1003B000D386C286B586A48697868686DF91CF913E
:1003C0001F910F91FF90EF90DF90CF90BF90AF9073
:1003D0009F908F900895EF92FF920F931F93CF936A
:1003E000DF93CDB7DEB76F970FB6F894DEBF0FBEC1
:1003F000CDBF7C01DC011A968D919C911B97DC018D
:10040000ED91FC910190F081E02D09959F938F93E0
:1004100087E391E09F938F931F928FE18F938E01DB
:100420000F5F1F4F1F930F930E94A212F70182814B
:100430009381DC01ED91FC910190F081E02D4EE182
:1004400050E0B80109950FB6F894DEBF0FBECDBFDE
:100450006F960FB6F894DEBF0FBECDBFDF91CF9180
:100460001F910F91FF90EF900895EF92FF920F93DD
:100470001F93CF93DF93CDB7DEB7E2970FB6F89413
:10048000DEBF0FBECDBF7C01DC0116968D919C9125
:100490001797DC01ED91FC910190F081E02D099519
:1004A0001F928F9386E591E09F938F931F9282E333
:1004B0008F938E010F5F1F4F1F930F930E94A21205
:1004C000F70182819381DC01ED91FC910190F08133
:1004D000E02D41E350E0B80109950FB6F894DEBF76
:1004E0000FBECDBFE2960FB6F894DEBF0FBECDBFF4
:1004F000DF91CF911F910F91FF90EF900895AF92F0
:10050000BF92CF92DF92EF92FF920F931F93CF9300
:10051000DF937C01CB01DB01ED91FC910190F08137
:10052000E02D0995B82EA92EE82FF92FDF010D90A7
:100530000020E9F711978D010E1B1F0B6801B3E234
:10054000CB0ED11CC6010E943311D82FC92FAF92F8
:10055000BF9289E891E09F938F93DF92CF92CF93E0
:10056000DF930E94A212F70182819381A8014E5D60
:100570005F4FDC01ED91FC910190F081E02D6D2F3A
:100580007C2F09958D2F9C2F0E94CB11EDB7FEB7C4
:1005900038960FB6F894FEBF0FBEEDBFDF91CF9136
:1005A0001F910F91FF90EF90DF90CF90BF90AF9091
:1005B0000895EF92FF920F931F93CF93DF937C01E7
:1005C0008B01C0E0D0E0C8010E943805C817D907E8
:1005D00088F4CE01880F991FD8011496ED91FC91F3
:1005E0001597E80FF91F60817181C7010E947F0292
:1005F0002196E9CFDF91CF911F910F91FF90EF905E
:100600000895EF92FF920F931F93CF93DF93CDB78F
:10061000DEB7E5970FB6F894DEBF0FBECDBF8C01F5
:1006200081E08983CE0102960E94E604D8011C96DF
:100630008D919C911D97DC01ED91FC910190F081D1
:10064000E02DAE014E5F5F4FBE016F5F7F4F09959A
:10065000F82E8981882351F10E94D6058F2D0F2C09
:10066000000C990B9F93FF928EEA91E09F938F93DA
:100670001F928EE28F937E01B8E0EB0EF11CFF9289
:10068000EF920E94A212F80182819381DC01ED9128
:10069000FC910190F081E02D4DE250E0B701099509
:1006A0000FB6F894DEBF0FBECDBF06C0BE016E5FB1
:1006B0007F4FC8010E94D902CE0102960E943C05DC
:1006C000E5960FB6F894DEBF0FBECDBFDF91CF9198
:1006D0001F910F91FF90EF9008957F928F929F92BC
:1006E000AF92BF92CF92DF92EF92FF920F931F9340
:1006F000CF93DF93CDB7DEB7C75CD1400FB6F89488
:10070000DEBF0FBECDBF6C01DC018D919C91DC0181
:10071000ED91FC910190F081E02D09957C0100970D
:1007200009F424C1FC0182819381181619060CF08A
:1007300017C10E94DD05D70112968D919C911397E8
:10074000181619060CF00CC100E010E07724739421
:10075000D701ED91FC91C801880F991FE80FF91F8F
:100760000190F081E02D42815381BE016F5F7F4F88
:10077000808191810E94480D5C016DED71E00E94C5
:10078000230D009709F4E1C0FC012681223009F015
:10079000DCC0848095800E941D10F401019000202F
:1007A000E9F73197AF0148195909DC01ED91FC9146
:1007B0000190F081E02DB401099562EE71E0C40171
:1007C0000E948412892B09F04AC0CE018F539E4F9C
:1007D0000E94E604C953DE4F7882C75CD140F6011F
:1007E00086859785DC01ED91FC910190F081E02DEB
:1007F000AE014F535E4FBE0169537E4F0995C953F9
:10080000DE4F8881C75CD140882379F0F601828170
:100810009381DC01ED91FC910190F081E02D46E2A5
:1008200050E06FEE71E0099514C0BE016F537E4F2A
:10083000C6010E94D902F60182819381DC01ED910B
:10084000FC910190F081E02D47E250E066E172E01A
:100850000995CE018F539E4F0E943C0576C06EE3F2
:1008600072E0C4010E948412892B09F46EC062E414
:1008700072E0C4010E948412892BF1F46AE572E0EF
:10088000C5010E94230D009709F45FC0FC01268179
:10089000243009F05AC0848195810E945412D601F7
:1008A00014968D919C911597DC01ED91FC9101902E
:1008B000F081E02D099549C066E572E0C4010E940F
:1008C0008412892B21F4C6010E9435023EC06AE6DB
:1008D00072E0C4010E948412892BD9F468E772E0A7
:1008E000C5010E94230D009781F1FC01268124306F
:1008F00061F5848195810E945412F601A085B1852D
:10090000ED91FC9111970190F081E02DCD010995B9
:100910001CC064E772E0C4010E948412892B21F498
:10092000C6010E94EB0111C06EE772E0C4010E9493
:100930008412892B51F06CE872E0C4010E94841289
:10094000892B19F4C6010E9401030F5F1F4FD701C5
:1009500012968D919C911397081719070CF4F8CEF5
:10096000C7010E947B06C7010E94B80BC953DE4F26
:100970000FB6F894DEBF0FBECDBFDF91CF911F91B0
:100980000F91FF90EF90DF90CF90BF90AF909F902E
:100990008F907F900895089524EA32E0FC0131831E
:1009A0002083089524EA32E0FC013183208373839D
:1009B0006283089524EA32E0FC013183208382813E
:1009C0009381009711F00E94B80B0895FC011182E9
:1009D000108213821282158214820895AF92BF9200
:1009E000CF92DF92EF92FF920F931F93CF93DF93FB
:1009F000EC017B010A811B81888199810817190705
:100A0000E9F40115110521F0C801880F991F02C0F2
:100A100081E090E09B838A83880F991F0E943311A5
:100A20006C01AC80BD80A801440F551FB5010E9428
:100A30007B12C5010E94CB11DD82CC82EC81FD814D
:100A4000888199819C012F5F3F4F39832883880FCC
:100A5000991FE80FF91FF182E082DF91CF911F917A
:100A60000F91FF90EF90DF90CF90BF90AF900895DF
:100A7000FC01808191810895CF92DF92EF92FF92E5
:100A80000F931F93CF93DF938C01DC01ED90FC90CB
:100A9000E114F104D9F0C0E0D0E0D8011496ED9152
:100AA000FC911597CE01880F991FE80FF91FC080A0
:100AB000D180C114D10431F0C6010E94DA04C6010C
:100AC0000E94B80B2196EC16FD0639F7F8018481D7
:100AD00095810E94CB11DF91CF911F910F91FF90D3
:100AE000EF90DF90CF900895EF92FF920F931F93B6
:100AF000CF93DF93EC018B017A018E81811110C0BD
:100B000084E090E00E94B20BEC0166EA72E00E9481
:100B1000D204BE01C7010E94EE04D8011C9227C076
:100B20008F819885DC01ED91FC910190F081E02DA1
:100B300009958E818823D9F0EC81FD81C081D18116
:100B4000EC81FD810190F081E02DA701B801CE017B
:100B500004960995F8018081882349F0E881F9819C
:100B60000190F081E02DA701B801CE010995DF9138
:100B7000CF911F910F91FF90EF90089580912004E5
:100B8000811103C081E08093200481E294E0089504
:100B9000FC017583648346833087278308958CEB3B
:100BA00092E0909322048093210408950E94B80655
:100BB0000E94BC060E94BE0608950E94B8060E94CC
:100BC000BA060E94C0060895FC01808591850895AB
:100BD000EF92FF920F931F93CF93DF93EC017A0173
:100BE0008B850E949C008C810E94AE00182F0E9471
:100BF000A600112379F088E090E00E94B20B8C01EE
:100C0000688579850E942401B801C7010E94EE041D
:100C100080E00CC08A850E949C000E94CC00C82FF6
:100C20000E94CC0078940E94A6008C2FDF91CF9177
:100C30001F910F91FF90EF900895FC01868197819D
:100C40000895FC0182EC92E0918380838AEC92E02B
:100C500093838283148281E0858382E0868383E0AC
:100C6000878351874087660F6E70862F80698387E0
:100C7000616962870895FC017183608353834283B5
:100C80000895FC0180819181009711F00E94BB0BB7
:100C90000895FF920F931F93CF93DF93EC01F62EED
:100CA000072F142F842F90E09B838A83880F991F2E
:100CB0000E94B50B998388831123B9F0AF2DB02F13
:100CC0001150212F30E02F5F3F4F220F331F80E064
:100CD00090E04D915D91E881F981E80FF91F518312
:100CE0004083029682179307A1F7DF91CF911F915E
:100CF0000F91FF900895EF92FF920F931F93CF9360
:100D00007C01DC0112968D919C911397181619069F
:100D1000F4F4C0E0EC2FF0E0EE0FFF1FD7018D914F
:100D20009C91E80FF91F008111810115110531F027
:100D3000C8010E944106C8010E94B80BCF5F2C2F4A
:100D400030E0F70182819381281739071CF3D7011E
:100D50008D919C91009711F00E94BB0BCF911F9138
:100D60000F91FF90EF9008958AB18C618AB9089530
:100D70005A9808955B9A08955B9808955C9A08952F
:100D80005C980895FC0182850895FC018385948513
:100D90000895FC01858596850895FC0185819681DD
:100DA0000895FC01878190850895FB0180818E372D
:100DB00018F08DE780830895883218F488E2FB01EB
:100DC000808308950F931F93CF93DF931F92CDB726
:100DD000DEB78C016983BE016F5F7F4F0E94D5062D
:100DE0006981F801628782E090E00E9471150F909E
:100DF000DF91CF911F910F91089502970E94E20613
:100E00000895FB01808191818D3DF5E09F0730F0D1
:100E10008CED95E0FB019183808308954E9728F433
:100E20008EE190E0FB019183808308950F931F93DF
:100E3000CF93DF9300D0CDB7DEB78C0182E090E096
:100E40000E946315F8018287B801665F7F4FC80171
:100E50000E94D50680E090E00E946B159A838983FA
:100E6000BE016F5F7F4FC8010E94010789819A818F
:100E7000F801948783870F900F90DF91CF911F9196
:100E80000F91089580912A04811107C08BE294E0AC
:100E90000E94160781E080932A048BE294E0089573
:100EA000CF93DF9300D0CDB7DEB77A836983BE01DD
:100EB0006F5F7F4F0E94010769817A8180E090E037
:100EC0000E947F150F900F90DF91CF9108950697A4
:100ED0000E9450070895EBE2F4E080ED92E09183E8
:100EE00080838EED92E09383828384EE92E09583FB
:100EF00084838AEE92E09783868380EF92E09187E5
:100F0000808787E782878AE090E09487838788EEEE
:100F100093E0968785870895EF92FF920F931F9332
:100F2000CF93DF937C01EB018A01DC0112968D9156
:100F30009C911397DC01ED91FC910190F081E02DE3
:100F400009958881882361F0F70186819781DC010A
:100F5000ED91FC910190F081E02DA801BE01099571
:100F6000DF91CF911F910F91FF90EF9008958091A5
:100F70003A04811103C081E080933A048BE394E04A
:100F80000895FC01738362835583448337832683EA
:100F9000089586EF92E090933C0480933B0408957B
:100FA000FC01868197810895EF92FF920F931F9322
:100FB000CF93DF93EC018B017A018C899D8980FDB1
:100FC00003C0EA89FB8911C0E885F9859C01359544
:100FD0002795E20FF31F0190F081E02D2A893B89CC
:100FE000E20FF31F0190F081E02D959587952885FC
:100FF0003985B801820F931F0995F80180818823F4
:1010000009F18C859D8580FD03C0EA85FB8511C0B3
:10101000E885F9859C0135952795E20FF31F01902E
:10102000F081E02D2A853B85E20FF31F0190F081CE
:10103000E02D9595879528853985B801820F931FF6
:1010400009950EC089E090E00E94B20B8C016E8180
:101050007F8142E00E940F0BB801C7010E94EE049D
:1010600080E090E0DF91CF911F910F91FF90EF9082
:101070000895EF92FF920F931F93CF93DF93EC01AC
:101080008B017A018C899D8980FD03C0EA89FB89E7
:1010900011C0E885F9859C0135952795E20FF31F6E
:1010A0000190F081E02D2A893B89E20FF31F019026
:1010B000F081E02D9595879528853985B801820FB7
:1010C000931F0995F8018081882321F188899989E6
:1010D00080FD03C0EE85FF8511C0E885F9859C0180
:1010E00035952795E20FF31F0190F081E02D2E85B5
:1010F0003F85E20FF31F0190F081E02D2E813F81AB
:1011000095958795A885B985A701B8018A0F9B1F7A
:1011100009950EC089E090E00E94B20B8C016E81AF
:101120007F8142E00E940F0BB801C7010E94EE04CC
:10113000DF91CF911F910F91FF90EF900895049749
:101140000E9439080895FC01848195810895FC016D
:10115000908181E091FF80E00895FC01908181E021
:1011600093FF80E00895FC01908181E094FF80E08E
:1011700008958F929F92AF92BF92CF92DF92EF929B
:10118000FF920F931F93CF93DF93CDB7DEB7FC0190
:101190008CE093E09183808386E193E09383828364
:1011A0008CE193E095838483978286827187608740
:1011B000E686F786008B118BA28AB38AC48AD58A09
:1011C000DF91CF911F910F91FF90EF90DF90CF9023
:1011D000BF90AF909F908F9008956F927F928F9263
:1011E0009F92AF92BF92CF92DF92EF92FF920F93B6
:1011F0001F93CF93DF93EC01762E642E86E38883D2
:1012000087E389831A8281E08B8382E08C8383E089
:101210008D8384E08E8385E08F8386E0888787E0F6
:10122000898788E08A871D860F2EFDECAF2EF9E0B6
:10123000BF2EF02DC12CD12C0F2EFEEFEF2EF9E09A
:10124000FF2EF02D00E010E02EEB39E040E050E002
:101250000F2EF8EF8F2EF2E09F2EF02DBE01CE0163
:101260000E960E94B9080F2EFDECAF2EF9E0BF2EAE
:10127000F02DC12CD12C0F2EFDE4EF2EFAE0FF2E25
:10128000F02D00E010E023EC39E040E050E00F2EBC
:10129000F0E08F2EF3E09F2EF02DBE01CE0184965C
:1012A0000E94B908872D8F70782E770C770C7B867B
:1012B000660C660C660C660C660C660C6C86DF9120
:1012C000CF911F910F91FF90EF90DF90CF90BF9043
:1012D000AF909F908F907F906F9008950F931F9382
:1012E000CF93DF938B01C42FD22FFC0180810E940A
:1012F0009C008C2F0E94AE00882329F0F8011082F8
:101300000E94A6000AC08D2F0E94AE00C82F0E9426
:10131000A600CC2311F0F8011082DF91CF911F912C
:101320000F910895242FFC0146810E946E090895B3
:10133000EF92FF921F93CF93DF93EC017B01142F69
:1013400088810E949C00812F0E94AE00182F0E946D
:10135000A600112321F0F701108280E009C08981E5
:101360000E949C000E94CA00C82F0E94A6008C2FD9
:10137000DF91CF911F91FF90EF900895FC01428182
:101380000E9498090895FC0143810E9498090895DC
:10139000FC0146810E9498090895EF92FF920F93F5
:1013A0001F93CF93FC01258521111DC07B018C016A
:1013B000C3859485C92BC0624C2FCF010E9492092E
:1013C000F7018081882379F0B701C8010E94C8091C
:1013D000F7019081992339F0C81711F0108203C0EA
:1013E00081E0F8018587CF911F910F91FF90EF90D9
:1013F0000895FC0147810E9498090895CF92DF92D9
:10140000EF92FF920F931F93CF93DF931F92CDB76D
:10141000DEB78B017A0169010E94F9098983F8011D
:10142000808181110DC088E090E00E94B20B8C0198
:10143000B6010E942401B801C7010E94EE0423C036
:10144000898180FF0DC089E090E00E94B20B8C0181
:1014500040E0B6010E940F0BB801C7010E94EE04E4
:10146000CE0101960E94AD08882369F089E090E0E2
:101470000E94B20B8C0141E0B6010E940F0BB80133
:10148000C7010E94EE040F90DF91CF911F910F9141
:10149000FF90EF90DF90CF900895CF92DF92EF9280
:1014A000FF920F931F93CF93DF931F92CDB7DEB7B9
:1014B0008B017A0169010E94F9098983F801808111
:1014C00081110DC088E090E00E94B20B8C01B60142
:1014D0000E942401B801C7010E94EE0426C0CE017B
:1014E00001960E94A708882369F089E090E00E9495
:1014F000B20B8C0140E0B6010E940F0BB801C7018E
:101500000E94EE04CE0101960E94B308882369F080
:1015100089E090E00E94B20B8C0141E0B6010E948C
:101520000F0BB801C7010E94EE040F90DF91CF911D
:101530001F910F91FF90EF90DF90CF9008950E963E
:10154000089584960895EF92FF920F931F93CF937F
:10155000DF93EC018F819885892B09F057C08C812E
:10156000882319F0813051F151C0FD80EE80EF2DBC
:10157000FE2DDF010D900020E9F78D010E1B1F0BE2
:10158000085C1F4FC8010E94331198878F83009712
:10159000E9F1EF92FF922EE133E03F932F931F93F7
:1015A0000F939F938F930E94A2128DB79EB70896B8
:1015B0000FB6F8949EBF0FBE8DBF28C0FD80EE8091
:1015C000EF2DFE2DDF010D900020E9F78D010E1BA0
:1015D0001F0B0D5B1F4FC8010E94331198878F832B
:1015E0000097A1F0EF92FF9229E533E03F932F930C
:1015F0001F930F939F938F930E94A2128DB79EB754
:1016000008960FB6F8949EBF0FBE8DBF8F81988548
:10161000DF91CF911F910F91FF90EF900895FF926E
:101620000F931F93CF93DF93EC018B01F42E0E9455
:10163000CC0483EA93E099838883FC821E830D8324
:1016400018861F82DF91CF911F910F91FF9008950F
:10165000BF92CF92DF92EF92FF920F931F93CF939F
:10166000DF938C017B016A01DC0114968C91149745
:10167000882309F441C01296ED91FC911397808163
:101680009181DC01ED91FC910190F081E02D0995B3
:10169000B82EF7018081882309F43FC0D801149641
:1016A0008C9190E00297DCF1C1E0D0E006C0F80137
:1016B000248130E0C217D307A4F5D8011296ED912A
:1016C000FC9113979E01220F331FE20FF31F8081BD
:1016D0009181DC01ED91FC910190F081E02DA6015A
:1016E000B7010995B8160CF4B82E2196F701808140
:1016F0008111DDCF8B2D16C088E090E00E94B20BE7
:10170000EC0165EA73E00E942401BE01C6010E945B
:10171000EE04D7011C9280E005C08B2D03C08B2DF9
:1017200001C08B2DDF91CF911F910F91FF90EF9012
:10173000DF90CF90BF90089580914304811103C042
:1017400081E08093430484E494E00895FC01738372
:101750006283448308958DEB93E0909345048093D6
:10176000440408950E94331108950E94331108958E
:101770000E94CB1108950E94CB1108951F920F92E1
:101780000FB60F9211240F931F932F933F934F93F4
:101790005F936F937F938F939F93AF93BF93CF93F9
:1017A000DF93EF93FF93F89480914F04909150044E
:1017B000892BC9F0C0E0D0E00FE414E0D801149602
:1017C000ED91FC911597CE01880F991FE80FF91F35
:1017D0000190F081E02D09952196F8018081918199
:1017E000C817D90758F37894FF91EF91DF91CF9103
:1017F000BF91AF919F918F917F916F915F914F9129
:101800003F912F911F910F910F900FBE0F901F903E
:101810001895EFE4F4E0118210821382128215828F
:101820001482E9E4F4E0118210821382128215829C
:101830001482089580914D0490914E040E94CB1122
:1018400080915304909154040E94CB110895CF933A
:10185000DF93EC019881903208F457C0923231F056
:10186000DE014FE308C0923231F401C0DE011C9268
:10187000CE0101965BC09C35E1F59981953719F051
:101880009232C9F420C0FE0132969E012A5F3F4F7A
:1018900081918033E8F18A3338F08134E0F1873484
:1018A00018F081568630D0F5E217F30789F74C938C
:1018B000FE01359620C0E1E0F4E021E030E08281D5
:1018C00098130CC002C020E030E0220F331FF90152
:1018D000EF5FFB4F8181811108C023C02F5F3F4F15
:1018E00032962830310559F71FC0FE0131968C938E
:1018F00002C09C93FE01EF012196119691819032D6
:1019000008F0B1CF80E090E011C080E090E00EC020
:1019100080E090E00BC080E090E008C080E090E0C4
:1019200005C080E090E002C080E090E0DF91CF91C0
:101930000895FB019191992321F09813FBCF81E049
:10194000089580E008950F931F93CF93DF93EC01E8
:101950008B018881882359F0B8010E94990C882353
:1019600049F0219688818111F7CF90E005C080E091
:1019700090E002C08C2F9D2FDF91CF911F910F918E
:101980000895FC018081882381F080538A3080F49F
:10199000319603C020532A3068F48E2F9F2F219157
:1019A0002111F8CF80E090E0089580E090E0089564
:1019B0008E2F9F2F0895CF938C3269F0C82F6FEB35
:1019C00073E00E94990C811107C065EC73E08C2FC5
:1019D0000E94990C01C081E0CF910895FF920F936E
:1019E0001F93CF93DF938B01F22EE42FF52FEC01A1
:1019F0002191222329F0019638812317C1F315C0C4
:101A0000892BB1F088810E94DB0C8823A1F065EC62
:101A100073E088810E94990C811102C0188221967E
:101A2000F801F6828C2F9D2F08C080E090E005C061
:101A300080E090E002C080E090E0DF91CF911F91C4
:101A40000F91FF9008950F931F93CF93DF938B0116
:101A5000FC01C481D581209789F08A819B81009700
:101A600029F0B8010E948412892B59F00990D8817D
:101A7000C02D209791F780E090E005C080E090E0D5
:101A800002C08C2F9D2FDF91CF911F910F91089550
:101A90002F923F924F925F926F927F928F929F927E
:101AA000AF92BF92CF92DF92EF92FF920F931F936C
:101AB000CF93DF9300D01F92CDB7DEB75B013A0121
:101AC0006FEB73E00E94A30C009709F4BBC1DC012B
:101AD0002C912B3709F0B9C1F501138212821182C2
:101AE00010821582148216828C010F5F1F4F7501C0
:101AF000CC24C394D12C6894222422F868944424E2
:101B000041F8332433940F2EFDE75F2EF02D6FEB59
:101B100073E0C8010E94A30C9B838A83009709F499
:101B20009AC1DC018C918C3221F48D010F5F1F4F23
:101B3000EECFF7019681992311F02DE501C0252DF7
:101B4000821316C0AA81BB811C92F701808191810A
:101B5000009731F4119609F47BC18A2D9B2D80C129
:101B6000118210820A811B810F5F1F4F7C01CFCF32
:101B7000C614D70408F072C14601BFEF8B1A9B0A46
:101B80009601220F331F220F331F220F331FF9013B
:101B9000EC19FD096F01CA0CDB1CC114D10409F456
:101BA0005AC1913031F1823209F055C18A819B814D
:101BB0000196D60113969C938E9312970E94270C40
:101BC000009709F44BC16FEB73E00E94A30C0097E0
:101BD00009F444C1FC0120812A3309F03FC16FEBB5
:101BE00073E001960E94A30C9B838A83892B31F4B6
:101BF00032C1D60113961C921E921297F6011182E1
:101C00001082D7011496ED91FC911597309739F415
:101C10001596DC92CE92149708C0FC0100C080811A
:101C200091810097D1F7D182C082EA81FB81D601F0
:101C30001596FC93EE9314978081863609F446C07E
:101C400028F4823239F18B35C9F054C08437A1F1C0
:101C50008B3721F08E3609F04DC042C0D601169662
:101C60001C92169715961C921E921497ED92FC9258
:101C70000A811B810F5F1F4F7601DFC0F60136829C
:101C800015821482F182E0820A811B810F5F1F4F4F
:101C90007601D3C08A819B810196D60115969C93CB
:101CA0008E9314970E94270C8C01892B09F4D6C0BF
:101CB000F601468264012BCF23E048EC53E0B601E5
:101CC0008A819B810E94EE0C8C01B7C023E04DEC11
:101CD00053E0B6018A819B810E94EE0C8C01ADC05D
:101CE00026E043ED53E0B6018A819B810E94EE0C11
:101CF0008C01A3C08D3221F4EA81FB81319602C0B0
:101D0000EA81FB81808190ED980F9A3008F0A6C09F
:101D1000803339F0CF010E94C10C8C01892B49F42A
:101D20009DC08F010F5F1F4F818180538A3008F45F
:101D300095C0D60116962C92F80180818E3289F4D6
:101D4000818180538A3008F086C0C80102960E94C3
:101D5000C10C8C01892B09F481C0E5E0D6011696EF
:101D6000EC93D8018C918F7D853411F511968C916F
:101D70008D3229F08B3219F0F801319602C0F8014A
:101D80003296908190539A3008F065C0CF01019649
:101D90000E94C10C8C01009709F460C025E0F60197
:101DA0002683DC018C910E94DB0C81113AC056C065
:101DB000F801F081F9838F2F0E94DB0C882309F44E
:101DC0004DC0D60116968C91843059F5EA81FB817D
:101DD00040814D3219F083E190E002C084E190E04F
:101DE00098016A817B81261B370B82179307B0F11C
:101DF00028173907B1F4D8011C924D3229F0E8EDCB
:101E0000F3E08E2F9F2F04C02CEE33E0822F932F10
:101E10006A817B810E948412992304F1E981D801AF
:101E2000EC9365EC73E0D8018C910E94990C8111C0
:101E300004C0F80110820F5F1F4F0115110559F002
:101E4000640165CE80E090E00BC080E090E008C0C7
:101E500080E090E005C080E090E002C080E090E08B
:101E60000F900F900F90DF91CF911F910F91FF90E6
:101E7000EF90DF90CF90BF90AF909F908F907F902A
:101E80006F905F904F903F902F9008953F924F92A8
:101E90005F926F927F928F929F92AF92BF92CF92FA
:101EA000DF92EF92FF920F931F93CF93DF93CDB703
:101EB000DEB72A970FB6F894DEBF0FBECDBF5C0128
:101EC000E12CF12C312C2C0184EF481A8EEF580AAA
:101ED000F501E25FFE4FFA87E987F20180818E15F6
:101EE00009F44FC047016701CC0CDD1CCA0CDB1C98
:101EF000F60184819581181619060CF042C0048100
:101F00001581C80101960E94B50B3C010115110510
:101F1000C1F0FC0180E090E000249694879407943F
:101F2000969487940794982C802C8A0C9B1CD4013F
:101F3000A80FB91F1C962C91219301960817190719
:101F4000B1F7F301E00FF11F108284E090E00E94EE
:101F5000B20B4C01A801B3010E943B06E32DF0E057
:101F6000EE0FFF1F81E090E08C0F9D1FE80FF91F1F
:101F7000918280823394F60115821482E985FA8574
:101F80001082FFEFEF1AFF0A84E0E816F10409F06F
:101F9000A4CF332061F084E090E00E94B20B8C016A
:101FA000432DBE016F5F7F4F0E94490602C000E0D3
:101FB00010E0C8012A960FB6F894DEBF0FBECDBF61
:101FC000DF91CF911F910F91FF90EF90DF90CF9015
:101FD000BF90AF909F908F907F906F905F904F9049
:101FE0003F90089502970E94460F0895FC01DC017E
:101FF000A45FBE4F1C9211961C9211961C92509891
:10200000519A1582148217821682118610861386C1
:1020100012861092C50083E38093C400E0ECF0E0E8
:1020200080818D7F808388E98093C100E2ECF0E0BD
:102030008081866080837894089580915504811111
:1020400007C086E594E00E94F60F81E08093550476
:1020500086E594E008952091C6002D3019F02A30CD
:1020600009F067C0FC01E45FFE4FE081F0E03296CA
:10207000EE0FFF1FE80FF91F20813181232B09F498
:1020800094C0FC01E35FFE4F2081211141C03197D4
:102090002081233030F0FC0124813581232BA9F4E9
:1020A00027C0FC01E45FFE4F20812F5F2083E08189
:1020B000F0E03296EE0FFF1FE80FF91F1182108239
:1020C000FC01E35FFE4F10820895FC0126813781F9
:1020D000232B51F020853185232B41F02285338538
:1020E000232B81F423E005C021E003C022E001C0DE
:1020F00020E0FC01E45FFE4F208331961082319690
:1021000010820895FC01E25FFE4F21E020830895D4
:10211000FC01E35FFE4F10823197208130E02E5F9B
:102120003F4F220F331FFC01E20FF31F1182108279
:102130000895FC01E35FFE4F3081311136C03196C6
:102140003081311132C021C0FC01E35FFE4F21E03C
:1021500020830895DC01A45FBE4F3C91FC0160E444
:10216000369FE00DF11D1124E40FF51F24872C91FB
:1021700030E04F5F5F4F2E5F3F4F220F331FFC0158
:10218000E20FF31F518340830895FC01E45FFE4F8B
:10219000E081F0E03296EE0FFF1FE80FF91F40815B
:1021A000518140345105B4F2CFCF08951F920F9260
:1021B0000FB60F9211242F933F934F935F936F931A
:1021C0007F938F939F93AF93BF93EF93FF93F89475
:1021D0000E941D100E942B107894FF91EF91BF91E7
:1021E000AF919F918F917F916F915F914F913F91AF
:1021F0002F910F900FBE0F901F901895E0ECF0E01C
:10220000808185FFFDCF6093C6000895EF92FF9215
:102210000F931F93CF93DF934115510561F08B010D
:102220007C01EB01040F151F6991C7010E94FE108C
:10223000C017D107C9F7DF91CF911F910F91FF9080
:10224000EF900895E6E5F4E085E194E091838083E2
:102250008DE194E0938382830895EE0FFF1F059034
:10226000F491E02D09940F931F93CF93DF93823065
:10227000910510F482E090E0E0916705F091680527
:1022800020E030E0A0E0B0E0309719F140815181CA
:102290000281138148175907C8F08417950769F41C
:1022A000109731F012960C93129713961C9327C037
:1022B000009367051093680522C02115310519F0B8
:1022C0004217530718F49A01BD01EF01DF01F8012D
:1022D000DBCF21153105F9F0281B390B24303105EE
:1022E00080F48A819B816115710521F0FB01938344
:1022F000828304C09093680580936705FE0132963F
:1023000044C0FE01E20FF31F8193919322503109E3
:10231000398328833AC02091650530916605232BC7
:1023200041F420910201309103013093660520931E
:10233000650520910001309101012115310541F41D
:102340002DB73EB74091040150910501241B350B78
:10235000E0916505F0916605E217F307A0F42E1BE6
:102360003F0B2817390778F0AC014E5F5F4F2417F9
:10237000350748F04E0F5F1F509366054093650583
:102380008193919302C0E0E0F0E0CF01DF91CF9123
:102390001F910F910895CF93DF93009709F481C0A7
:1023A000FC01329713821282A0916705B0916805F3
:1023B000109781F420813181820F931F2091650550
:1023C000309166052817390751F5F0936605E093BB
:1023D000650567C0ED0120E030E0CE17DF0740F46F
:1023E0004A815B819E0141155105F1F0EA01F5CF6B
:1023F000D383C28340815181840F951FC817D907A9
:1024000059F488819981840F951F02969183808366
:102410008A819B81938382832115310529F4F0936E
:102420006805E09367053DC0E901FB83EA834991B4
:102430005991C40FD51FEC17FD0761F4808191817C
:10244000840F951F0296E901998388838281938185
:102450009B838A83E0E0F0E012968D919C91139724
:10246000009719F0FD01DC01F7CF8D919C91119738
:102470009D012E5F3F4F820F931F20916505309184
:1024800066052817390769F4309729F41092680512
:102490001092670502C013821282B0936605A09362
:1024A0006505DF91CF9108951F93FC019927882737
:1024B000BC01E89411911032E9F3193010F01E308C
:1024C000C8F31B3251F01D3249F4689406C00E94D3
:1024D0008D12610F711D811D911D119110531A30C4
:1024E000B0F33EF490958095709561957F4F8F4F36
:1024F0009F4F1F910895FB01DC0102C001900D92D6
:1025000041505040D8F70895FB01DC018D910190B6
:1025100080190110D9F3990B0895592F482F372F9F
:10252000262F660F771F881F991F660F771F881F3A
:10253000991F620F731F841F951F660F771F881FD7
:10254000991F0895AEE0B0E0E8EAF2E10C94A2151C
:102550000D891E898F89988D26E02C831A83098323
:1025600097FF02C080E090E801979E838D83AE01C3
:10257000455E5F4F698D7A8DCE0101960E94D21221
:102580004D815E8157FD0AC02F8138854217530760
:102590000CF49A01F801E20FF31F10822E96E4E08A
:1025A0000C94BE15ABE0B0E0E8EDF2E10C949415AC
:1025B0006C017B018A01FC0117821682838181FFF5
:1025C000CCC1CE0101963C01F6019381F70193FD48
:1025D000859193FF81917F01882309F4BAC18532E7
:1025E00039F493FD859193FF81917F01853229F420
:1025F000B60190E00E94C914E7CF912C212C312C18
:10260000FFE1F315D8F08B3279F038F4803279F0AD
:102610008332A1F4232D20611DC08D3261F08033FF
:1026200069F4232D216016C0832D8260382EE32D9E
:10263000E4603E2E2AC0F32DF8601DC037FC2DC08B
:1026400020ED280F2A3040F08E32B9F436FC81C1DB
:10265000232D2064322E19C036FE06C08AE0989ED3
:10266000200D1124922E11C0EAE02E9E200D11247F
:10267000222EF32DF0623F2E08C08C3621F4832DDC
:102680008068382E02C0883641F4F70193FD8591A9
:1026900093FF81917F018111B3CF982F9F7D955436
:1026A000933028F40C5F1F4F9FE399830DC083364E
:1026B00031F0833771F0833509F059C021C0F8013A
:1026C000808189830E5F1F4F88248394912C53014E
:1026D00013C02801F2E04F0E511CF801A080B18018
:1026E00036FE03C0692D70E002C06FEF7FEFC501B9
:1026F0000E94BE144C018201F32DFF773F2E16C0BD
:10270000280122E0420E511CF801A080B18036FE63
:1027100003C0692D70E002C06FEF7FEFC5010E941A
:10272000B3144C01F32DF0683F2E820133FC1BC023
:10273000822D90E088169906B0F4B60180E290E010
:102740000E94C9142A94F4CFF50137FC859137FE15
:1027500081915F01B60190E00E94C91421102A9472
:1027600021E0821A91088114910471F7E8C084363F
:1027700011F0893641F5F80137FE07C0608171819B
:10278000828193810C5F1F4F08C060817181072E89
:10279000000C880B990B0E5F1F4FF32DFF763F2E19
:1027A00097FF09C090958095709561957F4F8F4FE9
:1027B0009F4FF0683F2E2AE030E0A3010E940515EC
:1027C000882E861845C0853731F4232D2F7EB22EF2
:1027D0002AE030E025C0932D997FB92E8F36C1F0C5
:1027E00018F4883579F0B5C0803719F0883721F0B2
:1027F000B0C0E92FE061BE2EB4FE0DC0FB2DF46029
:10280000BF2E09C034FE0AC0292F2660B22E06C092
:1028100028E030E005C020E130E002C020E132E0F5
:10282000F801B7FE07C060817181828193810C5FDE
:102830001F4F06C06081718180E090E00E5F1F4FE6
:10284000A3010E940515882E8618FB2DFF773F2EC9
:1028500036FE0DC0232D2E7FA22E891458F434FE8F
:102860000BC032FC09C0832D8E7EA82E05C0B82C6B
:10287000A32C03C0B82C01C0B92CA4FE0FC0FE01CC
:10288000E80DF11D8081803321F49A2D997EA92EC7
:1028900009C0A2FE06C0B394B39404C08A2D867802
:1028A00009F0B394A3FC11C0A0FE06C0B21488F4D2
:1028B000280C922C9B180EC0B21460F4B60180E272
:1028C00090E00E94C914B394F7CFB21418F42B18F7
:1028D00002C0982C212CA4FE10C0B60180E390E029
:1028E0000E94C914A2FE17C0A1FC03C088E790E0B3
:1028F00002C088E590E0B6010CC08A2D867859F0B8
:10290000A1FE02C08BE201C080E2A7FC8DE2B6010D
:1029100090E00E94C914891438F4B60180E390E075
:102920000E94C9149A94F7CF8A94F301E80DF11D1F
:102930008081B60190E00E94C9148110F5CF222059
:1029400009F442CEB60180E290E00E94C9142A94B4
:10295000F6CFF6018681978102C08FEF9FEF2B960D
:10296000E2E10C94B015FC0105906150704001103B
:10297000D8F7809590958E0F9F1F0895FC016150A8
:10298000704001900110D8F7809590958E0F9F1F91
:1029900008950F931F93CF93DF93FB01238121FDB4
:1029A00003C08FEF9FEF2CC022FF16C046815781D6
:1029B000248135814217530744F4A081B1819D01E0
:1029C0002F5F3F4F318320838C93268137812F5F88
:1029D0003F4F3783268314C08B01EC01FB01008439
:1029E000F185E02D0995892BE1F6D80116968D9198
:1029F0009C911797019617969C938E931697CE01EC
:102A0000DF91CF911F910F910895FA01AA272830E5
:102A100051F1203181F1E8946F936E7F6E5F7F4FAB
:102A20008F4F9F4FAF4FB1E03ED0B4E03CD0670F27
:102A3000781F891F9A1FA11D680F791F8A1F911D7A
:102A4000A11D6A0F711D811D911DA11D20D009F4CA
:102A500068943F912AE0269F11243019305D31930C
:102A6000DEF6CF010895462F4770405D4193B3E0F5
:102A70000FD0C9F7F6CF462F4F70405D4A3318F09C
:102A8000495D31FD4052419302D0A9F7EACFB4E04D
:102A9000A6959795879577956795BA95C9F7009705
:102AA0006105710508959B01AC010A2E06945795A6
:102AB000479537952795BA95C9F7620F731F841FFD
:102AC000951FA01D0895F999FECF92BD81BDF89A7A
:102AD000992780B50895A8E1B0E042E050E00C9459
:102AE0008615262FF999FECF1FBA92BD81BD20BD54
:102AF0000FB6F894FA9AF99A0FBE019608950E94BB
:102B00007115272F0C947215DC01CB01FC01F9998A
:102B1000FECF06C0F2BDE1BDF89A319600B40D9229
:102B200041505040B8F708952F923F924F925F92D4
:102B30006F927F928F929F92AF92BF92CF92DF92CD
:102B4000EF92FF920F931F93CF93DF93CDB7DEB732
:102B5000CA1BDB0B0FB6F894DEBF0FBECDBF0994C6
:102B60002A88398848885F846E847D848C849B841D
:102B7000AA84B984C884DF80EE80FD800C811B812B
:102B8000AA81B981CE0FD11D0FB6F894DEBF0FBE5A
:102B9000CDBFED01089510E0CAE3D0E004C0FE010E
:102BA0000E942D112196CB33D107C9F7F894FFCF9E
:102BB000000069052000436F6D6D756E6963617477
:102BC000696F6E2077697468202573206661696C6F
:102BD00065640000000000E8006C6D37355F370069
:102BE0006C6D37355F36007B2274797065223A222E
:102BF000706F776572222C22706F776572223A258A
:102C00003034647D0A007B2274797065223A227424
:102C1000656D70657261747572655F6D6178222C87
:102C20002274656D70657261747572655F6D61782F
:102C3000223A253033647D0A007B22747970652244
:102C40003A22657863657074696F6E222C226D6517
:102C50007373616765223A222573227D0A007B2205
:102C600074797065223A226D61785F74656D706564
:102C7000726174757265222C2274656D7065726163
:102C800074757265223A253033647D0A0074797058
:102C9000650073797374656D5F636865636B007B52
:102CA0002274797065223A2273797374656D5F635B
:102CB0006865636B222C22706173736564223A74B9
:102CC0007275657D0A007B2274797065223A2273E1
:102CD000797374656D5F636865636B222C22706124
:102CE00073736564223A66616C73657D0A00727560
:102CF0006E007365745F74656D7065726174757272
:102D0000655F6D6178006765745F74656D7065728D
:102D100061747572655F6D6178007365745F706F63
:102D2000776572006765745F706F776572007365B1
:102D3000745F696E666F5F72617465006765745F6A
:102D40006D61785F74656D70657261747572650030
:102D500000000000CB045468657265206172652034
:102D60006E6F2066616E7300000000007405000045
:102D70000000E805E405FEFF00001D06000000005D
:102D8000C206E206C506C9065007FEFF0000FD06A2
:102D9000FCFF0000D106FAFF00006707F8FF000003
:102DA000CD06000000008C0774633635345F3100B7
:102DB00074633635345F320000000000D407D0075A
:102DC0003908FEFF0000A308FCFF00009F082573E0
:102DD00020657870657269656E6365642061206640
:102DE00061756C7420617320696E646963617465D8
:102DF0006420627920697473207374617475732020
:102E000072656769737465720025732065787065F3
:102E10007269656E636564206120636F756E7465A9
:102E200072206F766572666C6F7720617320696EB1
:102E300064696361746564206279206974732073C6
:102E400074617475732072656769737465720000CC
:102E5000000000A30A74656D706572617475726517
:102E60002073656E736F72730000000000280B20E2
:102E70000A0D090C007D5D00747275650066616C59
:102E80007365006E756C6C00393232333337323013
:102E90003336383534373735383037002D3932321C
:102EA00033333732303336383534373735383038D6
:102EB0000022225C5C2F2F6208660C6E0A720D7471
:102EC00009000000000611460FFEFF0000F20F008F
:00000001FF
