:100000000C9439000C9461000C9461000C94610014
:100010000C9461000C9461000C9461000C946100DC
:100020000C9461000C9461000C9461000C946100CC
:100030000C9461000C9461000C94B3010C94610069
:100040000C9461000C9461000C942D040C946100DC
:100050000C9461000C9461000C9461000C9461009C
:100060000C9461000C946100A7027604E904F60484
:10007000B80211241FBECFEFD8E0DEBFCDBF11E024
:10008000A0E0B1E0E4E7FCE002C005900D92A232EE
:10009000B107D9F722E0A2E2B1E001C01D92AC3471
:1000A000B207E1F710E0C8E3D0E004C02197FE01F9
:1000B0000E94FD04C433D107C9F70E94E6000C94E6
:1000C0002D060C940000000000000000000000005D
:1000D0000000000000000000000000000000000020
:1000E0000000000000000000000000000000000010
:1000F0000000000000000000000000000000000000
:1001000000000000000000000000000008953D987D
:100110003C984598449808953D9AD5DF1DD00895A0
:100120003C9AD1DF3D98CFDF3C98CDDF3D9ACBDFC5
:1001300013D00895082E3D9AC6DF802D0DD0882358
:1001400011F002D0F8CF08953C9A3D9ABCDF3C985C
:10015000BADF3D98B8DF08950894881F01C0880F62
:1001600059F03C9A18F400003D9802C03D9A00C036
:10017000AADF3C98A8DFF3CF3C9A3D98A4DF3C98D7
:10018000349BFECF8827359981E09DDF992708951C
:10019000882701C081E071E03C9A3D9894DF3C984B
:1001A00092DF349BFECF889435990894771FA0F78F
:1001B0003C9A813011F03D9801C03D9A84DF3C9813
:1001C000349BFECF80DF872F99270895CF93DF934D
:1001D00000D000D0CDB7DEB70FB6F894A8958091C7
:1001E0006000886180936000109260000FBE0E94E2
:1001F00087000E94ED040E94C3047C01CE01019699
:100200000E946B0110E0CE0101960E948901693EB7
:10021000734081059105BCF3CE0101960E94A101B6
:10022000C70111110BC00E94E504DC01ED91FC91A6
:100230000190F081E02D099511E0E5CF0E94E504E1
:10024000DC01ED91FC910280F381E02D0995DACF7C
:10025000FC0171836083538342830895FF920F935F
:100260001F93CF93DF93EC018B01F42E842F90E04A
:100270009B838A83880F991F0E94B1019983888389
:10028000D80180E08F1569F09D01201B310BE881BA
:10029000F981E20FF31F2D913D91318320838F5F10
:1002A000F1CFDF91CF911F910F91FF900895809131
:1002B000230190912401A0912501B09126010A9675
:1002C000A11DB11D8093230190932401A0932501CA
:1002D000B09326010895CF93DF93EC018091220122
:1002E000811108C061E087E591E00E94620281E02F
:1002F000809322018091230190912401A0912501F6
:10030000B091260188839983AA83BB83DF91CF9123
:1003100008950F931F93FC01809123019091240174
:10032000A0912501B09126010081118122813381A4
:10033000BC01CD01601B710B820B930B1F910F91C0
:1003400008954091230150912401609125017091FD
:100350002601FC01408351836283738308950C94CA
:1003600003050C9403051F920F920FB60F921124F0
:100370002F933F934F935F936F937F938F939F93AD
:10038000AF93BF93CF93DF93EF93FF93F894C0E0C5
:10039000D0E080912E0190912F01C817D90778F4F1
:1003A000E0913201F0913301CE01880F991FE80FDF
:1003B000F91F0190F081E02D09952196EACF7894FC
:1003C000FF91EF91DF91CF91BF91AF919F918F916D
:1003D0007F916F915F914F913F912F910F900FBE41
:1003E0000F901F901895CF93DF9320E030E0DC0151
:1003F0004D915C91119724173507A0F41496ED9157
:10040000FC911597A901440F551FE40FF51FEB014F
:10041000A881B98140815181A417B50729F02F5FC8
:100420003F4FE5CF80E001C081E0DF91CF9108959B
:10043000EF92FF920F931F93CF93DF93EC018B0109
:100440002A813B81888199812817390711F58A8192
:100450009B81892B29F08A819B81880F991F02C07B
:1004600081E090E09B838A838A819B81880F991F1A
:100470000E9403057C01488159816C817D81440F74
:10048000551F0E9424068C819D810E949B05FD8240
:10049000EC82EC81FD81888199819C012F5F3F4F27
:1004A00039832883D8012D913C91880F991FE80F3B
:1004B000F91F31832083DF91CF911F910F91FF901E
:1004C000EF900895CF93DF9300D0CDB7DEB79A8336
:1004D000898380912701811114C014BC15BC16BCFE
:1004E0008DE487BD84B5826084BD85B5856085BD9A
:1004F00080916E00826080936E00789481E080939A
:100500002701613079F4BE016F5F7F4F8EE291E089
:100510000E94F301811116C0BE016F5F7F4F8EE212
:1005200091E00EC0BE016F5F7F4F88E291E00E94B4
:10053000F301811107C0BE016F5F7F4F88E291E038
:100540000E9418020F900F90DF91CF910895EEE274
:10055000F1E0118210821382128215821482E8E285
:10056000F1E01182108213821282158214820895A2
:1005700080912C0190912D010E949B058091320168
:10058000909133010C949B052F923F925F926F9252
:100590007F928F929F92AF92BF92CF92DF92EF9213
:1005A000FF920F931F93CF93DF93CDB7DEB72A97B8
:1005B0000FB6F894DEBF0FBECDBF6C0100E010E0B7
:1005C000512C845F9E4F9A878987160192EF291AD2
:1005D0009EEF390AE985FA858081801709F445C0C4
:1005E0003801660C771C6C0C7D1CF30184819581AD
:1005F00018161906D4F584809580C40101960E94CE
:10060000B1015C01FC01E12CF12CC80126E0880F4E
:10061000991F2A95E1F78C0D9D1DE814F90451F0FE
:10062000DC01AE0DBF1D1C962C9121932FEFE21A19
:10063000F20AF3CFF501EE0DFF1D108284E090E089
:100640000E94AF014C01A701B5010E942801FE01E3
:100650003196E50DF11DE50DF11D918280825394D7
:10066000F30115821482F10110820F5F1F4F0430D5
:10067000110509F0AFCF552061F084E090E00E94B1
:10068000AF018C01452DBE016F5F7F4F0E942E018F
:1006900002C000E010E0C8012A960FB6F894DEBF51
:1006A0000FBECDBFDF91CF911F910F91FF90EF90C3
:1006B000DF90CF90BF90AF909F908F907F906F9082
:1006C0005F903F902F90089502970C94C402FC0114
:1006D000DC01A45FBE4F1C9211961C9211961C92D5
:1006E0005098519A158214821782168211861086AC
:1006F000138612861092C50083E38093C400E0EC59
:10070000F0E080818D7F808388E98093C100E2ECF6
:10071000F0E0808186608083789408958091340130
:10072000811107C085E391E00E94670381E0809317
:10073000340185E391E00895CF93DF934091C600A3
:100740004D3019F04A3009F050C0FC01E45FFE4F13
:1007500040819C01240F311D240F311DD9011496B5
:100760002D913C91232B09F475C0EC01C35FDE4F42
:10077000288121112FC02081233070F420812F5F28
:1007800020832081820F911D820F911DFC013496E0
:100790001182108218825EC020E030E0D9011296EA
:1007A000AA0FBB1FA80FB91F4D915C91452B39F4BF
:1007B00020831882FC01E25FFE4F10824BC02F5F46
:1007C0003F4F2430310551F7FC01E25FFE4F21E03D
:1007D000208340C018822081820F911D820F911DBD
:1007E000FC0134961182108235C0DC01A35FBE4F3C
:1007F0002C9121112FC0FC01E25FFE4F20812111BD
:1008000029C0FC01E45FFE4F50819C01250F311D82
:10081000250F311DE90124962881398120343105C5
:100820001CF081E08C9316C05081DC0160E4569F7F
:10083000A00DB11D1124A20FB31F1C964C93408133
:100840002F5F3F4F840F911D840F911DFC01349643
:1008500031832083DF91CF9108951F920F920FB6BD
:100860000F9211242F933F934F935F936F937F9336
:100870008F939F93AF93BF93EF93FF93F8940E944E
:100880008E030E949C037894FF91EF91BF91AF91EA
:100890009F918F917F916F915F914F913F912F9198
:1008A0000F900FBE0F901F9018958091C00085FF8C
:1008B000FCCF6093C6000895EF92FF920F931F93B1
:1008C000CF93DF937C01EB018B01040F151FC01741
:1008D000D10729F06991C7010E945504F8CFDF9133
:1008E000CF911F910F91FF90EF900895E5E3F1E014
:1008F0008AE091E09183808382E191E09383828317
:100900000895DC0114964D915C9115971296ED9126
:10091000FC911397CA01959587951A962D913C9154
:100920001B9740FF0AC0D901A80FB91F4D915C91D8
:10093000E40FF51F0190F081E02D820F931F0994C1
:10094000DC0118964D915C9119971696ED91FC91EA
:100950001797CA01959587951A962D913C911B97EB
:1009600040FF0AC0D901A80FB91F4D915C91E40F57
:10097000F51F0190F081E02D820F931F09940C94D4
:10098000F1040C94F30484E492E00895CF93DF9390
:10099000EC018CE090E00E94AF01FC0188E191E065
:1009A000918380838FEB94E09383828315821482FA
:1009B00081EC94E09783868311861086D387C28763
:1009C000F983E883DF91CF910895FC0180819181C3
:1009D000089584E492E00C94C6048AB18C608AB9CC
:1009E00008955B9A08955B980895089580E291E0D8
:1009F00090934702809346020895EE0FFF1F0590E3
:100A0000F491E02D09940F931F93CF93DF938230DD
:100A1000910510F482E090E0E0914A02F0914B02DF
:100A200020E030E0A0E0B0E0309719F14081518142
:100A30000281138148175907C8F08417950769F494
:100A4000109731F012960C93129713961C9327C0AF
:100A500000934A0210934B0222C02115310519F070
:100A60004217530718F49A01BD01EF01DF01F801A5
:100A7000DBCF21153105F9F0281B390B2430310566
:100A800080F48A819B816115710521F0FB019383BC
:100A9000828304C090934B0280934A02FE013296F7
:100AA00044C0FE01E20FF31F81939193225031095C
:100AB000398328833AC02091480230914902232B80
:100AC00041F42091020130910301309349022093B7
:100AD000480220910001309101012115310541F4B6
:100AE0002DB73EB74091040150910501241B350BF1
:100AF000E0914802F0914902E217F307A0F42E1B9F
:100B00003F0B2817390778F0AC014E5F5F4F241771
:100B1000350748F04E0F5F1F50934902409348023B
:100B20008193919302C0E0E0F0E0CF01DF91CF919B
:100B30001F910F910895CF93DF93009709F481C01F
:100B4000FC01329713821282A0914A02B0914B02AB
:100B5000109781F420813181820F931F20914802E8
:100B6000309149022817390751F5F0934902E09373
:100B7000480267C0ED0120E030E0CE17DF0740F407
:100B80004A815B819E0141155105F1F0EA01F5CFE3
:100B9000D383C28340815181840F951FC817D90721
:100BA00059F488819981840F951F029691838083DF
:100BB0008A819B81938382832115310529F4F093E7
:100BC0004B02E0934A023DC0E901FB83EA8349916D
:100BD0005991C40FD51FEC17FD0761F480819181F5
:100BE000840F951F0296E9019983888382819381FE
:100BF0009B838A83E0E0F0E012968D919C9113979D
:100C0000009719F0FD01DC01F7CF8D919C911197B0
:100C10009D012E5F3F4F820F931F2091480230911C
:100C200049022817390769F4309729F410924B02CA
:100C300010924A0202C013821282B0934902A0931A
:100C40004802DF91CF910895FB01DC0102C00190C1
:100C50000D9241505040D8F7089510E0C8E3D0E01D
:100C600004C0FE010E94FD042196C933D107C9F7D3
:040C7000F894FFCF26
:100C740000004C022000000000005C04C402FEFFDF
:100C840000006403000000008104A00400000000D0
:020C9400F50465
:00000001FF
